:100000000C9463000C948B000C948B000C94BF0434
:100010000C94BF040C94BF040C948B000C948B00C4
:100020000C948B000C948B000C948B000C94370573
:100030000C948B000C948B000C948B000C948B0014
:100040000C9475040C948B000C9443040C941D04C4
:100050000C948B000C948B000C948B000C948B00F4
:100060000C94F3050C948B00000000002400270082
:100070002A0000000008000201000003040700003D
:1000800000000000000000000000230026002900FE
:1000900000000000250028002B00040404040404D0
:1000A0000404020202020202030303030303010227
:1000B00004081020408001020408102001020408F6
:1000C00010201207110B11241FBECFEFD8E0DEBFA6
:1000D000CDBF11E0A0E0B1E0E6E8F7E102C0059095
:1000E0000D92A833B107D9F723E0A8E3B1E001C02E
:1000F0001D92AE31B207E1F710E0C2E6D0E004C0D5
:100100002197FE010E94B00BC136D107C9F70E94AA
:10011000F1070C94B60B0C940000E0912002F091D2
:100120002102309729F010921B0210921A020994B2
:100130000895CF93DF93AC01E0911E02F0911F026E
:100140003097F1F090911D0280911C029817C0F039
:1001500090E0292F30E02617370754F4D901A85C26
:10016000BE4F240F351FE90128812C939F5FF1CFEB
:1001700010921D0260931C02CB01DF91CF91099474
:10018000DF91CF910895AF92BF92CF92DF92EF921D
:10019000FF920F931F93CF93DF936C017B018B0131
:1001A000040F151FEB015E01AE18BF08C017D10781
:1001B00059F06991D601ED91FC910190F081E02D0B
:1001C000C6010995892B79F7C501DF91CF911F9160
:1001D0000F91FF90EF90DF90CF90BF90AF90089578
:1001E000FC01538D448D252F30E0842F90E0821B3D
:1001F000930B541710F0CF96089501970895FC01C2
:10020000918D828D981761F0A28DAE0FBF2FB11D19
:100210005D968C91928D9F5F9F73928F90E0089571
:100220008FEF9FEF0895FC01918D828D981731F02B
:10023000828DE80FF11D858D90E008958FEF9FEF7F
:100240000895FC01918D228D892F90E0805C9F4F55
:10025000821B91098F739927089588E292E00E948A
:10026000210121E0892B09F420E0822F089580E00C
:1002700090E0892B29F00E942D0181110C9400003F
:100280000895FC01A48DA80FB92FB11DA35ABF4F2B
:100290002C91848D90E001968F739927848FA68985
:1002A000B7892C93A089B1898C91837080648C93D9
:1002B000938D848D981306C00288F389E02D808188
:1002C0008F7D80830895EF92FF920F931F93CF93BA
:1002D000DF93EC0181E0888F9B8D8C8D98131AC081
:1002E000E889F989808185FF15C09FB7F894EE8968
:1002F000FF896083E889F9898081837080648083C5
:100300009FBF81E090E0DF91CF911F910F91FF900F
:10031000EF900895F62E0B8D10E00F5F1F4F0F73B7
:100320001127E02E8C8D8E110CC00FB607FCFACF72
:10033000E889F989808185FFF5CFCE010E944101CE
:10034000F1CFEB8DEC0FFD2FF11DE35AFF4FF08243
:100350009FB7F8940B8FEA89FB8980818062CFCFA9
:10036000CF93DF93EC01888D8823B9F0AA89BB89EC
:10037000E889F9898C9185FD03C0808186FD0DC0D7
:100380000FB607FCF7CF8C9185FFF2CF808185FFF8
:10039000EDCFCE010E944101E9CFDF91CF910895C9
:1003A00090E0FC01EE58FF4F2491FC01E255FF4F15
:1003B0003491FC01E656FF4FE491EE23C9F022236D
:1003C00039F0233001F1A8F4213019F1223029F15C
:1003D000F0E0EE0FFF1FE057FF4FA591B4918FB7EC
:1003E000F894EC91611126C030953E233C938FBF69
:1003F00008952730A9F02830C9F0243049F78091BA
:1004000080008F7D03C0809180008F778093800073
:10041000DFCF84B58F7784BDDBCF84B58F7DFBCFF5
:100420008091B0008F778093B000D2CF8091B000E0
:100430008F7DF9CF3E2BDACFCF93DF9390E0FC0195
:10044000E255FF4F249186569F4FFC0184918823EB
:10045000D1F090E0880F991FFC01E859FF4FA5915A
:10046000B491FC01E057FF4FC591D49161110EC0CA
:100470009FB7F8948C91E22FE0958E238C9328817E
:10048000E223E8839FBFDF91CF9108958FB7F8945F
:10049000EC91E22BEC938FBFF6CF3FB7F8948091AD
:1004A0000E0290910F02A0911002B091110226B598
:1004B000A89B05C02F3F19F00196A11DB11D3FBF9C
:1004C000BA2FA92F982F8827BC01CD01620F711D6B
:1004D000811D911D42E0660F771F881F991F4A9565
:1004E000D1F7089520911402309115022817390789
:1004F00071F49091120280911302981741F0E091EB
:100500001202F0E0E753FE4F808190E008958FEFF4
:100510009FEF08950895EF92FF920F931F93CF934B
:10052000DF93DC015C96ED90FC905D97E114F104A3
:1005300079F481E090E013969C938E93129790E06B
:1005400080E0DF91CF911F910F91FF90EF90089580
:100550005196ED91FC91529750968C915097982F0F
:1005600090950FB75E962C915E97122F127021FD19
:100570006095F8942081112319F1282B2083E7013D
:100580002197F1F728E0462F50E0308160FF1AC034
:10059000382B3083E7012197F1F7BA0175956795FC
:1005A000215089F7112381F08081892380830FBF37
:1005B0005C968D919C910197F1F781E090E0C1CF1D
:1005C0002923DCCF3923E5CF9081892BEFCF2091F0
:1005D0001402309115022817390761F48091130233
:1005E0002091120290E0805C9F4F821B91098F73D3
:1005F0009927089590E080E00895209114023091A9
:10060000150228173907B9F490911202809113024C
:10061000981789F0E0911202F0E0E753FE4F8081D5
:100620002091120230E02F5F3F4F2F73332720932A
:10063000120290E008958FEF9FEF089520917E01C0
:10064000260F3327331F21323105ECF42091A2010C
:10065000FC0190E080E0243069F082E00895A091F0
:100660007E012191AC01425A5E4FA40FB52FB11DFE
:100670002C930196861798F380917E01680F609302
:100680007E0180E0089581E008951092A20181E04A
:100690008093A4011092A30161E082E10E94D00145
:1006A00061E083E10E94D001E9EBF0E080818E7F80
:1006B000808380818D7F808388E48093B80085E487
:1006C0008093BC000895E0911D0280911C02E81700
:1006D00030F4F0E0E85CFE4F808190E008958FEF09
:1006E0009FEF089590911D0280911C022FEF3FEF24
:1006F000981748F4E92FF0E0E85CFE4F208130E0E5
:100700009F5F90931D02C90108950F931F93CF938C
:10071000DF938C01D0E0C0E0C017D10734F485EC42
:1007200092E00E9472032196F7CFDF91CF911F9143
:100730000F91089580911C0290911D02891B990BC5
:100740000895CF93DF93CB01EA01642F0E941E032B
:10075000CE01DF91CF910895CF93DF931F92CDB754
:10076000DEB7698361E0CE0101960E941E0381E03D
:1007700090E00F90DF91CF91089590E080E0089590
:100780006091220285EC92E00C94AC03CF93DF934E
:1007900085ED8093BC0080915A0190915B01A091FE
:1007A0005C01B0915D010796A11DB11D23E0B695D6
:1007B000A795979587952A95D1F72091BC0024FDA0
:1007C00003C01092A20136C040915A0150915B01C2
:1007D00060915C0170915D01452B462B472B69F3BD
:1007E0000097A105B10541F02AE22A95F1F700C072
:1007F0000197A109B109E1CF8091590191E090934E
:1008000058018823B9F0C091B800D091BA00809106
:10081000BC008A7B8093BC0060E082E10E94D00132
:1008200060E083E10E94D0010E944503D093BA00AA
:10083000C093B800DF91CF9108951F920F920FB629
:100840000F9211242F933F934F935F936F937F9356
:100850008F939F93AF93BF93EF93FF9388E292E0C0
:100860000E944101FF91EF91BF91AF919F918F91B4
:100870007F916F915F914F913F912F910F900FBE9C
:100880000F901F9018951F920F920FB60F92112480
:100890002F938F939F93EF93FF93E0913802F09102
:1008A00039028081E0913E02F0913F0282FD1BC03F
:1008B0009081809141028F5F8F7320914202821755
:1008C00041F0E0914102F0E0E85DFD4F958F8093AB
:1008D0004102FF91EF919F918F912F910F900FBE49
:1008E0000F901F9018958081F4CF1F920F920FB632
:1008F0000F9211242F933F938F939F93AF93BF93A6
:1009000080910A0290910B02A0910C02B0910D020D
:100910003091090223E0230F2D3758F50196A11DD0
:10092000B11D2093090280930A0290930B02A093B9
:100930000C02B0930D0280910E0290910F02A091D3
:100940001002B09111020196A11DB11D80930E02FB
:1009500090930F02A0931002B0931102BF91AF9138
:100960009F918F913F912F910F900FBE0F901F90ED
:10097000189526E8230F0296A11DB11DD2CF1F9214
:100980000F920FB60F9211242F933F934F935F93C3
:100990006F937F938F939F93AF93BF93EF93FF9347
:1009A000E0911402F0911502309749F0A685B785C1
:1009B0008585968D91FF14C09C918923A1F4FF91A8
:1009C000EF91BF91AF919F918F917F916F915F91C7
:1009D0004F913F912F910F900FBE0F901F90189540
:1009E0009C91892361F7A389B4899C91858980951D
:1009F00089238C93868997890197F1F7608D718D92
:100A0000A685B785558538E020E0CB010197F1F741
:100A1000822F90E095958795282F4C91452309F0DA
:100A20002068315091F7868D81FD209580911302C9
:100A300090E001968F73992730911202381799F040
:100A4000A0911302B0E0A753BE4F2C9380931302E2
:100A5000828D938D0197F1F7A389B4898C91958943
:100A6000892B8C93ACCF868D8160868FF1CF1F92BE
:100A70000F920FB60F9211242F933F934F935F93D2
:100A80006F937F938F939F93AF93BF93CF93DF9396
:100A9000EF93FF938091C801C091F502D0E087FFEA
:100AA00024C010928500109284008091C8018F5F4D
:100AB0008093C8018091C801082E000C990B8C17F7
:100AC0009D0724F48091C8018C30C4F1809184008A
:100AD00090918500049680349C4908F47AC08091F6
:100AE000840090918500049676C08091C801082EFC
:100AF000000C990B8C179D07C4F6E091C8018E2F4E
:100B0000EE0F990BFC01EE0FFF1FE80FF91FEF52DC
:100B1000FD4F808186FFC9CFE091C8018E2FEE0F77
:100B2000990BFC01EE0FFF1FE80FF91FEF52FD4F6D
:100B3000808160E08F730E94D001B7CF2091840044
:100B400030918500E091C8018E2FEE0F990BFC01CA
:100B5000EE0FFF1FE80FF91FEF52FD4F81819281C9
:100B6000820F931F9093890080938800E091C801C1
:100B70008E2FEE0F990BFC01EE0FFF1FE80FF91FF0
:100B8000EF52FD4F808186FF11C0E091C8018E2F8A
:100B9000EE0F990BFC01EE0FFF1FE80FF91FEF524C
:100BA000FD4F808161E08F730E94D001FF91EF9132
:100BB000DF91CF91BF91AF919F918F917F916F9175
:100BC0005F914F913F912F910F900FBE0F901F900B
:100BD000189580E49CE990938900809388008FEFBA
:100BE0008093C801E3CF1F920F920FB60F9211248A
:100BF0002F933F934F935F936F937F938F939F9325
:100C0000AF93BF93EF93FF938091B900887F8036B5
:100C100009F44AC0F0F5883209F4A7C018F580310C
:100C200009F49BC0B8F4882309F4F9C0883009F4AA
:100C300094C0FF91EF91BF91AF919F918F917F9160
:100C40006F915F914F913F912F910F900FBE0F9039
:100C50001F901895883109F488C0803251F780932D
:100C6000A10114C0803409F49DC040F48033B9F36D
:100C70008833F9F68093A10185ECB0C0803509F482
:100C800085C0883509F496C0883499F60E94C60359
:100C9000D0CF883909F48CC038F5883729F050F462
:100CA000883611F0803729F683E08093A2011092F4
:100CB000A00157C0883809F47BC0803919F080380A
:100CC00009F0B7CF8091A001803208F071C0E091A7
:100CD000A00181E08E0F8093A0018091BB00F0E025
:100CE000E058FE4F80833DC0803B39F0E0F4803A0D
:100CF00009F479C0883A09F09CCF84E08093A2017E
:100D000010927F0110927E01E0911802F091190279
:100D1000099580917E0181110FC081E080937E0151
:100D200010925E0109C0803C09F4A6CF883C09F40A
:100D3000A3CF883B09F07DCFE0917F0181E08E0F4A
:100D400080937F01F0E0E25AFE4F80818093BB00E8
:100D500090917F0180917E0129C08091C70180938D
:100D6000BB0085EC8093BC0064CF9091C60180915C
:100D7000C501981758F5E091C60181E08E0F809368
:100D8000C601F0E0EB55FE4F8081E9CFE091C6014E
:100D900081E08E0F8093C6018091BB00F0E0EB559F
:100DA000FE4F80839091C6018091C5019817C8F2CB
:100DB00085E8D8CFE091C60181E08E0F8093C6010F
:100DC0008091BB00F0E0EB55FE4F80838091A40141
:100DD00081115CCF81E08093A30184EA8093BC0001
:100DE0001092A20126CF85EC8093BC001092A20144
:100DF0008091A001803230F4E091A001F0E0E05851
:100E0000FE4F10826091A00170E0E0911602F09117
:100E1000170280E891E009951092A0010ACF109284
:100E2000A10134CF10922B0210922A0288EE93E097
:100E3000A0E0B0E080932C0290932D02A0932E02AC
:100E4000B0932F0226E031E030932902209328024C
:100E500025EC30E0309335022093340224EC30E06E
:100E6000309337022093360220EC30E03093390281
:100E70002093380221EC30E030933B0220933A0279
:100E800022EC30E030933D0220933C0226EC30E02F
:100E900030933F0220933E02109241021092420290
:100EA00010924302109244021092C8021092C7029C
:100EB0008093C9029093CA02A093CB02B093CC0254
:100EC00028E131E03093C6022093C502109202035C
:100ED000109201038093030390930403A0930503EE
:100EE000B09306038AE291E0909300038093FF029F
:100EF0001092160310921503109218031092170304
:100F000010921A031092190310921C0310921B03E3
:100F100060911D036E7F6D7F60931D036695617008
:100F200081E0682787E00E94D00161E087E00E94AD
:100F30001C02E5EBF0E0E491E0930F03E1EAF0E05E
:100F4000E491F0E0EE0FFF1FE057FF4F8591949181
:100F5000909311038093100360E088E00E941C02CC
:100F600080911D0381FD04C061E088E00E94D001F2
:100F700088E080930B03E6EBF0E0E491E0930C0350
:100F8000E2EAF0E0E491F0E0EE0FFF1FEA57FF4FD6
:100F90008591949190930E0380930D031092FC021F
:100FA0001092FB021092FE021092FD028091F50257
:100FB0008C3098F491E0980F9093F5028093F602AC
:100FC00090E0FC01EE0FFF1FE80FF91FEF52FD4FFD
:100FD00088EB9BE09283818308958FEF8093F602E4
:100FE0000895CF93DF93CDB7DEB72D970FB6F89462
:100FF000DEBF0FBECDBF789484B5826084BD84B55A
:10100000816084BD85B5826085BD85B5816085BD03
:1010100080916E00816080936E00109281008091BB
:101020008100826080938100809181008160809343
:101030008100809180008160809380008091B10068
:1010400084608093B1008091B00081608093B00093
:1010500080917A00846080937A0080917A00826027
:1010600080937A0080917A00816080937A008091E9
:101070007A00806880937A001092C100E091380273
:10108000F091390282E08083E0913402F0913502E0
:101090001082E0913602F091370280E18083109255
:1010A0004002E0913C02F0913D0286E08083E091B5
:1010B0003A02F0913B02808180618083E0913A02A4
:1010C000F0913B02808188608083E0913A02F09148
:1010D0003B02808180688083E0913A02F0913B027C
:1010E00080818F7D80838091F6028C3008F051C022
:1010F00061E086E00E941C028091F602282F30E019
:10110000F901EE0FFF1FE20FF31FEF52FD4F908129
:10111000907C966090831092F7021092F8022CE077
:10112000622F0E94900B829FB001112430E020E0DA
:10113000AB01420F531FFA01EE0FFF1FE40FF51F23
:10114000EF52FD4F908196FD16C02F5F3F4F2C3020
:10115000310571F781110FC01092800082E08093F9
:1011600081001092850010928400B19A80916F00E6
:10117000826080936F00E091F6028E2F90E0FC0178
:10118000EE0FFF1FE80FF91FEF52FD4F80818064C3
:10119000808361E08DE00E941C028FEF92E09093CB
:1011A000FA028093F90210921A0310921903109216
:1011B00018031092170310921603109215038FE173
:1011C00090E090931C0380931B0390910B03963146
:1011D00008F047C021E030E0309316032093150358
:1011E0002DE130E030931803209317032DE030E019
:1011F00030931A03209319032091680084E09830FB
:1012000048F031E09E3008F430E081E001C0880F02
:101210003A95EAF7822B809368002DE630E098300B
:1012200050F02BE630E09E3030F02CE630E0963186
:1012300010F030E020E03093130320931203292FA5
:1012400030E0983008F01BC181E001C0880F9A950A
:10125000EAF78093140380911B0390911C0301977C
:10126000F1F78091190390911A03892B49F1E091CC
:101270001402F091150222E0EF3FF20709F13097D6
:1012800039F0A389B4899C918589809589238C93B1
:1012900080911D038E7F80931D0310921302109284
:1012A00012028FEF92E09093150280931402E09166
:1012B0001203F0911303808190911403892B808392
:1012C00010921D0210921C0210921B0210921A0220
:1012D0000E9445038DE890E09093190280931802D4
:1012E00089E990E0909317028093160282E0809340
:1012F000BA0085E893E090931F0280931E0280EC71
:1013000093E09093210280932002AE01475F5F4FEC
:101310005D874C87E8E52E2EE2E03E2E88248394FC
:10132000912CCE0101969B878A8763E0A62EB12C73
:1013300089E0AA85BB851D928A95E9F78091F9021B
:101340009091FA02DC01ED91FC910084F185E02D91
:101350000995892B09F44DC18091F9029091FA0207
:10136000DC01ED91FC910284F385E02D099589352E
:1013700029F78091F9029091FA02DC01ED91FC913C
:101380000284F385E02D09958935C1F68E010D5F44
:101390001F4F52EBC52ED12CE12CF12C8091F9027C
:1013A0009091FA02DC01ED91FC910284F385E02D2D
:1013B0000995F80181938F01C80ED11CE11CF11C25
:1013C0004C855D854E175F0749F78091F902909132
:1013D000FA02DC01ED91FC910284F385E02D099580
:1013E000DD24EE24FF2490E0B0E0A0E0C816D9068A
:1013F000EA06FB0609F0A2CF8C8190E0982F88279F
:101400002B81820F911D9093FC028093FB022E8111
:1014100030E0322F22274D81240F311D3093FE0200
:101420002093FD028F309105BCF565E070E00E94CD
:101430009C0B709327026093260280912402909166
:1014400025022091000130910101820F931F90939A
:101450002502809324028B3591051CF1E9E5F0E02B
:10146000F0932502E09324024DEF5FEF50930101CA
:1014700040930001109223021092220220C09E305D
:1014800040F42850310981E001C0880F2A95EAF71D
:10149000E0CE2E503109F7CFB0922702A09226025B
:1014A000CCCF8A35910508F0B1C080912602909189
:1014B0002702039720F49092230280922202A091A7
:1014C0002402B0912502A03252E0B507D4F58091F4
:1014D000F702E8E8CE2ED12CC81AD10887FDD394A4
:1014E000CC0CDD1CCC0CDD1C0D2C000CEE08FF0818
:1014F0008091F8029101281B310987FD3395220F55
:10150000331F220F331F032E000C440B550B2C19D5
:101510003D094E095F09A53BB10514F0A4EBB0E00D
:10152000B7FF02C0B0E0A0E00E94570B24EB30E010
:1015300040E050E00E942D0BC20ED31EE41EF51EAB
:10154000D6012091F6022C3080F58091F702E8E870
:10155000F0E0E81BF10987FDF395CF01880F991F93
:10156000880F991FA817B90784F08091F802A1018C
:10157000481B510987FD5395CA01880F991F880F91
:10158000991FA817B9070CF4CD010297880F991F6E
:101590004FB7F89430E0F901EE0FFF1FE20FF31F91
:1015A000EF52FD4F928381834FBF0E944D022B016A
:1015B0003C018CE3C82ED12CE12CF12C0E944D0271
:1015C0006419750986099709683E7340810591057C
:1015D000A8F351E0C51AD108E108F10888EE480ED9
:1015E00083E0581E611C711CC114D104E104F10494
:1015F00029F780E090E0892B09F49ACE0E942D0112
:10160000882309F48ECE0E94000088CE97FF57CF22
:101610009092250280922402B0920101A0920001D2
:1016200029CF8AE291E0909300038093FF0280919A
:101630001402909115028F5F924071F4E0911203B1
:10164000F091130390818091140380958923808306
:1016500010921502109214020895052E97FB1EF4A5
:1016600000940E94440B57FD07D00E945F0B07FCBB
:1016700003D04EF40C94440B509540953095219531
:101680003F4F4F4F5F4F08959095809570956195AE
:101690007F4F8F4F9F4F08950E94810BA59F900D04
:1016A000B49F900DA49F800D911D11240895B7FF44
:1016B0000C944C0B0E944C0B821B930B0895A1E2DF
:1016C0001A2EAA1BBB1BFD010DC0AA1FBB1FEE1FBC
:1016D000FF1FA217B307E407F50720F0A21BB30B07
:1016E000E40BF50B661F771F881F991F1A9469F783
:1016F00060957095809590959B01AC01BD01CF01DF
:101700000895A29FB001B39FC001A39F700D811DDA
:101710001124911DB29F700D811D1124911D0895FA
:10172000991B79E004C0991F961708F0961B881F33
:101730007A95C9F780950895AA1BBB1B51E107C094
:10174000AA1FBB1FA617B70710F0A61BB70B881F51
:10175000991F5A95A9F780959095BC01CD010895E0
:10176000EE0FFF1F0590F491E02D099410E0C2E602
:10177000D0E004C0FE010E94B00B2196C336D10711
:06178000C9F7F894FFCF49
:101786000100000000006301C300F000B001210168
:10179600FF00130100000000AC03A103BD038A0291
:1017A6009A0372036303000000008B02C300BD03AB
:0817B6008A02E702FD02720243
:00000001FF
