:100000000C9463000C948B000C948B000C941005E2
:100010000C9410050C9410050C948B000C948B0020
:100020000C948B000C948B000C948B000C94880522
:100030000C948B000C948B000C948B000C948B0014
:100040000C94C6040C948B000C9494040C946E04D1
:100050000C948B000C948B000C948B000C948B00F4
:100060000C9444060C948B00000000002400270030
:100070002A0000000008000201000003040700003D
:1000800000000000000000000000230026002900FE
:1000900000000000250028002B00040404040404D0
:1000A0000404020202020202030303030303010227
:1000B00004081020408001020408102001020408F6
:1000C00010206307820B11241FBECFEFD8E0DEBFE4
:1000D000CDBF11E0A0E0B1E0E0E4F8E102C005909E
:1000E0000D92A034B107D9F723E0A0E4B1E001C03C
:1000F0001D92A632B207E1F710E0C2E6D0E004C0DC
:100100002197FE010E940D0CC136D107C9F70E944C
:1001100042080C94130C0C940000E0912802F0911A
:100120002902309729F0109223021092220209949A
:100130000895CF93DF93AC01E0912602F09127025E
:100140003097F1F090912502809124029817C0F029
:1001500090E0292F30E02617370754F4D901A05C2E
:10016000BE4F240F351FE90128812C939F5FF1CFEB
:100170001092250260932402CB01DF91CF91099464
:10018000DF91CF910895AF92BF92CF92DF92EF921D
:10019000FF920F931F93CF93DF936C017B018B0131
:1001A000040F151FEB015E01AE18BF08C017D10781
:1001B00059F06991D601ED91FC910190F081E02D0B
:1001C000C6010995892B79F7C501DF91CF911F9160
:1001D0000F91FF90EF90DF90CF90BF90AF90089578
:1001E000FC01538D448D252F30E0842F90E0821B3D
:1001F000930B541710F0CF96089501970895FC01C2
:10020000918D828D981761F0A28DAE0FBF2FB11D19
:100210005D968C91928D9F5F9F73928F90E0089571
:100220008FEF9FEF0895FC01918D828D981731F02B
:10023000828DE80FF11D858D90E008958FEF9FEF7F
:100240000895FC01918D228D892F90E0805C9F4F55
:10025000821B91098F739927089580E392E00E9491
:10026000210121E0892B09F420E0822F089580E00C
:1002700090E0892B29F00E942D0181110C9400003F
:100280000895FC01A48DA80FB92FB11DA35ABF4F2B
:100290002C91848D90E001968F739927848FA68985
:1002A000B7892C93A089B1898C91837080648C93D9
:1002B000938D848D981306C00288F389E02D808188
:1002C0008F7D80830895EF92FF920F931F93CF93BA
:1002D000DF93EC0181E0888F9B8D8C8D98131AC081
:1002E000E889F989808185FF15C09FB7F894EE8968
:1002F000FF896083E889F9898081837080648083C5
:100300009FBF81E090E0DF91CF911F910F91FF900F
:10031000EF900895F62E0B8D10E00F5F1F4F0F73B7
:100320001127E02E8C8D8E110CC00FB607FCFACF72
:10033000E889F989808185FFF5CFCE010E944101CE
:10034000F1CFEB8DEC0FFD2FF11DE35AFF4FF08243
:100350009FB7F8940B8FEA89FB8980818062CFCFA9
:10036000CF93DF93EC01888D8823B9F0AA89BB89EC
:10037000E889F9898C9185FD03C0808186FD0DC0D7
:100380000FB607FCF7CF8C9185FFF2CF808185FFF8
:10039000EDCFCE010E944101E9CFDF91CF910895C9
:1003A00090E0FC01EE58FF4F2491FC01E255FF4F15
:1003B0003491FC01E656FF4FE491EE23C9F022236D
:1003C00039F0233001F1A8F4213019F1223029F15C
:1003D000F0E0EE0FFF1FE057FF4FA591B4918FB7EC
:1003E000F894EC91611126C030953E233C938FBF69
:1003F00008952730A9F02830C9F0243049F78091BA
:1004000080008F7D03C0809180008F778093800073
:10041000DFCF84B58F7784BDDBCF84B58F7DFBCFF5
:100420008091B0008F778093B000D2CF8091B000E0
:100430008F7DF9CF3E2BDACFCF93DF9390E0FC0195
:10044000E255FF4F249186569F4FFC0184918823EB
:10045000D1F090E0880F991FFC01E859FF4FA5915A
:10046000B491FC01E057FF4FC591D49161110EC0CA
:100470009FB7F8948C91E22FE0958E238C9328817E
:10048000E223E8839FBFDF91CF9108958FB7F8945F
:10049000EC91E22BEC938FBFF6CF3FB7F8948091AD
:1004A000160290911702A0911802B091190226B578
:1004B000A89B05C02F3F19F00196A11DB11D3FBF9C
:1004C000BA2FA92F982F8827BC01CD01620F711D6B
:1004D000811D911D42E0660F771F881F991F4A9565
:1004E000D1F7089520911C0230911D022817390779
:1004F00071F490911A0280911B02981741F0E091DB
:100500001A02F0E0EF52FE4F808190E008958FEFE5
:100510009FEF08950895EF92FF920F931F93CF934B
:10052000DF93DC015C96ED90FC905D97E114F104A3
:1005300079F481E090E013969C938E93129790E06B
:1005400080E0DF91CF911F910F91FF90EF90089580
:100550005196ED91FC91529750968C915097982F0F
:1005600090950FB75E962C915E97122F127021FD19
:100570006095F8942081112319F1282B2083E7013D
:100580002197F1F728E0462F50E0308160FF1AC034
:10059000382B3083E7012197F1F7BA0175956795FC
:1005A000215089F7112381F08081892380830FBF37
:1005B0005C968D919C910197F1F781E090E0C1CF1D
:1005C0002923DCCF3923E5CF9081892BEFCF2091F0
:1005D0001C0230911D022817390761F480911B021B
:1005E00020911A0290E0805C9F4F821B91098F73CB
:1005F0009927089590E080E0089520911C023091A1
:100600001D0228173907B9F490911A0280911B0234
:10061000981789F0E0911A02F0E0EF52FE4F8081C6
:1006200020911A0230E02F5F3F4F2F733327209322
:100630001A0290E008958FEF9FEF089520918601B0
:10064000260F3327331F21323105ECF42091AA0104
:10065000FC0190E080E0243069F082E00895A091F0
:1006600086012191AC014A595E4FA40FB52FB11DEF
:100670002C930196861798F380918601680F6093FA
:10068000860180E0089581E008951092AA0181E03A
:100690008093AC011092AB0161E082E10E94D00135
:1006A00061E083E10E94D001E9EBF0E080818E7F80
:1006B000808380818D7F808388E48093B80085E487
:1006C0008093BC000895E091250280912402E817F0
:1006D00030F4F0E0E05CFE4F808190E008958FEF11
:1006E0009FEF089590912502809124022FEF3FEF14
:1006F000981748F4E92FF0E0E05CFE4F208130E0ED
:100700009F5F90932502C90108950F931F93CF9384
:10071000DF938C01D0E0C0E0C017D10734F48DEC3A
:1007200092E00E9472032196F7CFDF91CF911F9143
:100730000F9108958091240290912502891B990BB5
:100740000895CF93DF93CB01EA01642F0E941E032B
:10075000CE01DF91CF910895CF93DF931F92CDB754
:10076000DEB7698361E0CE0101960E941E0381E03D
:1007700090E00F90DF91CF91089590E080E0089590
:1007800060912C028DEC92E00C94AC03FC01019082
:100790000020E9F73197AF01481B590BBC0180E3FA
:1007A00092E00C94C3008F929F92AF92BF920F93EE
:1007B0001F93CF93DF93CDB7DEB7A1970FB6F89411
:1007C000DEBF0FBECDBF19A2423008F44AE08E0151
:1007D0000F5D1F4F842E912CB12CA12CA5019401EB
:1007E0000E94D00BE62FB901CA01EA30F4F4E05DB3
:1007F000D801EE938D01232B242B252B79F790E044
:1008000080E0109719F0CD010E94C603A1960FB6A3
:10081000F894DEBF0FBECDBFDF91CF911F910F9136
:10082000BF90AF909F908F900895E95CE1CFCF93F8
:10083000DF9385ED8093BC0080916201909163010C
:10084000A0916401B09165010796A11DB11D23E03F
:10085000B695A795979587952A95D1F72091BC00D5
:1008600024FD03C01092AA0136C04091620150914C
:1008700063016091640170916501452B462B472B04
:1008800069F30097A105B10541F02AE22A95F1F735
:1008900000C00197A109B109E1CF8091610191E008
:1008A000909360018823B9F0C091B800D091BA004C
:1008B0008091BC008A7B8093BC0060E082E10E9452
:1008C000D00160E083E10E94D0010E944503D093F3
:1008D000BA00C093B800DF91CF9108951F920F9294
:1008E0000FB60F9211242F933F934F935F936F9303
:1008F0007F938F939F93AF93BF93EF93FF9380E387
:1009000092E00E944101FF91EF91BF91AF919F91C1
:100910008F917F916F915F914F913F912F910F90A8
:100920000FBE0F901F9018951F920F920FB60F9247
:1009300011242F938F939F93EF93FF93E0914002A5
:10094000F09141028081E0914602F091470282FDE0
:100950001BC09081809149028F5F8F7320914A0262
:10096000821741F0E0914902F0E0E05DFD4F958F84
:1009700080934902FF91EF919F918F912F910F905A
:100980000FBE0F901F9018958081F4CF1F920F9289
:100990000FB60F9211242F933F938F939F93AF9392
:1009A000BF938091120290911302A0911402B09112
:1009B00015023091110223E0230F2D3758F50196CF
:1009C000A11DB11D20931102809312029093130276
:1009D000A0931402B0931502809116029091170211
:1009E000A0911802B09119020196A11DB11D80932A
:1009F000160290931702A0931802B0931902BF91A8
:100A0000AF919F918F913F912F910F900FBE0F90BB
:100A10001F90189526E8230F0296A11DB11DD2CF75
:100A20001F920F920FB60F9211242F933F934F9363
:100A30005F936F937F938F939F93AF93BF93EF9346
:100A4000FF93E0911C02F0911D02309749F0A685BA
:100A5000B7858585968D91FF14C09C918923A1F45B
:100A6000FF91EF91BF91AF919F918F917F916F9186
:100A70005F914F913F912F910F900FBE0F901F905C
:100A800018959C91892361F7A389B4899C918589E4
:100A9000809589238C93868997890197F1F7608DDA
:100AA000718DA685B785558538E020E0CB0101978B
:100AB000F1F7822F90E095958795282F4C9145234B
:100AC00009F02068315091F7868D81FD2095809145
:100AD0001B0290E001968F73992730911A02381704
:100AE00099F0A0911B02B0E0AF52BE4F2C938093BF
:100AF0001B02828D938D0197F1F7A389B4898C91A4
:100B00009589892B8C93ACCF868D8160868FF1CFB0
:100B10001F920F920FB60F9211242F933F934F9372
:100B20005F936F937F938F939F93AF93BF93CF9375
:100B3000DF93EF93FF938091D001C091FD02D0E04D
:100B400087FF24C010928500109284008091D0010C
:100B50008F5F8093D0018091D001082E000C990BFB
:100B60008C179D0724F48091D0018C30C4F18091C2
:100B7000840090918500049680349C4908F47AC0E2
:100B80008091840090918500049676C08091D00178
:100B9000082E000C990B8C179D07C4F6E091D0012C
:100BA0008E2FEE0F990BFC01EE0FFF1FE80FF91FC0
:100BB000E752FD4F808186FFC9CFE091D0018E2F93
:100BC000EE0F990BFC01EE0FFF1FE80FF91FE75224
:100BD000FD4F808160E08F730E94D001B7CF2091DC
:100BE000840030918500E091D0018E2FEE0F990B9B
:100BF000FC01EE0FFF1FE80FF91FE752FD4F818147
:100C00009281820F931F9093890080938800E091D6
:100C1000D0018E2FEE0F990BFC01EE0FFF1FE80F96
:100C2000F91FE752FD4F808186FF11C0E091D0018E
:100C30008E2FEE0F990BFC01EE0FFF1FE80FF91F2F
:100C4000E752FD4F808161E08F730E94D001FF91D8
:100C5000EF91DF91CF91BF91AF919F918F917F9154
:100C60006F915F914F913F912F910F900FBE0F9019
:100C70001F90189580E49CE99093890080938800E8
:100C80008FEF8093D001E3CF1F920F920FB60F9298
:100C900011242F933F934F935F936F937F938F9381
:100CA0009F93AF93BF93EF93FF938091B900887F99
:100CB000803609F44AC0F0F5883209F4A7C018F567
:100CC000803109F49BC0B8F4882309F4F9C0883056
:100CD00009F494C0FF91EF91BF91AF919F918F91D3
:100CE0007F916F915F914F913F912F910F900FBE28
:100CF0000F901F901895883109F488C0803251F701
:100D00008093A90114C0803409F49DC040F480335D
:100D1000B9F38833F9F68093A90185ECB0C080352A
:100D200009F485C0883509F496C0883499F60E9484
:100D30001704D0CF883909F48CC038F5883729F0EA
:100D400050F4883611F0803729F683E08093AA01A9
:100D50001092A80157C0883809F47BC0803919F077
:100D6000803809F0B7CF8091A801803208F071C0B7
:100D7000E091A80181E08E0F8093A8018091BB00D3
:100D8000F0E0E857FE4F80833DC0803B39F0E0F44F
:100D9000803A09F479C0883A09F09CCF84E08093C6
:100DA000AA011092870110928601E0912002F09131
:100DB000210209958091860181110FC081E0809305
:100DC00086011092660109C0803C09F4A6CF883CD8
:100DD00009F4A3CF883B09F07DCFE091870181E042
:100DE0008E0F80938701F0E0EA59FE4F8081809357
:100DF000BB00909187018091860129C08091CF012D
:100E00008093BB0085EC8093BC0064CF9091CE01B1
:100E10008091CD01981758F5E091CE0181E08E0FB9
:100E20008093CE01F0E0E355FE4F8081E9CFE09161
:100E3000CE0181E08E0F8093CE018091BB00F0E067
:100E4000E355FE4F80839091CE018091CD0198179C
:100E5000C8F285E8D8CFE091CE0181E08E0F809373
:100E6000CE018091BB00F0E0E355FE4F808380917E
:100E7000AC0181115CCF81E08093AB0184EA809367
:100E8000BC001092AA0126CF85EC8093BC00109282
:100E9000AA018091A801803230F4E091A801F0E02D
:100EA000E857FE4F10826091A80170E0E0911E02A9
:100EB000F0911F0288E891E009951092A8010ACFED
:100EC0001092A90134CF109233021092320288EEB0
:100ED00093E0A0E0B0E08093340290933502A093B9
:100EE0003602B093370226E031E03093310220938E
:100EF000300225EC30E030933D0220933C0224EC9C
:100F000030E030933F0220933E0220EC30E03093FB
:100F100041022093400221EC30E0309343022093C1
:100F2000420222EC30E0309345022093440226EC4A
:100F300030E030934702209346021092490210920B
:100F40004A0210924B0210924C021092D002109260
:100F5000CF028093D1029093D202A093D302B09398
:100F6000D40228E131E03093CE022093CD021092DA
:100F70000A031092090380930B0390930C03A09330
:100F80000D03B0930E038AE291E0909308038093DF
:100F9000070310921E0310921D031092200310925B
:100FA0001F03109222031092210310922403109227
:100FB0002303609125036E7F6D7F60932503669503
:100FC000617081E0682787E00E94D00161E087E0DE
:100FD0000E941C02E5EBF0E0E491E0931703E1EAE4
:100FE000F0E0E491F0E0EE0FFF1FE057FF4F859136
:100FF0009491909319038093180360E088E00E9415
:101000001C028091250381FD04C061E088E00E94FC
:10101000D00188E080931303E6EBF0E0E491E093E5
:101020001403E2EAF0E0E491F0E0EE0FFF1FEA576C
:10103000FF4F85919491909316038093150310921E
:10104000040310920303109206031092050380918B
:10105000FD028C3098F491E0980F9093FD028093FC
:10106000FE0290E0FC01EE0FFF1FE80FF91FE752B0
:10107000FD4F88EB9BE09283818308958FEF8093EF
:10108000FE020895CF93DF93CDB7DEB72D970FB64D
:10109000F894DEBF0FBECDBF789484B5826084BD66
:1010A00084B5816084BD85B5826085BD85B581606C
:1010B00085BD80916E00816080936E0010928100EA
:1010C00080918100826080938100809181008160A5
:1010D0008093810080918000816080938000809166
:1010E000B10084608093B1008091B00081608093F2
:1010F000B00080917A00846080937A0080917A00B9
:10110000826080937A0080917A00816080937A0077
:1011100080917A00806880937A001092C100E091FB
:101120004002F091410282E08083E0913C02F09124
:101130003D021082E0913E02F0913F0280E1808307
:1011400010924802E0914402F091450286E08083CB
:10115000E0914202F0914302808180618083E091BE
:101160004202F0914302808188608083E0914202D4
:10117000F0914302808180688083E0914202F09187
:10118000430280818F7D80838091FE028C3008F045
:1011900051C061E086E00E941C028091FE02282F6F
:1011A00030E0F901EE0FFF1FE20FF31FE752FD4F92
:1011B0009081907C966090831092FF0210920003C1
:1011C0002CE0622F0E94010C829FB001112430E0BC
:1011D00020E0AB01420F531FFA01EE0FFF1FE40F97
:1011E000F51FE752FD4F908196FD16C02F5F3F4FD0
:1011F0002C30310571F781110FC01092800082E010
:10120000809381001092850010928400B19A8091A1
:101210006F00826080936F00E091FE028E2F90E05D
:10122000FC01EE0FFF1FE80FF91FE752FD4F808111
:101230008064808361E08DE00E941C0287E093E07F
:1012400090930203809301031092220310922103D2
:101250001092200310921F0310921E0310921D0380
:101260008FE190E0909324038093230390911303E4
:10127000963108F047C021E030E030931E03209300
:101280001D032DE130E03093200320931F032DE058
:1012900030E030932203209321032091680084E002
:1012A000983048F031E09E3008F430E081E001C031
:1012B000880F3A95EAF7822B809368002DE630E09C
:1012C000983050F02BE630E09E3030F02CE630E0E5
:1012D000963110F030E020E030931B0320931A0386
:1012E000292F30E0983008F0E9C181E001C0880F73
:1012F0009A95EAF780931C0380912303909124032D
:101300000197F1F78091210390912203892B49F1F4
:10131000E0911C02F0911D0223E0E730F20709F191
:10132000309739F0A389B4899C9185898095892368
:101330008C93809125038E7F8093250310921B024E
:1013400010921A0287E093E090931D0280931C0292
:10135000E0911A03F0911B03808190911C03892B6B
:101360008083109225021092240210922302109280
:1013700022020E9445038DE890E090932102809321
:10138000200289E990E090931F0280931E0282E080
:101390008093BA0085E893E0909327028093260219
:1013A00080EC93E09093290280932802AE01475F7E
:1013B0005F4F5D874C8728E8222E312C38E5832E3D
:1013C00032E0932EAA24A394B12CCE0101969B87E0
:1013D0008A8789E0AA85BB851D928A95E9F7809165
:1013E000010390910203DC01ED91FC910084F185F1
:1013F000E02D0995892B09F454C180910103909146
:101400000203DC01ED91FC910284F385E02D099546
:10141000893529F78091010390910203DC01ED9158
:10142000FC910284F385E02D09958935C1F68E0182
:101430000D5F1F4F82EBC82ED12CE12CF12C809137
:10144000010390910203DC01ED91FC910284F3858C
:10145000E02D0995F80181938F01C80ED11CE11C84
:10146000F11C4C855D854E175F0749F7809101039C
:1014700090910203DC01ED91FC910284F385E02D53
:101480000995DD24EE24FF2490E0B0E0A0E0C8162A
:10149000D906EA06FB0609F0A2CF8C8190E0982FCE
:1014A00088272B81820F911D90930403809303035F
:1014B0002E8130E0322F22274D81240F311D3093B1
:1014C0000603209305038C3091050CF004C1909322
:1014D0002F0280932E02B0922D02A0922C0288E35C
:1014E00091E00E94C603C0902A02D0902B020D2CDE
:1014F000000CEE08FF084AE0C701B601F7FE0DC078
:101500006DE280E392E00E94630166277727CB01BA
:101510006C197D098E099F094AE00E94D3038AE372
:1015200091E00E94C60360912E0270912F0290E01C
:1015300080E04AE00E94D3038CE391E00E94C6035E
:1015400080912A0290912B0220910001309101019B
:10155000820F931F8B3591050CF4C2C0E9E5F0E0D2
:10156000F0932B02E0932A024DEF5FEF50930101BD
:1015700040930001A0912A02B0912B02A03292E088
:10158000B907C4F58091FF026101C81AD10887FD2F
:10159000D394CC0CDD1CCC0CDD1C0D2C000CEE0807
:1015A000FF08809100039401281B310987FD3395C2
:1015B000220F331F220F331F032E000C440B550B39
:1015C0002C193D094E095F09A53BB10514F0A4EBA8
:1015D000B0E0B7FF02C0B0E0A0E00E94C80B24EB6F
:1015E00030E040E050E00E949E0BC20ED31EE41E8D
:1015F000F51ED6012091FE022C3078F58091FF0275
:10160000F101E81BF10987FDF395CF01880F991FC0
:10161000880F991FA817B90784F080910003A401CF
:10162000481B510987FD5395CA01880F991F880FE0
:10163000991FA817B9070CF4CD010297880F991FBD
:101640004FB7F89430E0F901EE0FFF1FE20FF31FE0
:10165000E752FD4F928381834FBF0E944D022B01C1
:101660003C018CE3C82ED12CE12CF12C0E944D02C0
:101670006419750986099709683E734081059105CB
:10168000A8F351E0C51AD108E108F10888EE480E28
:1016900083E0581E611C711CC114D104E104F104E3
:1016A00029F7E0E0F0E0EF2B09F493CE0E942D0142
:1016B000882309F48ACE0E94000084CE9E3040F434
:1016C0002850310981E001C0880F2A95EAF712CE2F
:1016D0002E503109F7CF10922D0210922C02FFCE1E
:1016E00097FD05C090932B0280932A0243CFB092BE
:1016F0002B02A0922A0283E090E090930101809354
:10170000000138CF8AE291E09093080380930703A9
:1017100080911C0290911D028750934071F4E091DA
:101720001A03F0911B03908180911C0380958923FB
:10173000808310921D0210921C020895052E97FBC3
:101740001EF400940E94B50B57FD07D00E94D00BE9
:1017500007FC03D04EF40C94B50B50954095309592
:1017600021953F4F4F4F5F4F08959095809570950D
:1017700061957F4F8F4F9F4F08950E94F20BA59F59
:10178000900DB49F900DA49F800D911D112408957C
:10179000B7FF0C94BD0B0E94BD0B821B930B0895E9
:1017A000A1E21A2EAA1BBB1BFD010DC0AA1FBB1F65
:1017B000EE1FFF1FA217B307E407F50720F0A21BD7
:1017C000B30BE40BF50B661F771F881F991F1A9444
:1017D00069F760957095809590959B01AC01BD016E
:1017E000CF010895A29FB001B39FC001A39F700DC8
:1017F000811D1124911DB29F700D811D1124911D19
:101800000895991B79E004C0991F961708F0961B5C
:10181000881F7A95C9F780950895EE0FFF1F0590F0
:10182000F491E02D099410E0C2E6D0E004C0FE017E
:101830000E940D0C2196C336D107C9F7F894FFCF4B
:101840000100000000006301C300F000B0012101AD
:10185000FF00130100000000AC03A103BD038A02D6
:101860009A0372036303000000008B02C300BD03F0
:101870008A02E702FD027202720064000D0A000093
:00000001FF
