:100000000C9463000C948B000C948B000C94800572
:100010000C9480050C9480050C948B000C948B0040
:100020000C948B000C948B000C948B000C94F805B2
:100030000C948B000C948B000C948B000C948B0014
:100040000C9436050C948B000C9404050C94DE047F
:100050000C948B000C948B000C948B000C948B00F4
:100060000C94B4060C948B000000000024002700C0
:100070002A0000000008000201000003040700003D
:1000800000000000000000000000230026002900FE
:1000900000000000250028002B00040404040404D0
:1000A0000404020202020202030303030303010227
:1000B00004081020408001020408102001020408F6
:1000C0001020D307970D11241FBECFEFD8E0DEBF5D
:1000D000CDBF11E0A0E0B1E0E2E9FCE102C0059093
:1000E0000D92A63DB107D9F724E0A6EDB1E001C01D
:1000F0001D92A132B207E1F710E0C2E6D0E004C0E1
:100100002197FE010E94360EC136D107C9F70E9421
:10011000B2080C943C0E0C940000E091BE02F091E9
:10012000BF02309729F01092B9021092B8020994D8
:100130000895CF93DF93AC01E091BC02F091BD0232
:100140003097F1F09091BB028091BA029817C0F0FD
:1001500090E0292F30E02617370754F4D901AA522E
:10016000BE4F240F351FE90128812C939F5FF1CFEB
:100170001092BB026093BA02CB01DF91CF91099438
:10018000DF91CF910895AF92BF92CF92DF92EF921D
:10019000FF920F931F93CF93DF936C017B018B0131
:1001A000040F151FEB015E01AE18BF08C017D10781
:1001B00059F06991D601ED91FC910190F081E02D0B
:1001C000C6010995892B79F7C501DF91CF911F9160
:1001D0000F91FF90EF90DF90CF90BF90AF90089578
:1001E000FC01538D448D252F30E0842F90E0821B3D
:1001F000930B541710F0CF96089501970895FC01C2
:10020000918D828D981761F0A28DAE0FBF2FB11D19
:100210005D968C91928D9F5F9F73928F90E0089571
:100220008FEF9FEF0895FC01918D828D981731F02B
:10023000828DE80FF11D858D90E008958FEF9FEF7F
:100240000895FC01918D228D892F90E0805C9F4F55
:10025000821B91098F73992708958BE293E00E9486
:10026000210121E0892B09F420E0822F089580E00C
:1002700090E0892B29F00E942D0181110C9400003F
:100280000895FC01A48DA80FB92FB11DA35ABF4F2B
:100290002C91848D90E001968F739927848FA68985
:1002A000B7892C93A089B1898C91837080648C93D9
:1002B000938D848D981306C00288F389E02D808188
:1002C0008F7D80830895EF92FF920F931F93CF93BA
:1002D000DF93EC0181E0888F9B8D8C8D98131AC081
:1002E000E889F989808185FF15C09FB7F894EE8968
:1002F000FF896083E889F9898081837080648083C5
:100300009FBF81E090E0DF91CF911F910F91FF900F
:10031000EF900895F62E0B8D10E00F5F1F4F0F73B7
:100320001127E02E8C8D8E110CC00FB607FCFACF72
:10033000E889F989808185FFF5CFCE010E944101CE
:10034000F1CFEB8DEC0FFD2FF11DE35AFF4FF08243
:100350009FB7F8940B8FEA89FB8980818062CFCFA9
:10036000CF93DF93EC01888D8823B9F0AA89BB89EC
:10037000E889F9898C9185FD03C0808186FD0DC0D7
:100380000FB607FCF7CF8C9185FFF2CF808185FFF8
:10039000EDCFCE010E944101E9CFDF91CF910895C9
:1003A00090E0FC01EE58FF4F2491FC01E255FF4F15
:1003B0003491FC01E656FF4FE491EE23C9F022236D
:1003C00039F0233001F1A8F4213019F1223029F15C
:1003D000F0E0EE0FFF1FE057FF4FA591B4918FB7EC
:1003E000F894EC91611126C030953E233C938FBF69
:1003F00008952730A9F02830C9F0243049F78091BA
:1004000080008F7D03C0809180008F778093800073
:10041000DFCF84B58F7784BDDBCF84B58F7DFBCFF5
:100420008091B0008F778093B000D2CF8091B000E0
:100430008F7DF9CF3E2BDACFCF93DF9390E0FC0195
:10044000E255FF4F249186569F4FFC0184918823EB
:10045000D1F090E0880F991FFC01E859FF4FA5915A
:10046000B491FC01E057FF4FC591D49161110EC0CA
:100470009FB7F8948C91E22FE0958E238C9328817E
:10048000E223E8839FBFDF91CF9108958FB7F8945F
:10049000EC91E22BEC938FBFF6CF3FB7F8948091AD
:1004A000AC029091AD02A091AE02B091AF0226B520
:1004B000A89B05C02F3F19F00196A11DB11D3FBF9C
:1004C000BA2FA92F982F8827BC01CD01620F711D6B
:1004D000811D911D42E0660F771F881F991F4A9565
:1004E000D1F708958F929F92AF92BF92CF92DF92F1
:1004F000EF92FF924B015C010E944D026B017C0167
:100500000E944D026C197D098E099F09683E734057
:1005100081059105A8F321E0821A9108A108B1088C
:1005200088EEC80E83E0D81EE11CF11C81149104F2
:10053000A104B10429F7FF90EF90DF90CF90BF9016
:10054000AF909F908F9008952091B2023091B302A6
:100550002817390771F49091B0028091B102981771
:1005600041F0E091B002F0E0E959FD4F808190E068
:1005700008958FEF9FEF08950895EF92FF920F93E4
:100580001F93CF93DF93DC015C96ED90FC905D9719
:10059000E114F10479F481E090E013969C938E933A
:1005A000129790E080E0DF91CF911F910F91FF9023
:1005B000EF9008955196ED91FC91529750968C9141
:1005C0005097982F90950FB75E962C915E97122FAB
:1005D000127021FD6095F8942081112319F1282BC8
:1005E0002083E7012197F1F728E0462F50E0308182
:1005F00060FF1AC0382B3083E7012197F1F7BA0169
:1006000075956795215089F7112381F080818923A1
:1006100080830FBF5C968D919C910197F1F781E0EB
:1006200090E0C1CF2923DCCF3923E5CF9081892BFE
:10063000EFCF2091B2023091B3022817390761F44D
:100640008091B1022091B00290E0805C9F4F821BAC
:1006500091098F739927089590E080E00895209183
:10066000B2023091B30228173907B9F49091B00261
:100670008091B102981789F0E091B002F0E0E95959
:10068000FD4F80812091B00230E02F5F3F4F2F73EC
:1006900033272093B00290E008958FEF9FEF0895E5
:1006A00020911C02260F3327331F21323105ECF431
:1006B00020914002FC0190E080E0243069F082E06B
:1006C0000895A0911C022191AC0144505E4FA40FEB
:1006D000B52FB11D2C930196861798F380911C02BB
:1006E000680F60931C0280E0089581E008951092E5
:1006F000400281E0809342021092410261E082E177
:100700000E94D00161E083E10E94D001E9EBF0E0BA
:1007100080818E7F808380818D7F808388E4809339
:10072000B80085E48093BC000895E091BB028091FD
:10073000BA02E81730F4F0E0EA52FE4F808190E010
:1007400008958FEF9FEF08959091BB028091BA02B8
:100750002FEF3FEF981748F4E92FF0E0EA52FE4FF1
:10076000208130E09F5F9093BB02C90108950F93F1
:100770001F93CF93DF938C01D0E0C0E0C017D10767
:1007800034F488EC93E00E94A4032196F7CFDF9124
:10079000CF911F910F9108958091BA029091BB0261
:1007A000891B990B0895CF93DF93CB01EA01642F46
:1007B0000E945003CE01DF91CF910895CF93DF9334
:1007C0001F92CDB7DEB7698361E0CE0101960E942A
:1007D000500381E090E00F90DF91CF91089590E079
:1007E00080E008956091C00288EC93E00C94DE03F1
:1007F000FC0101900020E9F73197AF01481B590B2C
:10080000BC018BE293E00C94C3008F929F92AF9255
:10081000BF920F931F93CF93DF93CDB7DEB7A1970E
:100820000FB6F894DEBF0FBECDBF19A2423008F458
:100830004AE08E010F5D1F4F842E912CB12CA12C0C
:10084000A50194010E94E50DE62FB901CA01EA3025
:10085000F4F4E05DD801EE938D01232B242B252B9E
:1008600079F790E080E0109719F0CD010E94F8032D
:10087000A1960FB6F894DEBF0FBECDBFDF91CF912A
:100880001F910F91BF90AF909F908F900895E95C5A
:10089000E1CFCF92DF92EF92FF92CF93DF936C0183
:1008A000990FEE08FF08F7FE19C06DE28BE293E0A6
:1008B0000E946301EC0166277727CB016C197D0943
:1008C0008E099F094AE00E9405048C0F9D1FDF914D
:1008D000CF91FF90EF90DF90CF9008954AE0C7014D
:1008E000B601DF91CF91FF90EF90DF90CF900C9405
:1008F0000504CF93DF930E94F803EC0188E391E0B5
:100900000E94F8038C0F9D1FDF91CF910895CF9324
:10091000DF9385ED8093BC008091F8019091F901FF
:10092000A091FA01B091FB010796A11DB11D23E032
:10093000B695A795979587952A95D1F72091BC00F4
:1009400024FD03C01092400236C04091F80150913E
:10095000F9016091FA017091FB01452B462B472B61
:1009600069F30097A105B10541F02AE22A95F1F754
:1009700000C00197A109B109E1CF8091F70191E091
:100980009093F6018823B9F0C091B800D091BA00D5
:100990008091BC008A7B8093BC0060E082E10E9471
:1009A000D00160E083E10E94D0010E947703D093E0
:1009B000BA00C093B800DF91CF9108951F920F92B3
:1009C0000FB60F9211242F933F934F935F936F9322
:1009D0007F938F939F93AF93BF93EF93FF938BE29C
:1009E00093E00E944101FF91EF91BF91AF919F91E0
:1009F0008F917F916F915F914F913F912F910F90C8
:100A00000FBE0F901F9018951F920F920FB60F9266
:100A100011242F938F939F93EF93FF93E0913B03C8
:100A2000F0913C038081E0914103F091420382FD0B
:100A30001BC09081809144038F5F8F732091450389
:100A4000821741F0E0914403F0E0E55DFC4F958FA3
:100A500080934403FF91EF919F918F912F910F907D
:100A60000FBE0F901F9018958081F4CF1F920F92A8
:100A70000FB60F9211242F933F938F939F93AF93B1
:100A8000BF938091A8029091A902A091AA02B0916F
:100A9000AB023091A70223E0230F2D3758F50196C2
:100AA000A11DB11D2093A7028093A8029093A902D3
:100AB000A093AA02B093AB028091AC029091AD02D8
:100AC000A091AE02B091AF020196A11DB11D80931D
:100AD000AC029093AD02A093AE02B093AF02BF916F
:100AE000AF919F918F913F912F910F900FBE0F90DB
:100AF0001F90189526E8230F0296A11DB11DD2CF95
:100B00001F920F920FB60F9211242F933F934F9382
:100B10005F936F937F938F939F93AF93BF93EF9365
:100B2000FF93E091B202F091B302309749F0A685AD
:100B3000B7858585968D91FF14C09C918923A1F47A
:100B4000FF91EF91BF91AF919F918F917F916F91A5
:100B50005F914F913F912F910F900FBE0F901F907B
:100B600018959C91892361F7A389B4899C91858903
:100B7000809589238C93868997890197F1F7608DF9
:100B8000718DA685B785558538E020E0CB010197AA
:100B9000F1F7822F90E095958795282F4C9145236A
:100BA00009F02068315091F7868D81FD2095809164
:100BB000B10290E001968F7399273091B0023817F7
:100BC00099F0A091B102B0E0A959BD4F2C93809348
:100BD000B102828D938D0197F1F7A389B4898C912D
:100BE0009589892B8C93ACCF868D8160868FF1CFD0
:100BF0001F920F920FB60F9211242F933F934F9392
:100C00005F936F937F938F939F93AF93BF93CF9394
:100C1000DF93EF93FF9380916602C091F803D0E0D9
:100C200087FF24C010928500109284008091660294
:100C30008F5F8093660280916602082E000C990BEC
:100C40008C179D0724F4809166028C30C4F180914A
:100C5000840090918500049680349C4908F47AC001
:100C60008091840090918500049676C08091660200
:100C7000082E000C990B8C179D07C4F6E0916602B4
:100C80008E2FEE0F990BFC01EE0FFF1FE80FF91FDF
:100C9000EC52FC4F808186FFC9CFE09166028E2F17
:100CA000EE0F990BFC01EE0FFF1FE80FF91FEC523E
:100CB000FC4F808160E08F730E94D001B7CF2091FC
:100CC000840030918500E09166028E2FEE0F990B23
:100CD000FC01EE0FFF1FE80FF91FEC52FC4F818162
:100CE0009281820F931F9093890080938800E091F6
:100CF00066028E2FEE0F990BFC01EE0FFF1FE80F1F
:100D0000F91FEC52FC4F808186FF11C0E091660212
:100D10008E2FEE0F990BFC01EE0FFF1FE80FF91F4E
:100D2000EC52FC4F808161E08F730E94D001FF91F3
:100D3000EF91DF91CF91BF91AF919F918F917F9173
:100D40006F915F914F913F912F910F900FBE0F9038
:100D50001F90189580E49CE9909389008093880007
:100D60008FEF80936602E3CF1F920F920FB60F9220
:100D700011242F933F934F935F936F937F938F93A0
:100D80009F93AF93BF93EF93FF938091B900887FB8
:100D9000803609F44AC0F0F5883209F4A7C018F586
:100DA000803109F49BC0B8F4882309F4F9C0883075
:100DB00009F494C0FF91EF91BF91AF919F918F91F2
:100DC0007F916F915F914F913F912F910F900FBE47
:100DD0000F901F901895883109F488C0803251F720
:100DE00080933F0214C0803409F49DC040F48033E6
:100DF000B9F38833F9F680933F0285ECB0C08035B3
:100E000009F485C0883509F496C0883499F60E94A3
:100E10008704D0CF883909F48CC038F5883729F099
:100E200050F4883611F0803729F683E08093400231
:100E300010923E0257C0883809F47BC0803919F0FF
:100E4000803809F0B7CF80913E02803208F071C03F
:100E5000E0913E0281E08E0F80933E028091BB00C4
:100E6000F0E0E25EFD4F80833DC0803B39F0E0F46E
:100E7000803A09F479C0883A09F09CCF84E08093E5
:100E8000400210921D0210921C02E091B602F091F5
:100E9000B702099580911C0281110FC081E08093F7
:100EA0001C021092FC0109C0803C09F4A6CF883CCA
:100EB00009F4A3CF883B09F07DCFE0911D0281E0CA
:100EC0008E0F80931D02F0E0E450FE4F80818093EE
:100ED000BB0090911D0280911C0229C08091650287
:100EE0008093BB0085EC8093BC0064CF909164023A
:100EF00080916302981758F5E091640281E08E0FAB
:100F000080936402F0E0ED5BFD4F8081E9CFE091DA
:100F1000640281E08E0F809364028091BB00F0E058
:100F2000ED5BFD4F8083909164028091630298177E
:100F3000C8F285E8D8CFE091640281E08E0F8093FB
:100F400064028091BB00F0E0ED5BFD4F80838091F7
:100F5000420281115CCF81E08093410284EA809358
:100F6000BC001092400226CF85EC8093BC0010920A
:100F7000400280913E02803230F4E0913E02F0E087
:100F8000E25EFD4F108260913E0270E0E091B4029B
:100F9000F091B5028EE192E0099510923E020ACFDF
:100FA00010923F0234CF10922E0310922D0388EE40
:100FB00093E0A0E0B0E080932F0390933003A093E0
:100FC0003103B093320326E031E030932C032093B9
:100FD0002B0325EC30E0309338032093370324ECC7
:100FE00030E030933A032093390320EC30E0309323
:100FF0003C0320933B0321EC30E030933E032093ED
:101000003D0322EC30E03093400320933F0326EC75
:1010100030E0309342032093410310924403109236
:10102000450310924603109247031092CB0310928F
:10103000CA038093CC039093CD03A093CE03B093C7
:10104000CF0328E131E03093C9032093C803109205
:101050000504109204048093060490930704A0935F
:101060000804B09309048AE291E09093030480930A
:101070000204109219041092180410921B0410928A
:101080001A0410921D0410921C0410921F04109256
:101090001E04609120046E7F6D7F6093200466952E
:1010A000617081E0682787E00E94D00161E087E0FD
:1010B0000E941C02E5EBF0E0E491E0931204E1EA07
:1010C000F0E0E491F0E0EE0FFF1FE057FF4F859155
:1010D0009491909314048093130460E088E00E943C
:1010E0001C028091200481FD04C061E088E00E9420
:1010F000D00188E080930E04E6EBF0E0E491E09309
:101100000F04E2EAF0E0E491F0E0EE0FFF1FEA578F
:10111000FF4F8591949190931104809310048091D6
:10112000F8038C30D8F491E0980F9093F8038093F3
:10113000FF0390E0FC01EE0FFF1FE80FF91FEC52D8
:10114000FC4F88EB9BE0928381831092FC0310920A
:10115000FB031092FE031092FD0308958FEF80931E
:10116000FF03F3CFCF93DF93CDB7DEB72D970FB645
:10117000F894DEBF0FBECDBF789484B5826084BD85
:1011800084B5816084BD85B5826085BD85B581608B
:1011900085BD80916E00816080936E001092810009
:1011A00080918100826080938100809181008160C4
:1011B0008093810080918000816080938000809185
:1011C000B10084608093B1008091B0008160809311
:1011D000B00080917A00846080937A0080917A00D8
:1011E000826080937A0080917A00816080937A0097
:1011F00080917A00806880937A001092C100E0911B
:101200003B03F0913C0382E08083E0913703F0914F
:1012100038031082E0913903F0913A0380E1808332
:1012200010924303E0913F03F091400386E08083F6
:10123000E0913D03F0913E03808180618083E091E5
:101240003D03F0913E03808188608083E0913D03FF
:10125000F0913E03808180688083E0913D03F091AE
:101260003E0380818F7D808361E08DE00E941C02BF
:101270008091FF038C3008F051C061E086E00E944D
:101280001C028091FF03282F30E0F901EE0FFF1FB1
:10129000E20FF31FEC52FC4F9081907C966090839C
:1012A00010920004109201042CE0622F0E94160E8E
:1012B000829FB001112430E020E0AB01420F531FA8
:1012C000FA01EE0FFF1FE40FF51FEC52FC4F908167
:1012D00096FD16C02F5F3F4F2C30310571F78111FD
:1012E0000FC01092800082E08093810010928500F0
:1012F00010928400B19A80916F00826080936F0099
:10130000E091FF038E2F90E0FC01EE0FFF1FE80F2E
:10131000F91FEC52FC4F80818064808382E094E06E
:101320009093FA038093F90310921D0410921C0409
:1013300010921B0410921A041092190410921804AF
:101340008FE190E090931F0480931E0490910E040F
:10135000963108F047C021E030E030931904209323
:1013600018042DE130E030931B0420931A042DE083
:1013700030E030931D0420931C042091680084E029
:10138000983048F031E09E3008F430E081E001C050
:10139000880F3A95EAF7822B809368002DE630E0BB
:1013A000983050F02BE630E09E3030F02CE630E004
:1013B000963110F030E020E03093160420931504AD
:1013C000292F30E0983008F01DC281E001C0880F5D
:1013D0009A95EAF78093170480911E0490911F0458
:1013E0000197F1F780911C0490911D04892B49F11C
:1013F000E091B202F091B30224E0E230F20709F189
:10140000309739F0A389B4899C9185898095892387
:101410008C93809120048E7F809320041092B102DF
:101420001092B00282E094E09093B3028093B202F3
:10143000E0911504F0911604808190911704892B96
:1014400080831092BB021092BA021092B9021092DD
:10145000B8020E9477038DE890E09093B7028093E2
:10146000B60289E990E09093B5028093B40284E0DB
:101470008093BA0087EB93E09093BD028093BC0207
:1014800082EF93E09093BF028093BE02AE01475F6C
:101490005F4F5D874C8728E8222E312C38E5832E5C
:1014A00032E0932E44EB442E512C612C712CCE0152
:1014B00001969B878A8797E2A92E93E0B92E89E04F
:1014C000AA85BB851D928A95E9F78091F9039091D1
:1014D000FA03DC01ED91FC910084F185E02D099582
:1014E000892B09F47CC18091F9039091FA03DC0106
:1014F000ED91FC910284F385E02D0995893529F75A
:101500008091F9039091FA03DC01ED91FC91028442
:10151000F385E02D09958935C1F68E010D5F1F4FCA
:1015200082EBC82ED12CE12CF12C8091F903909103
:10153000FA03DC01ED91FC910284F385E02D09951D
:10154000F80181938F01C80ED11CE11CF11C2C8580
:101550003D852E173F0749F78091F9039091FA03D3
:10156000DC01ED91FC910284F385E02D0995DD24E9
:10157000EE24FF2490E0B0E0A0E0C816D906EA0609
:10158000FB0609F0A2CF8C8190E0982F88272B8151
:10159000820F911D9093FC038093FB032E8130E01A
:1015A000322F22274D81240F311D3093FE032093CB
:1015B000FD0390932A038093290366E070E00E9464
:1015C000220E8B01809100019091010197FF27C1AC
:1015D0008BE391E00E94F803809127039091280308
:1015E00005960E9449048DE391E00E94F803609102
:1015F000290370912A0390E080E04AE00E940504EC
:1016000088E391E00E94F8038091270390912803DA
:101610000230110509F493C108F00AC10115110542
:1016200009F419C10130110509F454C18A35910535
:1016300019F0892B09F045C08FE391E00E94F8036F
:101640008091F40281112EC286E791E00E94790414
:10165000E5EFF2E0A2ECB2E08081918111969C93DB
:101660008E938281938113969C938E93129784819B
:10167000958115969C938E931497868197811796E2
:101680009C938E9316978085918519969C938E9343
:1016900018973A961A96AE16BF06F1F681E0809337
:1016A000F402E5EFF2E011821082138212821582B9
:1016B000148217821682118610863A96AE16BF06DD
:1016C00091F7809127039091280320910001309198
:1016D0000101820F931F90932803809327038B357A
:1016E00091050CF407C22EEF3FEF309301012093D8
:1016F000000104979093280380932703A091270368
:10170000B0912803A03252E0B507B4F580910004EF
:101710006101C81AD10887FDD394CC0CDD1CCC0C18
:10172000DD1C0D2C000CEE08FF08809101049401D3
:10173000281B310987FD3395220F331F220F331FDA
:10174000032E000C440B550B2C193D094E095F0963
:10175000A53BB10514F0A4EBB0E0B7FF02C0B0E0C8
:10176000A0E00E94DD0DA30192010E94B30DC20E04
:10177000D31EE41EF51ED6012091FF032C3078F510
:1017800080910004F101E81BF10987FDF395CF0179
:10179000880F991F880F991FA817B90784F08091A7
:1017A0000104A401481B510987FD5395CA01880F04
:1017B000991F880F991FA817B9070CF4CD0102973C
:1017C000880F991F4FB7F89430E0F901EE0FFF1F13
:1017D000E20FF31FEC52FC4F928381834FBF64E111
:1017E00070E080E090E00E94720280E090E0892B3F
:1017F00009F465CE0E942D01882309F458CE0E9479
:10180000000055CE9E3040F42850310981E001C0DF
:10181000880F2A95EAF7DECD2E503109F7CF8BE3FA
:1018200091E00E94F8038091270390912803D9CE7C
:101830000330110509F4C2C00430110509F0F6CED9
:10184000823191050CF0F9C021E030E030931E03A5
:1018500020931D03EBCE823191053CF421E030E072
:101860003093260320932503E1CE9C0122513109B8
:101870002231310538F421E030E030931C0320930D
:101880001B03D4CE9C01245231092231310538F496
:1018900021E030E03093120320931103C7CE9C0166
:1018A000265331092231310538F421E030E03093FC
:1018B000080320930703BACE9C0128543109233131
:1018C000310508F0B3CE21E030E03093FE022093E2
:1018D000FD02ACCE823191052CF4109324030093C9
:1018E0002303A4CE9C01225131092231310528F471
:1018F00010931A030093190399CE9C0124523109C5
:101900002231310528F41093100300930F038ECE7B
:101910009C01265331092231310528F41093060326
:101920000093050383CE9C012854310923313105EE
:1019300008F07CCE1093FC020093FB0277CE82313C
:1019400091053CF421E030E0309322032093210301
:101950006DCE9C01225131092231310538F421E04C
:1019600030E0309318032093170360CE9C0124527B
:1019700031092231310538F421E030E030930E0393
:1019800020930D0353CE9C0126533109223131059A
:1019900038F421E030E0309304032093030346CE73
:1019A0009C01285431092331310508F03FCE21E054
:1019B00030E03093FA022093F90238CE823191055B
:1019C0003CF421E030E03093200320931F032ECE1F
:1019D0009C01225131092231310538F421E030E0F7
:1019E000309316032093150321CE9C012452310914
:1019F0002231310538F421E030E030930C0320939C
:101A00000B0314CE9C01265331092231310538F4E1
:101A100021E030E0309302032093010307CE9C01C4
:101A2000285431092331310508F000CE21E030E09F
:101A30003093F8022093F702F9CD9C01225131092D
:101A40002231310538F421E030E030931403209343
:101A50001303ECCD9C01245231092231310538F4B5
:101A600021E030E030930A0320930903DFCD9C018D
:101A7000265331092231310538F421E030E030932A
:101A800000032093FF02D2CD9C0128543109233159
:101A9000310508F0CBCD21E030E03093F602209301
:101AA000F502C4CD82E991E00E94790445EF52E04D
:101AB00082EC92E0FA0130E020E001911191BC014A
:101AC000620F731FDB016D917C9106171707E1F41C
:101AD0002E5F3F4F2A30310581F7465F5F4F0A96F0
:101AE000E4EFF2E0E817F90729F71092C10210922B
:101AF000C002D7CD97FF02CE42E050E050930101E3
:101B0000409300010496F6CD81EB91E00E947904A8
:101B100081E090E09093C1028093C00268EE73E090
:101B200080E090E00E9472021092F402BACD8AE244
:101B300091E090930304809302048091B20290910B
:101B4000B3028250944071F4E0911504F0911604B0
:101B50009081809117048095892380831092B3022D
:101B60001092B2020895052E97FB1EF400940E9475
:101B7000CA0D57FD07D00E94E50D07FC03D04EF4B7
:101B80000C94CA0D50954095309521953F4F4F4F7D
:101B90005F4F089590958095709561957F4F8F4F19
:101BA0009F4F08950E94070EA59F900DB49F900D22
:101BB000A49F800D911D11240895B7FF0C94D20DA0
:101BC0000E94D20D821B930B0895A1E21A2EAA1B2C
:101BD000BB1BFD010DC0AA1FBB1FEE1FFF1FA217DD
:101BE000B307E407F50720F0A21BB30BE40BF50BDA
:101BF000661F771F881F991F1A9469F76095709563
:101C0000809590959B01AC01BD01CF010895A29FE5
:101C1000B001B39FC001A39F700D811D1124911DC0
:101C2000B29F700D811D1124911D0895991B79E0BB
:101C300004C0991F961708F0961B881F7A95C9F75C
:101C400080950895AA1BBB1B51E107C0AA1FBB1FAB
:101C5000A617B70710F0A61BB70B881F991F5A9538
:101C6000A9F780959095BC01CD010895EE0FFF1F57
:101C70000590F491E02D099410E0C2E6D0E004C094
:101C8000FE010E94360E2196C336D107C9F7F8949B
:021C9000FFCF84
:101C92000200000000006301C300F000B001210156
:101CA200FF00130100000000DE03D303EF03BC02B8
:101CB200CC03A403950300000000BD02C300EF03A0
:101CC200BC0219032F03A4020D0A00720064006A09
:101CD200616E67686E617373737373737373737317
:101CE20073737373737373737373737373737373C2
:101CF20073737373737373737373737373737373B2
:101D0200737373730A006669727374666C61675FDA
:101D12006A616E6768616E737373737373737373DF
:101D22007300636F6D7061726561727261795F6A6F
:101D3200616E6768616E73737373737373737373B6
:101D420000636F6D7061726561727261795F666165
:101D52006C73655F6A616E6768616E7373737373C8
:061D62007373737373003C
:00000001FF
