:020000040800F2
:100000000050002075300008BD300008BD300008E9
:10001000BD300008BD300008BD3000080000000001
:10002000000000000000000000000000BD300008DB
:10003000BD30000800000000BD3000089B23000810
:10004000BD300008BD300008BD300008BD300008DC
:10005000BD300008BD300008112F0008172F000820
:100060001D2F0008232F0008292F0008BD3000088D
:10007000BD300008BD300008BD300008BD300008AC
:10008000BD300008BD300008BD300008BD3000089C
:10009000BD300008BD300008BD3000082F2F00081B
:1000A000BD3000085D110008BD3000087111000866
:1000B00075110008891100089D110008BD30000865
:1000C000BD300008BD300008BD300008BD3000085C
:1000D000BD300008392E0008512E00086D2E000892
:1000E000452F0008BD300008BD30000800000000AA
:1000F0000000000000000000000000000000000000
:0C01000000000000000000005FF808F1A3
:10010C00034613F8012B002AFBD1181A013870474B
:10011C0010B5054C237833B9044B13B10448AFF335
:10012C0000800123237010BD90000020000000000F
:10013C00C43A000808B5034B1BB103490348AFF39D
:10014C00008008BD0000000094000020C43A0008A4
:10015C0010B5124C062220464FF4165103F0BCF990
:10016C0020460F4C0F4903F043FA204600F00EFFD7
:10017C002046082100F03FFD20460B4900F005FE0B
:10018C0020460122022100F06BFE204600F053FEB7
:10019C002046BDE8104000F069BD00BFE002002021
:1001AC00B0000020DC3A00083F3B00080B4B0C4829
:1001BC001A789200D2B21A700A4B19780901C9B296
:1001CC0019700A430849037809789B01DBB20A438A
:1001DC0003701343054A1370704700BFAE00002034
:1001EC00DD000020DC000020D4000020D600002020
:1001FC0010B5344C3449204603F0E0F9334B0A2255
:10020C001978204603F04AFA2046314903F0D6F912
:10021C00304B0A221978204603F040FA20462E492A
:10022C0003F0CCF92D4B0A221978204603F036FA4C
:10023C0020462B4903F0C2F92A4B0A221978204692
:10024C0003F02CFA2046284903F0B8F9274B0A2270
:10025C001978204603F022FA2046254903F0AEF91E
:10026C00244B0A221978204603F018FA204622491A
:10027C0003F0A4F9214B0A221978204603F00EFA58
:10028C0020461F4903F09AF91E4B0A221978204682
:10029C0003F0EFF920461C4903F090F91B4B0A229E
:1002AC001968204603F004FA1949204603F086F930
:1002BC0002F09AFF0A2201462046BDE8104003F0E6
:1002CC00F7B900BFE0020020E53A0008D600002094
:1002DC00EB3A0008D4000020F13A0008AE000020F0
:1002EC00F73A0008DC000020FD3A0008DD00002091
:1002FC00033B0008AC0000200F3B0008AD000020C1
:10030C00173B0008D50000201F3B0008D800002038
:10031C002C3B0008F8B501244FF47A7002F066FF0C
:10032C000222254B00251C70244B254E1A700322EB
:10033C00244B254F1D70254B1A70FFF737FF2449AE
:10034C00244803F055F933782BBB22462249234825
:10035C0000F0F0FC224B0546187088B1214B1C7044
:10036C0002F042FF34703860FFF742FF1E49194813
:10037C0003F03EF9BDE8F8400121184800F069BDD2
:10038C0002F032FF3B68C01A44F620639842EBD966
:10039C00144B1D70E8E7234622460F490F4800F026
:1003AC00C9FC02F021FF3B68C01A42F2107398425C
:1003BC0088BF3570D8E700BFD4000020AE00002005
:1003CC00AD000020DC000020D8000020DD00002063
:1003DC00343B0008E0020020D6000020B0000020D2
:1003EC00D5000020AC0000203A3B000808220A216E
:1003FC00014B024800F0E8BB80969800B00000204A
:10040C00342970B504460FD901F0C003C02B27D195
:10041C00CD2925D8134B01F03F0053F82000124B87
:10042C0053F8203001331BD000230C2505FB03F6B9
:10043C00A65FD8B2B1420DD00133042BF6D1012AFC
:10044C000CD100230C2505FB03F2A65ED8B20136B5
:10045C0001D1A15270BD0133042BF4D11846F9E738
:10046C000420F7E7AC3F0008E43F000870B50346F2
:10047C004FF6FF72012500240C4E00F130011A805A
:10048C005E601D725C720C338B42F8D1084B028695
:10049C001A6BC0F89020DA6AC0F894205B6BC0F835
:1004AC0098304FF0FF33C0F89C3070BD00093D0010
:1004BC00E43F000870B5012205460E46FFF7A0FF89
:1004CC00032804461BD8342E0BD0D5F89C300133AE
:1004DC0007D10121304602F0EDFD0121304602F03A
:1004EC0047FE0C20002300FB045485F88530627A0B
:1004FC00237A616805F1340000F0EEF82E8670BDA9
:10050C0082B0F8B506AC84E80C00012205460E4614
:10051C00FFF776FF0328044623D80C2707FB005768
:10052C00079BBDF820207B609DF82230342E3A8149
:10053C00BB720BD0D5F89C30013307D1012130466A
:10054C0002F0B8FD0121304602F012FE0C2000FB37
:10055C0004547968237A627A05F1340000F0BCF80F
:10056C002E86BDE8F84002B0704700003429F0B583
:10057C001AD803464FF6FF7401260027134D00F1DD
:10058C003002B3F900C00C338C4501BF23F80C4C7E
:10059C0043F8085C03F8046C03F8037C9342F0D135
:1005AC004FF6FF730386F0BD01F0C003C02BF7D1EB
:1005BC00CD29F5D8064B01F03F0253F82220054B0C
:1005CC0053F822300133D4D1EAE700BF00093D00D3
:1005DC00AC3F0008E43F00082DE9F04186B08DF8EF
:1005EC000F20002204460D461F468DF81720FFF7FA
:1005FC0007FF0328064604D99DF8170006B0BDE88E
:10060C00F081B4F9303004F134089D4209D00C204B
:10061C0000FB0640037A427A4168404600F05CF8E1
:10062C002586342D07D0D4F89C30013303D100211A
:10063C00284602F09DFD0C2000FB0646B37A40468E
:10064C0001934FF47A730DF1170200930DF10F0122
:10065C00012300F071F9342DCED0012FCCD1D4F878
:10066C009C300133C8D13946284602F081FDC3E7DE
:10067C000148FFF7FBBE00BFE000002091FAA1F398
:10068C00B3FA83F370B50D0E0F2691FAA1F1B1FAFE
:10069C0081F144599B0006FA03F3890024EA030410
:1006AC0002FA01F12143415170BD00000346074A93
:1006BC0010684BB1064A934201D101F08DB9054A3D
:1006CC00934201D101F078B9704700BF2800002097
:1006DC0000300140003800402DE9F74F0D46174619
:1006EC0098460446002800F0D3808A49006E02F038
:1006FC00B5F889498146E06D02F0B0F88749824629
:10070C00606E02F0ABF886490646A06E02F0A6F8C1
:10071C008346B9F1000F00F0BB80BAF1000F00F076
:10072C00B780002E00F0B4805146484602F0ADF878
:10073C0059468246304602F0A8F80146814650469A
:10074C0002F0A3F8A065BAF1000F00F0A180B9F196
:10075C00000F00F09D80002800F09A80A36E2060AE
:10076C005A1C14BF4FF480234FF40073A3614FF451
:10077C0082736360FFF79AFFB5EB500FC0F08B806C
:10078C000023002617F0FD0FE3610CBF3346012355
:10079C00022F636134BF3346022323610723B04524
:1007AC00E36214BF334680235A49C4E90836206EED
:1007BC00A660A662E66002F039F85749E06D02F0D7
:1007CC0035F85649606E02F031F82369B342636E16
:1007DC0008BF0225C3F3031218BF0125042A8CBFDE
:1007EC003046504903F00F0398BF51F822004E4A8F
:1007FC00022D52F8231091FAA1F24FEA1163C65858
:10080C00B2FA82F34FEA83024FF00F0303FA02F3BA
:10081C0091FAA1F2B2FA82F203EA06034FEA8202DB
:10082C0023FA02F34FEA112554D0042B02D10822EB
:10083C00FFF724FFC268012322EA050295FAA5F509
:10084C00B5FA85F503FA05F51543C5603449A06E74
:10085C0001F0ECFF2368354A934244D1344B9A693A
:10086C0042F480529A619A6902F480520092009A82
:10087C00DA6842F48052DA60DA6822F48052DA6084
:10088C00204601F034F92268136843F040031360EA
:10089C0003B0BDE8F08FB5EB900F01D3082370E7E0
:1008AC00B5EBD00F01D310236BE7B5EB101F01D3C1
:1008BC00182366E7B5EB501F01D3202361E7B5EB96
:1008CC00901F01D328235CE7B5EBD01F2CBF30233E
:1008DC00382356E7042B02D10822FFF7CFFEC3685A
:1008EC0023EA0505B1E7134A9342C9D1104BDA69E3
:1008FC0042F48042DA61DA6902F480420192019A90
:10090C001A6942F480421A611A6922F480421A610F
:10091C00B6E700BFE03B0008B03B0008103C000805
:10092C00403C00080C000020583B000800300140FF
:10093C0000100240003800402DE9F047DDF820801F
:10094C000C4615461E469DF8249073B1B8F1000F65
:10095C002CD0076800F0A8FC82462644A6420BD196
:10096C000020BB681B06FCD404E0B8F1000F0CBFE0
:10097C0001200220BDE8F087BB689907FCD514F86C
:10098C00013B3B73B9F1000F05D1BB68DA07FCD50D
:10099C003B7B05F8013BB8F1FF3FDFD000F084FC56
:1009AC00A0EB0A004045D9D30120DAE70120E1E7AA
:1009BC0013460A463421FFF70FBE000010B504465B
:1009CC00C08802F0D5FB074B074A1B680749B3FBED
:1009DC00F2F3226A486853434A68121A9342FBDCCA
:1009EC0010BD00BF2800002040420F00001000E0A6
:1009FC0003468088DB88834201D002F0B9BB704784
:100A0C0030B5836887B00493002501230446ADF804
:100A1C0014308DF81650059B342100930068DDE9E5
:100A2C000323FFF76DFD2946204607B0BDE8304093
:100A3C00FFF7C4BF10B504460121FFF7BFFF2068C4
:100A4C003421BDE81040FFF791BD70B504460E4649
:100A5C001546FFF7D5FF46F0200101222068FFF76D
:100A6C00A7FF0122207329462068FFF7A1FF20462B
:100A7C00FFF7E0FF70BD38B504460D46FFF7C0FF29
:100A8C00294601222068FFF793FF0122FF212073E2
:100A9C002068FFF78DFF05462046FFF7CBFF284661
:100AAC0038BDF8B504460F4615461E46FFF7A8FF9D
:100ABC000122206847F02001FFF77AFF2E442073B3
:100ACC00B54206D0012215F8011B2068FFF770FF14
:100ADC00F6E72046FFF7AEFFF8BD38B504460D46E5
:100AEC0063B1FFF78DFF0122206845F02001FFF76D
:100AFC005FFF20732046FFF79DFF38BDBDE83840EF
:100B0C00FFF7A3BF2DE9F0419846037E06460F463A
:100B1C001546C3B9447BA24228BF2546641BE4B2E8
:100B2C003046FFF76DFF012241463068FFF740FF6A
:100B3C003D443073AF420DD0012217F8011B3068D1
:100B4C00FFF736FFF6E7B2FA82F4202A28BF2025F9
:100B5C006409E5E73CB1012200213068013CFFF754
:100B6C0027FFE4B2F6E73046FFF764FFBDE8F081FB
:100B7C0010B504460123FF22E221FFF7AEFF207BD4
:100B8C0010BD10B504460123FF22E121FFF7A5FF9C
:100B9C00207B10BDFF2210B5044601231146FFF740
:100BAC009CFF207B10BD0000054B82680360002376
:100BBC00837348F6B8039A429CBF024B836070471C
:100BCC00E00000208096980083602023437300236C
:100BDC00C28083820122052310B58180C375027601
:100BEC000362FFF7E1FF10BD7D290A4628BF7D2275
:100BFC000521FFF72ABF202928BF2021012938BF52
:100C0C00012138B50546112441732146013428468B
:100C1C006A7BE4B2FFF719FF172CF6D138BD4FF6FB
:100C2C00FF7382889A4204D0C088C01A18BF012072
:100C3C0070470020704738B50446FFF7F0FF0546B3
:100C4C0090B1A088E388834206D0012102F032FAE9
:100C5C000121E08802F02EFA00212046FFF7C8FEA1
:100C6C0001212046FFF7AAFE284638BD002110B509
:100C7C000446FFF7BDFE134B134A1B681349B3FB25
:100C8C00F2F3E269486853434A68121A9342FBDC58
:100C9C00A37D13B12046FFF774FFE27C204602F0DF
:100CAC00FE02E2740021FFF7D0FE02212046FFF77E
:100CBC00E2FE40F0010202212046BDE81040D2B213
:100CCC00FFF7C3BE2800002040420F00001000E0D8
:100CDC0008B5C27C12F0020112D142F00202C274B9
:100CEC00FFF7B3FE074B084A1B680849B3FBF2F346
:100CFC0041F28832534348684A68121A9342FBDC2B
:100D0C0008BD00BF2800002040420F00001000E08A
:100D1C0038B5002B9DF8105014BFB023A023044607
:100D2C00FFF7F0FE2DB12046BDE838400121FFF75A
:100D3C005FBE38BD73B5012400940546FFF7E8FF8C
:100D4C0002F052FA06462846FFF724FF10F0300452
:100D5C0009D102F049FA831B5F2BF4D901236B767E
:100D6C00002002B070BD00212846FFF741FE702222
:100D7C0007212846FFF769FE2B7BDB0603D52846A7
:100D8C00FFF7FFFEECE70120EBE770B504460D46DC
:100D9C000A46C37D0A21FFF784FE2A462046E37DDE
:100DAC001021BDE87040FFF77CBE8A1E12F0FF02D6
:100DBC0038B5054608D002F003042246032102345C
:100DCC00FFF743FEEC7538BD0321FFF73EFE02230F
:100DDC00EB75F8E710B50446FFF712FE012250211F
:100DEC002068FFF7E5FD0122207373212068FFF7CF
:100DFC00DFFD2046FFF71EFE10BD837D10B50446B7
:100E0C0053B11D21FFF737FE1D2100F0FD022046D6
:100E1C00FFF71BFE0023A37510BD10B5044600227E
:100E2C000121FFF712FEA37D23B12046BDE810403F
:100E3C00FFF7E3BF10BD10B51D210446FFF71BFEE5
:100E4C0040F001021D212046BDE81040D2B2FFF750
:100E5C00FCBD19B13F220121FFF7F7BDFFF7DDBF44
:100E6C0070B50D46062106461446FFF704FE032D09
:100E7C0028BF032500F0F80304EB45021A43304663
:100E8C00BDE870400621D2B2FFF7DFBD022A0CD1BB
:100E9C009B22C2612022032928BF032103EB4103BB
:100EAC001A430621D2B2FFF7D0BD012A15BF552235
:100EBC004122C261C26114BF00220822EBE738B59F
:100ECC000446052002F092F95F2204212046FFF728
:100EDC00BCFD0123002203212046FFF7D7FF1D2173
:100EEC002046FFF7C8FD05462046FFF773FF1D217E
:100EFC002046FFF7C0FD2A1A53425341237548B1CF
:100F0C00854202D12046FFF765FF00221D212046B5
:100F1C00FFF79BFD002520462A461C21A575FFF7EF
:100F2C0094FD20463F2201212576FFF78EFD0322FA
:100F3C0020460221FFF789FD20462021FFF75BFEAA
:100F4C0020460521FFF731FF20464C21FFF74CFED0
:100F5C00702207212046FFF778FD2046FFF708FE98
:100F6C002046FFF70EFE0C2229462046FFF76DFDAA
:100F7C0029462046FFF77FFDE0742046FFF7A8FEC8
:100F8C00E07CA0F10E035842584138BD10B5044620
:100F9C0034210068FFF78EFA2046FFF74CFE20B193
:100FAC002046BDE81040FFF78ABF10BD03460A4932
:100FBC0010B508680344EFF30882934205D90C225C
:100FCC004FF0FF30054B1A6010BD054A054C121B43
:100FDC009342F4D20B60F7E70000002010040020CD
:100FEC000050002000040000FEE700001622024B17
:100FFC004FF0FF301A60704710040020012070473A
:10100C00836810B504462BB1032201469847002390
:10101C00C4E9023310BD836810B5044613B1032232
:10102C0001469847204610BD0C4A034690420ED00C
:10103C00B0F1804F0DD0A2F5943290420BD04FF608
:10104C00FF7002F58062934208BF032070470020B6
:10105C007047012070470220704700BF002C0140F0
:10106C00014670B5044651F8100FFFF7DDFF054639
:10107C00084601F081FC0023084A04F1600642F89E
:10108C002530E36004F1B005B54204D0103D28468C
:10109C00FFF7C1FFF8E7204670BD00BF80010020BC
:1010AC00F8B504460846FFF7BFFF4FF6FF739842AA
:1010BC0000D1FEE7236903B1FEE71C4D04F10C02DD
:1010CC0045F820200E2204F110063046C4E90C33FA
:1010DC00C4E90E33C4E91033C4E91623216184F842
:1010EC002C30A36484F84C3084F84D30E46001F06B
:1010FC00FFFB04F1600504F1B00728461035FFF73B
:10110C007FFFBD42F9D100234FF6FF72C4E90033D3
:10111C00C4E90632C4E90833A36063618023304616
:10112C00A362BDE8F84000F017BE00BF80010020AC
:10113C00002310B5044683668367C0F88830C0F876
:10114C009830C0F8A8300361FFF7AAFF204610BD05
:10115C00034B186810B1043000F023BD704700BF7A
:10116C0080010020FFF7F4BF034B586810B1043026
:10117C0000F017BD704700BF80010020034B98683A
:10118C0010B1043000F00DBD704700BF800100208D
:10119C00034BD86810B1043000F003BD704700BF9A
:1011AC0080010020826810B50AB902F081FCC36886
:1011BC00BDE81040184708B500B9FEE701F096FBF2
:1011CC000068836E13B16030FFF7ECFF08BDFFF7CA
:1011DC00F2BF10B500B9FEE7037F013B072B10D817
:1011EC00DFE803F014040F100F0F0F12022401F0AC
:1011FC007DFB0068063400EB041083680BB1FFF72D
:10120C00D1FF10BD0324F2E70424F0E70124EEE73C
:10121C00FFF7DFBFFFF7DDBF02F0DEBA02F0E4BA82
:10122C007047000038B50E4B054618784FF47A73AA
:10123C00B3FBF0F30B4A1068B0FBF3F000F0A0F82E
:10124C00044658B90F2D09D8024629464FF0FF30F5
:10125C0000F042F82046044B1D6038BD0120FCE72D
:10126C00040000202800002008000020074A08B5D0
:10127C001368032043F01003136000F01BF80020E8
:10128C00FFF7D0FFFFF7CCFF002008BD0020024085
:10129C00034A044B11681B780B441360704700BF62
:1012AC009001002004000020014B1868704700BF1B
:1012BC009001002007490302CA6803F4E06322F49A
:1012CC00E0621204120C134343F0BF6343F4003387
:1012DC00CB60704700ED00E0164B30B5DC68C4F312
:1012EC000224C4F10703251D042B28BF0423062D5B
:1012FC004FF0FF3598BF002405FA03F388BF033C79
:10130C0021EA0303A34005FA04F422EA04020028AC
:10131C0043EA0203ACBF00F16040074A4FEA0313F3
:10132C00DBB2ABBF00F5614000F00F0080F800337A
:10133C00135430BD00ED00E014ED00E0002808DB94
:10134C000123420900F01F0003FA00F0014B43F89F
:10135C002200704700E100E000280DDB0122430968
:10136C0000F01F0002FA00F0044A203342F8230078
:10137C00BFF34F8FBFF36F8F704700BF00E100E0EA
:10138C000138B0F1807F0BD24FF0E023F021054AF9
:10139C00586182F823100020072298611A61704767
:1013AC000120704700ED00E0002809DB0122430911
:1013BC0000F01F0002FA00F0024A603342F82300EA
:1013CC00704700BF00E100E0704708B5FFF7FCFF75
:1013DC0008BD704710B5044650B1437903F0FF02C5
:1013EC0013B90271FFF7F5FF01230020637110BDE3
:1013FC000120FCE790F82130022B06D004238363F4
:10140C00002380F820300120704703681A6822F00E
:10141C000E021A601A6822F001021A600123D0E948
:10142C000F218B4053604FF480730384002070476E
:10143C0008B590F82130022B03D0042383630120DC
:10144C0008BD03681A6822F00E021A601A6822F0AE
:10145C0001021A60174A93421CD0143293421BD0DB
:10146C00143293421AD0143293421AD0143293424B
:10147C001AD0143293420CBF4FF480134FF0807388
:10148C000D4A53604FF480730384436B7BB19847D0
:10149C000020D5E70123F3E71023F1E74FF4807325
:1014AC00EEE74FF48053EBE74FF48033E8E7184650
:1014BC00C6E700BF0800024000000240044A08B51D
:1014CC005169014202D0506101F006FD08BD00BF18
:1014DC00000401402DE9F341054638B30368DB07EE
:1014EC0010D42B689F075ED42B68190700F19580E8
:1014FC002B685A0700F1C180E869002840F02C8164
:10150C00002029E0904C636803F00C03042B07D0F7
:10151C00636803F00C03082B0AD16368DE0307D55C
:10152C0023689C03DDD56B68002BDAD1012013E016
:10153C006B68B3F5803F12D1236843F4803323608A
:10154C00FFF7B2FE064623689803CAD4FFF7ACFE39
:10155C00801B6428F7D9032002B0BDE8F0819BB949
:10156C00236823F480332360236823F480232360CF
:10157C00FFF79AFE064623689903B2D5FFF794FE4F
:10158C00801B6428F7D9E6E7B3F5A02F236803D1B5
:10159C0043F480232360CFE723F480332360236854
:1015AC0023F48023CBE7684C636813F00C0F07D04F
:1015BC00636803F00C03082B10D16368DA030DD4B5
:1015CC0023689B0702D52B69012BAFD123686A696D
:1015DC0023F0F80343EAC203236085E72A695B4BD7
:1015EC006AB101221A60FFF75FFE064623689F0767
:1015FC00ECD4FFF759FE801B0228F7D9ABE71A6031
:10160C00FFF752FE0646236898077FF56DAFFFF78C
:10161C004BFE801B0228F6D99DE7AA694A4E4B4B1C
:10162C00E2B10122C3F88024FFF73EFE0446736A40
:10163C009B070DD54FF4FA52454B1B68B3FBF2F3E5
:10164C00019300BF019B5A1E0192002BF9D14FE769
:10165C00FFF72AFE001B0228E9D97CE7C3F8802497
:10166C00FFF722FE0446736A9F077FF541AFFFF731
:10167C001BFE001B0228F6D96DE7334CE369D8003A
:10168C0024D40127E36943F08053E361E36903F059
:10169C0080530093009B2F4E3368D90518D5EB6807
:1016AC00012B26D1236A43F001032362FFF7FCFDD3
:1016BC0041F288380646236A9B073FD5002F3FF43A
:1016CC001BAFE36923F08053E36115E70027E2E7E2
:1016DC00336843F480733360FFF7E6FD804633686C
:1016EC00DA05DCD4FFF7E0FDA0EB08006428F6D99E
:1016FC0031E7ABB9236A41F2883823F00103236246
:10170C00236A23F004032362FFF7CEFD0646236A07
:10171C009807D3D5FFF7C8FD801B4045F7D91AE7CA
:10172C00052B236A03D143F004032362BAE723F0A9
:10173C0001032362236A23F00403B6E7FFF7B4FD29
:10174C00801B4045B7D906E700100240000042421A
:10175C0028000020007000402A4C636803F00C0342
:10176C00082B3ED00022284B02281A662CD1FFF7FA
:10177C009BFD06462368990120D42B6AB3F5803F64
:10178C0005D16268A96822F400320A436260696A72
:10179C0062680B4322F474121343012263601A4BE8
:1017AC001A66FFF781FD054623689A013FF5A8AE3E
:1017BC00FFF77AFD401B0228F6D9CCE6FFF774FD43
:1017CC00801B0228D6D9C6E6FFF76EFD05462368B6
:1017DC009B017FF595AEFFF767FD401B0228F6D9FC
:1017EC00B9E601283FF4B8AE63682A6A03F4803185
:1017FC0091427FF49BAE6A6A03F4701393423FF4F8
:10180C007FAE93E6001002400000424230B5184B08
:10181C0087B002AC03F110052246186859680833EA
:10182C0003C2AB421446F7D140F201231149ADF883
:10183C0004304B6803F00C02082A17D1C3F383421F
:10184C0018326A44DB0312F8100C0CD54B680A4AA8
:10185C00C3F34043504318336B4413F8143CB0FBB0
:10186C00F3F007B030BD054B5843FAE70248F8E7F0
:10187C00453B00080010024000127A0000093D00B0
:10188C002DE9F0410D46044610B90120BDE8F08168
:10189C00444A136803F007038B4228D321688E0750
:1018AC0030D4CA0743D43F4A136803F00703AB4252
:1018BC0065D822683C4D12F0040F6CD1130706D585
:1018CC006B68226923F4605343EAC2036B60FFF731
:1018DC009DFF6B68354AC3F30313D35CD840344B7C
:1018EC001860344B1868FFF79DFC0020CEE7136896
:1018FC0023F007030B431360136803F007038B42B9
:10190C00C3D1CBE7284B11F0040F1EBF5A6842F429
:10191C00E0625A60080742BF5A6842F460525A604B
:10192C005A68A06822F0F00202435A60B9E7626874
:10193C001D4E012A33681AD113F4003FA5D07368E9
:10194C0041F2883823F0030313437360FFF7ACFCB8
:10195C0007467368626803F00C03B3EB820FA2D0E6
:10196C00FFF7A2FCC01B4045F3D903208EE7022AE7
:10197C0002D113F0007FE1E713F0020FDEE71368EA
:10198C0023F007032B431360136803F00703AB42E8
:10199C007FF47BAF8DE76B68E16823F4E0630B4366
:1019AC006B608BE70020024000100240983B00085F
:1019BC002800002008000020044B054A5B68C3F394
:1019CC000223D35C034A1068D840704700100240D1
:1019DC00A83B000828000020044B054A5B68C3F3B1
:1019EC00C223D35C034A1068D840704700100240F1
:1019FC00A83B00082800002003682DE9F341D90713
:101A0C00054620D5364CE369DA0032D40126E36969
:101A1C0043F08053E361E36903F080530193019B2E
:101A2C00304F3B68DB0526D5236A13F4407336D15F
:101A3C00236A6A6823F44073134323621EB1E3697B
:101A4C0023F08053E3612868830706D52449AB68EB
:101A5C004A6822F440421A434A6010F010001BD02E
:101A6C001F4AE9685368002023F480030B4353603A
:101A7C0012E00026D4E73B6843F480733B60FFF729
:101A8C0013FC80463B68D805CED4FFF70DFCA0EBC9
:101A9C0008006428F6D9032002B0BDE8F0816A681A
:101AAC0002F440729A42C3D001200F4A236AC2F852
:101ABC004004002023F44071C2F840042162D9078D
:101ACC00B6D5FFF7F1FB41F288380746236A9A072F
:101ADC00AED4FFF7E9FBC01B4045F7D9DBE700BFED
:101AEC00001002400070004000004242704710B5E8
:101AFC000446002851D0436A002B4AD14268B2F503
:101B0C00827F00D0C3610023A36294F8513003F0AC
:101B1C00FF0223B9204684F85020FFF7E7FF022389
:101B2C00226884F851301368A06823F040031360D6
:101B3C00636800F4044003F482730343E068A16912
:101B4C0000F400600343206900F002000343606965
:101B5C0000F00100034301F400700343E069090C39
:101B6C0000F038000343206A01F0040100F080000B
:101B7C000343A06A00F40050034313605160D3691F
:101B8C00002023F40063D3610123606584F8513095
:101B9C0010BD0023C0E90433B5E70120F8E7704716
:101BAC007047036810B51A69044691070ED5DA68B8
:101BBC0092070BD56FF002021A61012202779B6922
:101BCC009B0777D0FFF726FB0023237723681A693E
:101BDC00500710D5DA6851070DD56FF004021A6161
:101BEC00022222779B69204613F4407F68D0FFF7CE
:101BFC0011FB0023237723681A6912070FD5DA68C3
:101C0C0010070CD56FF008021A6104222277DB69E9
:101C1C00204699075AD0FFF7FDFA00232377236853
:101C2C001A69D20610D5DA68D0060DD56FF01002FD
:101C3C001A6108222277DB69204613F4407F4BD0CF
:101C4C00FFF7E8FA0023237723681A69D10708D530
:101C5C00DA68D20705D56FF0010220461A61FFF74A
:101C6C00B6FA23681A69100608D5DA68110605D584
:101C7C006FF0800220461A6100F09BF823681A6905
:101C8C00520608D5DA68500605D56FF0400220469A
:101C9C001A61FFF785FF23681A69910622D5DA6865
:101CAC0092061FD56FF020022046BDE810401A6145
:101CBC0000F07EB8FFF7ACFA2046FFF770FF83E721
:101CCC00FFF7A6FA2046FFF76AFF92E7FFF7A0FAA4
:101CDC002046FFF764FFA0E7FFF79AFA2046FFF7CC
:101CEC005EFFAFE710BD00001A4A036890420AD0AD
:101CFC00B0F1804F07D0A2F59432904203D002F598
:101D0C008062904215D14A6823F070031343114A44
:101D1C0090420AD0B0F1804F07D0A2F59432904295
:101D2C0003D002F58062904203D1CA6823F4407359
:101D3C0013434A6923F08003134303608B68C36227
:101D4C000B688362034B984204BF0B690363012346
:101D5C0043617047002C014010B5044630B390F835
:101D6C003D3003F0FF021BB980F83C2000F072FEFE
:101D7C000223206884F83D30211DFFF7B5FF0123B5
:101D8C00002084F8463084F83E3084F83F3084F8E4
:101D9C00403084F8413084F8423084F8433084F881
:101DAC00443084F8453084F83D3010BD0120FCE708
:101DBC00704770470368DA6822F49072DA605A69E7
:101DCC0022F001025A61026B012A02BFDA6822F08A
:101DDC001002DA60202380F83E3000230363704742
:101DEC0010B504460368C1681A6922F440520A43CC
:101DFC001A6182680069D9680243606921F4B051A4
:101E0C0021F00C0102430A43DA605A69A16922F4F9
:101E1C0040720A435A610E4A934215D1FFF7DCFD1A
:101E2C0019234343626820689200B3FBF2F36422E7
:101E3C00B3FBF2F102FB11331B013233B3FBF2F3B0
:101E4C0003EB0113836010BDFFF7B6FDE8E700BF9D
:101E5C0000380140704710B5044640B390F83D304F
:101E6C0003F0FF021BB980F83C20FFF7F3FF24239B
:101E7C00226884F83D30D368204623F40053D360A5
:101E8C00FFF7AEFF236800201A6922F490421A6112
:101E9C005A6922F02A025A61DA6842F40052DA6076
:101EAC002023206484F83D3084F83E3010BD01209E
:101EBC00FCE710B5044660B390F83D3003F0FF0228
:101ECC001BB980F83C20FFF7C5FF2423226884F857
:101EDC003D30D368204623F40053D360FFF780FFD6
:101EEC00236800201A6922F490421A615A6922F080
:101EFC0022025A615A6942F008025A61DA6842F4C5
:101F0C000052DA602023206484F83D3084F83E309F
:101F1C0010BD0120FCE790F83D30202B18D1A9B161
:101F2C00A2B190F83C30012B12D0C28400238284E1
:101F3C00212201620168036480F83C3080F83D2066
:101F4C00CA68184642F08002CA6070470120704788
:101F5C000220704708B50023406AC385C38400F093
:101F6C0027FF08BD704707B58168836AB1F5805FAC
:101F7C00026834D10169002934D15268C2F30802D5
:101F8C0023F8022BC28D8362013A92B2C2851ABB2E
:101F9C000368D96821F02001D960D96821F48071D7
:101FAC00D960596921F001015961202180F83E1056
:101FBC00016B012920D10263D96821F01001D9608D
:101FCC001968C90605D501921A6801925B680193DC
:101FDC00019B818DFFF7C6FF03B05DF804FB39B997
:101FEC00016929B95268D2B21A70836A0133C9E700
:101FFC00526802F07F02F7E700F0D4FEECE7000035
:10200C00036837B51A68044612F00F0FD9685D697A
:10201C000CD1950667D58D0665D590F83E30222BF0
:10202C005BD103B0BDE83040FFF79DBF05F0010068
:10203C0001F49075054356D0D50705D5CB0542BFA5
:10204C00236C43F001032364550704D518B1236CAA
:10205C0043F002032364930704D518B1236C43F0B7
:10206C0004032364150707D501F0200303431EBFA7
:10207C00236C43F008032364236C73B3920608D5D6
:10208C008B0606D594F83E30222B02D12046FFF762
:10209C006AFF236820465B69256C03F0400305F05A
:1020AC0008051D431BD0FFF785FE23685A695506AA
:1020BC0010D55A69A06B22F040025A6150B1534BB3
:1020CC004363FFF7B5F940B1A06B436B03B0BDE8B8
:1020DC0030401847204600F06BFE03B030BD00F0D6
:1020EC0067FE2564F9E7206B012855D1D00653D53E
:1020FC00CD0651D5002101911A6801925A680192BE
:10210C00019A5A6912F040022AD0A06B02685268F8
:10211C0092B2002AE1D0A58D9542DED9E285826982
:10212C00202A15D0DA6822F48072DA605A6922F01B
:10213C0001025A615A6922F040025A61202284F845
:10214C003E202163DA6822F01002DA60FFF752F9C0
:10215C00E38DA18DC91A89B22046FFF703FFBCE7B6
:10216C00E18D88B2E18D89B20029B6D0A18D091A12
:10217C0089B20029B1D0D86820F49070D860586921
:10218C0020F001005861202084F83E002263DA68B8
:10219C0022F01002DA60DFE7100626D50D0624D5F2
:1021AC0094F83D20212A98D1A168226AB1F5805F6C
:1021BC0016D12169A1B932F8021BC1F3080159608B
:1021CC002262E28C013A92B2E284002A85D1DA686A
:1021DC0022F08002DA60DA6842F04002DA607CE7D2
:1021EC00511C216212785A60EBE750067FF575AFEF
:1021FC004A067FF572AFDA68204622F04002DA60B8
:10220C00202384F83D3000F0D0FD66E7611F000804
:10221C0090F83C30012B11D02423026880F83D301B
:10222C00D36823F00C0343F00803D360202380F819
:10223C003D30002380F83C30184670470220704730
:10224C0090F83C30012B11D02423026880F83D30EB
:10225C00D36823F00C0343F00403D360202380F8ED
:10226C003D30002380F83C30184670470220704700
:10227C0090F83D2090F83E0010437047C28582854F
:10228C008162034622220020186483F83C0083F804
:10229C003E201B68DA6842F48072DA605A6942F0B8
:1022AC0001025A61DA6842F02002DA60704770B4B9
:1022BC0090F83E60202E10D161B15AB190F83C409C
:1022CC00012C0AD0012480F83C400024046370BC2B
:1022DC00FFF7D4BF012070BC70470220FBE7000061
:1022EC0086B0042841D8DFE800F003101C28340025
:1022FC001F4B20489A6942F004029A619B6903F0D3
:10230C0004030193019B06B07047194B1A489A6954
:10231C0042F008029A619B6903F008030293029B46
:10232C00F1E7134B15489A6942F010029A619B69C8
:10233C0003F010030393039BE5E70D4B10489A69D8
:10234C0042F020029A619B6903F020030493049BE2
:10235C00D9E7074B0B489A6942F040029A619B6996
:10236C0003F040030593059BCDE70020CBE700BFAE
:10237C000010024000080140000C01400010014018
:10238C000014014000180140FEF78EBF704708B5DD
:10239C00FEF77EFFFFF719F8FFF7F8FF08BD70474F
:1023AC000F4B84B0DA6942F08052DA61DA6902F0DC
:1023BC0080520192019A9A6942F001029A619A69DB
:1023CC0002F001020292029A5A6942F040025A61EA
:1023DC005B6903F040030393039B04B0704700BF99
:1023EC00001002400C4BD3F8FC20D2015EBFD3F896
:1023FC00FC2042F08072C3F8FC200022074B5A608C
:10240C001A6842F001021A6000BF00BF00BF586892
:10241C00B0FA80F04009704700ED00E0001000E0D9
:10242C0008B5FFF7BDFFFFF7DDFFFEF71FFFFFF756
:10243C00B6FF00F0DFFDBDE808400148FEF7CABF5B
:10244C00200000207B4B82B09A69013842F00102D7
:10245C009A619B6903F001030193019B23282CD8FB
:10246C00DFE810F024002D0034003B004000470052
:10247C004C00530058005F0068006D0074007D0034
:10248C008200890092009B00A000A700B000B5005C
:10249C00BC002B002B002B00C100C8002B002B0014
:1024AC002B002B00CD00D200D900E000624A53680B
:1024BC0043F0E06343F00103536002B070475E4A9F
:1024CC00536823F0010343F0E063F5E75A4A53687D
:1024DC0043F0E06343F00203EEE7574A536823F0FE
:1024EC000203F0E7544A536843F0E06343F00403FB
:1024FC00E2E7514A536823F00403E4E74E4A536879
:10250C0043F0E06343F00803D6E74B4A536823F0EB
:10251C000803D8E7484A536843F0E06343F03003BC
:10252C00CAE7454A536823F0300343F0E06343F0B5
:10253C001003C1E7404A536823F03003C3E73E4A17
:10254C00536843F0E06343F0C003B5E73A4A53687D
:10255C0023F0C00343F0E06343F04003ACE7364A9A
:10256C00536823F0C003AEE7334A536843F0E0638B
:10257C0043F44073A0E7304A536823F4407343F0AC
:10258C00E06343F4007397E72B4A536823F44073DA
:10259C0043F0E06343F480738EE7274A536823F4D7
:1025AC00407390E7244A536843F0E06343F440637C
:1025BC0082E7214A536823F4406343F0E06343F419
:1025CC00006379E71C4A536823F440637BE71A4A9B
:1025DC00536843F0E06343F480536DE7164A536845
:1025EC0023F480536FE7144A536843F0E06343F4D9
:1025FC00004361E7104A536823F4004363E70E4A33
:10260C00536823F0E06357E70B4A536823F0E06309
:10261C0043F0807350E7084A536823F0E06343F0BB
:10262C00007349E7044A536823F0E06343F0806386
:10263C0042E700BF001002400000014091FAA1F3F4
:10264C00B3FA83F370B50D0E0F2691FAA1F1B1FA1E
:10265C0081F144599B0006FA03F3890024EA030430
:10266C0002FA01F12143415170BD91FAA1F3B3FA81
:10267C0083F370B50D0E042691FAA1F1B1FA81F134
:10268C0044599B0006FA03F3890024EA030402FA76
:10269C0001F12143415170BD431C04D00C3151F860
:1026AC000C3C5A1C01D100207047834201F10C01F3
:1026BC00F5D1012070470000431C2DE9F34106467B
:1026CC000F4600D1FEE7564B00F00F02C0F303108B
:1026DC0001F0070853F82240FFF702FEB8F1010F92
:1026EC00054643D194FAA4F3B3FA83F30321200EE5
:1026FC002A589B0001FA03F322EA030394FAA4F28A
:10270C00B2FA82F29200914001220B432B502146E7
:10271C00284608F1FF38FFF791FFB8F1010F06D8F2
:10272C0017F0080218BF04222146FFF79EFF94FA07
:10273C00A4F2230EE958B2FA82F39A000F239340C5
:10274C0094FAA4F2B2FA82F2C7F301170B4092008A
:10275C00012F23FA02F31FD0022F48D0082B2ED1C1
:10276C00042221462846FFF769FF28E0C7F306201C
:10277C00B8F1030F03D8DFE808F0050D0903FEE7F5
:10278C000022C4E7FFF75EFE0822C0E7FFF75AFEFF
:10279C000922BCE74246BAE7042B04D108222146A1
:1027AC002846FFF74BFFEA68230A22EA142293FA21
:1027BC00A3F30124B3FA83F39C401443EC60194B4C
:1027CC009A6942F001029A619B6903F0010301933B
:1027DC00019BA6F10D03012B15D8134A536823F066
:1027EC00E06343F08063536002B0BDE8F081042BDA
:1027FC0004D1082221462846FFF720FFEB6823EA84
:10280C001423EB60DBE70F2E02D0133E012EEBD826
:10281C00054A536823F0E06343F00073E3E700BF1D
:10282C00583B00080010024000000140431C06D138
:10283C007047834202D18968FFF73EBF0C310B68A9
:10284C005A1CF6D1FEE70B685A1C01D100207047C8
:10285C00834201D1486870470C31F4E7431C01D026
:10286C00FFF7F1BF002070474B6813B94FF0FF30F2
:10287C007047834201D1086870470C31F4E708B106
:10288C00FFF7F2BF4FF0FF30704703468B4208460C
:10289C0004D01BB100290CBF184600207047000063
:1028AC000F4B1A6842F001021A6059680D4A0A402F
:1028BC005A601A6822F0847222F480321A601A6804
:1028CC0022F480221A605A6822F4FE025A604FF4F5
:1028DC001F029A604FF00062034B9A60704700BF72
:1028EC00001002400000FFF800ED00E004387047D3
:1028FC0003681D4A84B093420BD11C4B9A6942F475
:10290C0000629A619B6903F400630093009B04B01E
:10291C007047B3F1804F10D0154A934218D0154A26
:10292C009342F4D1114BDA6942F00402DA61DB69AB
:10293C0003F004030393039BE9E70C4BDA6942F0C1
:10294C000102DA61DB6903F001030193019BDEE70D
:10295C00064BDA6942F00202DA61DB6903F002032A
:10296C000293029BD3E700BF002C014000100240F1
:10297C0000040040000800400368124A934206D14C
:10298C0002F56442936923F4006393617047B3F1D9
:10299C00804F06D00C4A934209D00C4A93420BD07C
:1029AC0070470B4AD36923F00103D3617047084A7F
:1029BC00D36923F00203F8E7054AD36923F0040333
:1029CC00F3E700BF002C0140000400400008004069
:1029DC0000100240431C10D00C4B984210D007D86A
:1029EC00B0F1804F0ED0A3F5806398420CD0FEE777
:1029FC00074B9842FBD1192070476FF00D007047C0
:102A0C001E2070471C2070471D2070470008004096
:102A1C00002C0140431C10D00C4B984210D007D80E
:102A2C00B0F1804F0ED0A3F5806398420CD0FEE736
:102A3C00074B9842FBD11B2070476FF00D0070477D
:102A4C001E2070471C2070471D2070470008004056
:102A5C00002C014038B50446FFF74AFF0068FFF729
:102A6C00B9FFD4E91212FEF737FC2068FFF7B2FF6A
:102A7C00FEF764FC22681046FFF7CCFF05461046B3
:102A8C00FFF7A8FF85420BD0D4E912122846FEF7B7
:102A9C0023FC2068FFF7BEFFBDE83840FEF74EBCB4
:102AAC0038BD00002DE9F04F044687B08A46006D12
:102ABC00624998469146DDF840B0FFF7CFFE604979
:102ACC000190606DFFF7CAFE5E490646A06DFFF7E8
:102ADC00C5FE5D490546E06DFFF7C0FE019B07464C
:102AEC00002B00F0A880626D013202D0002E00F0A5
:102AFC00A280A26D013202D0002D00F09C80E26D0C
:102B0C00013202D0002F00F0968018463146FFF7B4
:102B1C00BCFE29462060FFF7B8FE39462060FFF75F
:102B2C00B4FE2060002800F08680484B98424BD1C0
:102B3C0003F55843DA6842F48042DA60DA6822F42A
:102B4C008042DA609A6942F480429A619B6903F48C
:102B5C0080430393039B2523A4F860303749206DF1
:102B6C00FFF764FE1EB13649606DFFF75FFE2DB1B5
:102B7C003449A06DFFF75AFE4FF480752FB13249DE
:102B8C00E06D45F40075FFF751FE94F86120304B71
:102B9C00271D43F8227023680022C4E9013A0C2354
:102BAC0094F960000121C4E9039BC4E90635C4F81B
:102BBC0014802262FEF790FB3846002E36D107B007
:102BCC00BDE8F04FFFF775B9224B984215D103F5CC
:102BDC00E6331A6942F400321A611A6922F400329F
:102BEC001A61DA6942F40032DA61DB6903F400330A
:102BFC000493049B4FF49373AEE7174B9842ADD1FB
:102C0C0003F5E4331A6942F480221A611A6922F43A
:102C1C0080221A61DA6942F48022DA61DB6903F4FA
:102C2C0080230593059B40F2272395E707B0BDE869
:102C3C00F04FFFF710B907B0BDE8F08F643F000804
:102C4C001C3F0008E03E0008A43E0008003801408C
:102C5C0094010020004400400048004010B410B122
:102C6C0010BCFFF71FBF10BC7047000008B5074B26
:102C7C0090F8612053F82200FFF7FAFA00F02200D6
:102C8C00A0F122035842584108BD00BF9401002016
:102C9C0008B5074B90F8612053F82200FFF7E8FACB
:102CAC0000F02100A0F121035842584108BD00BF9B
:102CBC009401002070B50E46054610B94FF0FF3058
:102CCC0070BDFFF7D3FF04460028F7D1294611F851
:102CDC00623F0122337095F86100034B53F82000DA
:102CEC00FFF7E5FA2046EBE79401002038B50D46D6
:102CFC000446B8B1FFF7BAFFA0B994F96000A56417
:102D0C00FEF72AFB94F86100074B04F1620153F8BB
:102D1C0020000122FFF7CBFA94F96000BDE838409F
:102D2C00FEF70CBB38BD00BF9401002038B515462A
:102D3C000446B8B1C16490F96000FEF70DFBB4F81D
:102D4C007230A16E9BB294F861001944064BAAB282
:102D5C0053F82000FFF7DFF894F96000BDE8384025
:102D6C00FEF7ECBA38BD00BF9401002048B1436DAA
:102D7C00013306D190F86120024B53F82200FFF783
:102D8C0047BA70479401002048B1436D013306D116
:102D9C0090F86120024B53F82200FFF751BA7047AC
:102DAC0094010020436C04381847836C043818478E
:102DBC001FB503680446186810F0010013D00022F8
:102DCC0000921A6800925B680093009B201FFFF72B
:102DDC004DFF40BB0122204604F15E0104B0BDE86A
:102DEC001040FFF764BA196811F0020106D0019087
:102DFC001A6801925B680193019BE7E71A6812F06D
:102E0C00040206D002911A6802925B680293029B3C
:102E1C00DCE719680907D9D503921A6803925B6835
:102E2C000393039BD2E704B010BD000008B5252026
:102E3C00FEF7BAFA024B1868BDE80840FFF7E0B895
:102E4C0094010020262008B5FEF7AEFA034B586813
:102E5C0018B1BDE80840FFF7D3B808BD94010020B5
:102E6C00272008B5FEF7A0FA034B986818B1BDE807
:102E7C000840FFF7C5B808BD94010020F8B5144907
:102E8C000646FFF7EBFCFEF7CFF8124D044655F85B
:102E9C00203073B90E493046FFF7E0FC0746B020EE
:102EAC00FEF7BAF906463946FEF742F955F82430D2
:102EBC001E6055F824301C6844B12046FEF7D0F84B
:102ECC002046BDE8F840B021FEF7A8B9F8BD00BF18
:102EDC00703C0008800100200023012803F101024E
:102EEC0002D013464008F8E71421DBB24B43044AE6
:102EFC00181D1044816811B113441B6918477047A1
:102F0C00A00100200120FEF7D9BA0220FEF7D6BAA4
:102F1C000420FEF7D3BA0820FEF7D0BA1020FEF733
:102F2C00CDBA38B505242025A8B2FEF7C7FA013C66
:102F3C004FEA4505F8D138BD38B506244FF4806505
:102F4C00A8B2FEF7BBFA013C4FEA4505F8D138BDF3
:102F5C000721204B06221975082183F82810092116
:102F6C0083F83C100A2183F8501017211A7083F84B
:102F7C006410002283F8781083F88C1083F8A0106A
:102F8C0083F8B4102821DA601A625A639A64DA65FD
:102F9C001A67C3F88420C3F89820C3F8AC20C3F890
:102FAC00C02083F8C810C3F8D42083F8DC10C3F811
:102FBC00E82083F8F010C3F8FC2083F80411C3F860
:102FCC00102183F81811C3F8242183F82C11C3F8AD
:102FDC0038217047A001002038B5054CA4F5A07528
:102FEC00143C201DFEF717F8AC42F9D138BD00BFD8
:102FFC00E002002030B595B0202200210BA800F093
:10300C0009FC1422102500210DEB020000F002FC3B
:10301C002A46002101A800F0FDFB01230224CDE982
:10302C000E354FF460130AA80A9411941393FEF70B
:10303C0051FA00B1FEE70F23CDE905344FF480635C
:10304C000790CDE90830214605A8FEF719FC00B120
:10305C00FEE74FF4004301A801940393FEF7CCFC68
:10306C0000B1FEE715B030BD0C480D490D4A0023E8
:10307C0002E0D458C4500433C4188C42F9D30A4A21
:10308C000A4C002301E013600432A242FBD3FFF789
:10309C0007FC00F07DFB00F05FFB70470000002098
:1030AC00900000206C4100089000002018040020C3
:1030BC00FEE70000C3B2332B2DE9F0410D462AD8B0
:1030CC00274A00F4E06052F823400443621C44D0C9
:1030DC00244EC4F3031756F8273004F00F0823FAD4
:1030EC0008F3DB0710D520461F49FFF7D5FA10B1BE
:1030FC002046FFF7C3FE012303FA08F256F82730E7
:10310C0023EA020346F82730052D15D8DFE805F031
:10311C0015211B1D1F2300F0C002C02A1DD1CD2B71
:10312C001BD8124B00F03F0253F822200C4B00F43A
:10313C00E06053F82240C8E7FEE700212046BDE8D6
:10314C00F041FFF7B9BA1021F8E72021F6E7032187
:10315C00F4E70121F2E70921F0E7BDE8F08100BFB7
:10316C00E43F0008F4030020703C0008AC3F00086A
:10317C00C3B2332B19D8184A00F4E06052F823304C
:10318C001843C0F30313042B98BF144A00F00F002C
:10319C0098BF52F82320124B88BF002253F82030DE
:1031AC00C3F30F23A9B11361704700F0C002C02A0A
:1031BC000CD1CD2B0AD80B4B00F03F0253F8222038
:1031CC00054B00F4E06053F82230D9E74FF0FF30A4
:1031DC00D7E75361704700BFE43F00080C000020A4
:1031EC00583B0008AC3F0008FFF7CEB838B5044692
:1031FC0048B1FFF7C9F8054600F0BAFAFFF7C4F872
:10320C00431BA342F8D338BDB0F80431B0F8000129
:10321C00181A00F03F007047B0F80431B0F80021E4
:10322C009BB293421ABFD0F8F830985C4FF0FF3045
:10323C00704790F80231B0F80601C0B2834227BF44
:10324C00C3F13F03C018C01A00F1FF30704707B537
:10325C0003688DF8071001225B680DF10701984790
:10326C0003B05DF804FB13B50DF107010446FFF73D
:10327C0021FD90B9B4F87030B4F86C20013303F030
:10328C003F03934209D0B4F870209DF80700616E9B
:10329C0092B29BB28854A4F8703002B010BD0000FA
:1032AC00B0F8722038B5436F134403F03F03A0F815
:1032BC007230B0F87220B0F86E3092B293421BD0DC
:1032CC00B0F87220B0F8724095B203F14002521B74
:1032DC00534203F03F03A4B202F03F0258BF5A42DC
:1032EC00C4F140039A4228BF1A4604494267FFF7CB
:1032FC001DFD4FF0FF3038BD0020FCE7AD3200085B
:10330C0003682DE9F0479B680446884616469847A3
:10331C0001232374D4F8E830B4F8029101338246C7
:10332C00C9F1400904F1940708D194F80C312BB180
:10333C000023384684F80C31FFF718FD236820462B
:10334C009B6898470028F9D035464D4501D855451E
:10335C0015D9D14528BFD14623684A4641465B68FA
:10336C0020469847236820469B689847B4F802216A
:10337C00A5EB0905C8448246C2F14009E5E7B4F85B
:10338C000221D4F8FC005319402B104419D82A46BA
:10339C00414600F031FAA946B4F8023138461D44D2
:1033AC0005F03F05A4F80251FFF772FC30B94A460C
:1033BC0038460B49C4F80891FFF7B8FC3046BDE815
:1033CC00F087C2F140094A46414600F015FAD4F89C
:1033DC00FC00A5EB090208EB090100F00DFADBE794
:1033EC00AD320008037C33B1B0F80221B0F80631DD
:1033FC009BB29A42FAD17047C0F8EC30009B9142D4
:10340C0008BF4FF0FF31C0F8F03000F11103C0F8E5
:10341C00F8300023C0E9392100F15102A0F8043141
:10342C00C0E93F23A0F806317047000073B54FF494
:10343C007A7316460022C0E90123174B0446036039
:10344C004FF0FF33C0F8E830144B0D46984216D1BC
:10345C00134B1A68C0F8E8205B68C0F8E4304FF0F2
:10346C00FF33012E08BFC4F8E8302046D4E93921D7
:10347C0000934FF0FF33FFF7BFFF02B070BD094957
:10348C002846FFF7FCF90849C4F8E8002846FFF77E
:10349C00F6F9C4F8E400E2E7C4400008E0020020BA
:1034AC00E43F00081C3F0008643F0008D0F8E830F7
:1034BC0010B5013304460ED10368DB68984794F8C5
:1034CC000C3143B9012304F1940084F80C31BDE8AC
:1034DC001040FFF759BC10BD02F00703023BDBB2F2
:1034EC00042B37B50546C0F8101180F80D2196BF96
:1034FC0017480024C45C02F03003302B0DD14FF47C
:10350C00C063013412F0080F14BF4FF400500020B8
:10351C00082C09D0092C18D0FEE712F020031CBF90
:10352C004FF480630134EDE7002205F19404009020
:10353C002046FFF793FB2846FFF7B8FF20460549C6
:10354C0003B0BDE83040FFF7D1BB4FF48052ECE73D
:10355C00B44000087332000810B50446FFF7A6FF0C
:10356C00B4F80421B4F8003192B29A4217BFD4F8DF
:10357C00F8204FF0FF30D05C01331CBF03F03F0349
:10358C00A4F8003110BD0000002202490248FFF7E8
:10359C004DBF00BF00440040E002002070B505465E
:1035AC000C46084649B1FCF7ABFD2B680246214698
:1035BC002846BDE870405B68184770BD08B5FFF73A
:1035CC00EDFF08BD03681B681847000008B50249E9
:1035DC00FFF7E4FF08BD00BFE840000838B505461A
:1035EC00FFF7DCFF04462846FFF7F0FF204438BD08
:1035FC00FFF7F4BF0023012A98BF0A2230B58BB025
:10360C000C468DF8243009A92546B4FBF2F404FBD2
:10361C001253DBB2092B94BF30333733DBB2AA42DF
:10362C0001F8013DF0D9FFF7B9FF0BB030BD2DE922
:10363C00F04107460E4614462AB9BDE8F04103682E
:10364C00C9B21B6818470A2A05D1002905DBBDE859
:10365C00F041FFF7CFBFD2B2F9E72D21FFF7B2FF50
:10366C002246054671423846FFF7C4FF2844BDE8A0
:10367C00F08138B50546FFF7DAFF04462846FFF718
:10368C00A5FF204438BD10B422B9026810BC1268E2
:10369C00C9B2104710BCD2B2FFF7ACBF38B5054663
:1036AC00FFF7F1FF04462846FFF790FF204438BD92
:1036BC0038B50546FFF7E7FF04462846FFF786FFB7
:1036CC00204438BD10B50446FFF78EFDE06023683A
:1036DC0020465B699847002808DAFFF785FDE36808
:1036EC00C01AA3689842F2D34FF0FF3010BD2DE9F9
:1036FC00F04107460C460D468E18B542A5EB040862
:10370C0007D03846FFF7DEFF031E02DB05F8013B4E
:10371C00F3E74046BDE8F0812DE9F04107468846C5
:10372C0016461D4673B100243846FFF7CBFF031E27
:10373C0005DB434503D033550134A542F4D1204673
:10374C00BDE8F0811C46FAE708B50320FDF7B2FD91
:10375C00BDE8084000F00AB808B5AFF30080FCF7EC
:10376C00F7FCFCF7D7FD00F005F8FAE7FEF758BEBA
:10377C007047000008B5044B2BB10448FFF744FD1B
:10378C0008B1AFF3008008BD00000000E00200208B
:10379C0070B500260C4D0D4C641BA410A64209D12B
:1037AC0000F08AF900260A4D0A4C641BA410A642AC
:1037BC0005D170BD55F8043B98470136EEE755F836
:1037CC00043B98470136F2E74C4100084C41000895
:1037DC004C41000864410008024B0146186800F097
:1037EC0089B800BF2C000020024B0146186800F07D
:1037FC0019B800BF2C0000200A44914200F1FF339D
:10380C0000D1704710B511F8014B914203F8014FEC
:10381C00F9D110BD03460244934200D1704703F81E
:10382C00011BF9E738B50546002940D051F8043C96
:10383C000C1F002BB8BFE41800F0E2F81C4A136808
:10384C0033B9636014602846BDE8384000F0DEB838
:10385C00A34208D9206821188B4201BF19685B6804
:10386C0009182160EDE71A465B680BB1A342FAD93F
:10387C0011685018A0420BD12068014450188342A3
:10388C001160E0D118685B68014411605360DAE79D
:10389C0002D90C232B60D6E7206821188B4201BF7C
:1038AC0019685B680918216063605460CBE738BD08
:1038BC000804002070B50E4E0C463168054611B94F
:1038CC0000F08CF830602146284600F087F8431C45
:1038DC000AD0C41C24F00304A04207D0211A2846A5
:1038EC0000F07CF8013001D14FF0FF34204670BD60
:1038FC000C0400202DE9F041CD1C25F00305083502
:10390C000C2D38BF0C25002D074601DBA94205D92B
:10391C000C2300263B603046BDE8F0812E4E00F0B3
:10392C006FF833681C4634BB29463846FFF7C2FF94
:10393C00431C04464DD134682646002E40D12368E2
:10394C003146384604EB030800F048F880453AD17C
:10395C00216803356D1A25F0030508350C2D38BF89
:10396C000C2538462946FFF7A5FF01302BD02368DC
:10397C002B4423600EE02268521B1ED40B2A16D94E
:10398C006119A342256018BF5960636808BF316094
:10399C0062514B60384604F10B0600F037F826F004
:1039AC000706231DF21AB6D09B1BA350B3E762681F
:1039BC00A3420CBF32605A60ECE723466468B2E75E
:1039CC0034467668B9E70C2338463B6000F01EF8A5
:1039DC00A1E72560DEE700BF0804002038B500230E
:1039EC00054D044608462B60FDF7E0FA431C02D156
:1039FC002B6803B1236038BD10040020704770475A
:103A0C000148FFF7FBBF00BF140400200148FFF77B
:103A1C00F6BF00BF14040020062008B500F02CF8F7
:103A2C000120FDF7E1FA1F2938B504460D4604D9EB
:103A3C00162303604FF0FF3038BD426C12B152F8C0
:103A4C0021304BB9204600F031F82A460146204679
:103A5C00BDE8384000F018B8012B0AD0591C03D12E
:103A6C00162303600120E7E70024284642F825408E
:103A7C0098470020E0E70000024B01461868FFF76A
:103A8C00D2BF00BF2C00002038B50023064D0446E1
:103A9C00084611462B60FDF7A9FA431C02D12B688E
:103AAC0003B1236038BD00BF10040020FDF7A6BA97
:103ABC0008B5FFF7B1FF0000F8B500BFF8BC08BCB3
:103ACC009E467047F8B500BFF8BC08BC9E467047D0
:103ADC005478205374617274007373203A2000720E
:103AEC0072203A20006C6C203A20007531203A206C
:103AFC00007532203A20006361725F666C6167204A
:103B0C003A200063617374203A200072736C742045
:103B1C003A200074696D65725F736574203A2000F9
:103B2C0074696D65203A2000737461727400656E5F
:103B3C00640A0030303030310002030405060708F7
:103B4C00090A0B0C0D0E0F101000000001010000F3
:103B5C00020200000404000008080000101000001D
:103B6C002020000040400000808000000100010483
:103B7C0002000204040004040800080410001004ED
:103B8C00200020044000400480008004000000005D
:103B9C0000000000010203040607080900000000F1
:103BAC000102030406000000003001401202000074
:103BBC001400000000300140120100001E00000043
:103BCC000038004012000000FFFFFFFF0000000063
:103BDC00000000000700000000300140120200004D
:103BEC001500000000300140120100001F00000011
:103BFC000038004012000000FFFFFFFF0000000033
:103C0C00000000000500000000300140120200001E
:103C1C001300000000300140120100001D000000E4
:103C2C000038004012000000FFFFFFFF0000000002
:103C3C0000000000040000000030014012020000EF
:103C4C000F00000000300140120100001C000000B9
:103C5C000038004012000000FFFFFFFF00000000D2
:103C6C000000000000000000000000401280000076
:103C7C000001000000000040129000000100000054
:103C8C000000004012120100010100000000004081
:103C9C00121001000200000000000040129201000E
:103CAC00020100000000004012910100030000001E
:103CBC00000000401212020003010000000000404E
:103CCC0012110200060000000004004012950000D2
:103CDC0007000000002C0140128D100007010000AD
:103CEC00000400401215010008000000002C0140E7
:103CFC00128E000008010000002C0140128D000003
:103D0C0009000000002C0140120E01000901000006
:103D1C00002C0140120D01000A000000002C014093
:103D2C00128E01000A010000002C0140128D0100CE
:103D3C000B000000002C0140120E02000B010000D1
:103D4C00002C0140120D02000F000000000000408A
:103D5C00129100000F01000000000040128F0000C3
:103D6C0010000000002C0140120D11001001000089
:103D7C0000040040129501001002000000040040F5
:103D8C001294010011000000002C0140128D110052
:103D9C001101000000040040121502001102000085
:103DAC000004004012140200130000000000004048
:103DBC00121101001301000000000040120F01005D
:103DCC0014000000000400401294000015000000D4
:103DDC00000400401214010016000000000800400E
:103DEC001297000017000000000800401217010095
:103DFC001800000000080040129701001900000094
:103E0C0000080040121702001A00000000000040D9
:103E1C00129001001A01000000000040128F0100F6
:103E2C001B00000000000040121002001B010000EB
:103E3C0000000040120F02001D000000002C014089
:103E4C00128E10001E000000002C0140120E1100FA
:103E5C001F000000002C0140128E110026000000F3
:103E6C0000040040129300002700000000040040F2
:103E7C0012130100280000000004004012930100FE
:103E8C00290000000004004012130200FFFFFFFF96
:103E9C000000000000000000000000000044004092
:103EAC00120000000B00000000380140120000005E
:103EBC001D00000000480040120B00001D01000016
:103ECC0000480040120A0000FFFFFFFF0000000046
:103EDC000000000001000000004400401208000037
:103EEC000C00000000380140120000001E00000011
:103EFC0000480040120000001E0100000048004075
:103F0C00120A0000FFFFFFFF00000000000000008D
:103F1C000300000000440040100800000A000000EC
:103F2C000038014010060000170000000038014066
:103F3C00100500001B0000000048004010000000AD
:103F4C002B00000000480040100A0000FFFFFFFF9C
:103F5C0000000000000000000200000000440040CF
:103F6C001208000009000000003801401206000091
:103F7C001600000000380140120500001A00000075
:103F8C0000480040120000002A00000000480040D9
:103F9C00120A0000FFFFFFFF0000000000000000FD
:103FAC002E0000002F000000300000003100000047
:103FBC0032000000330000000B0000000C00000079
:103FCC000D0000001C0000001D0000002900000076
:103FDC002D00000023000000030000000200000080
:103FEC000A0000001300000015000000140000007F
:103FFC001A00000008000000090000002700000063
:10400C00160000000700000006000000050000007C
:10401C0019000000180000002A0000002C0000000D
:10402C00FFFFFFFF0D0000000E0000000F0000005E
:10403C00170000002D0000002E0000002F000000D3
:10404C0030000000310000002200000023000000BE
:10405C002B000000320000002900000028000000A6
:10406C0026000000250000000C0000000B000000E2
:10407C001C0000001B0000001200000011000000DA
:10408C001F0000001E0000001D00000024000000A6
:10409C0000000000010000000400000010000000FF
:1040AC0021000000200000000600070008000000AE
:1040BC0000000000000000005B3200080D33000817
:1040CC003F320008F133000815320008653500084E
:1040DC0025320008FB360008253700080D0A0000C1
:1040EC0000000000000000000000000000000000C4
:1040FC0000000000000000000000000000000000B4
:10410C0000000000000000000000000000000000A3
:10411C000000000000000000000000000000000093
:10412C000000000000000000000000000000000083
:10413C000000000000000000000000000000000073
:10414C005537000841010008F90300087D060008F6
:08415C005D2F000895350008F5
:084164001D010008E52F000811
:10416C0018040020010000001000000000080140AD
:10417C00000C0140001001400014014000180140E7
:10418C0000300240000000000024F4003000002049
:10419C00000000000C4100082C410008EC40000815
:1041AC000000000000000000000000000000000003
:1041BC0000000000000000000000000000000000F3
:1041CC0000000000000000000000000000000000E3
:1041DC0000000000000000000000000000000000D3
:1041EC0000000000000000000000000000000000C3
:04000005080030754A
:00000001FF
