:100000000C9463000C948B000C948B000C9453059F
:100010000C9453050C9453050C948B000C948B009A
:100020000C948B000C948B000C948B000C94CB05DF
:100030000C948B000C948B000C948B000C948B0014
:100040000C9409050C948B000C94D7040C94B10407
:100050000C948B000C948B000C948B000C948B00F4
:100060000C9487060C948B000000000024002700ED
:100070002A0000000008000201000003040700003D
:1000800000000000000000000000230026002900FE
:1000900000000000250028002B00040404040404D0
:1000A0000404020202020202030303030303010227
:1000B00004081020408001020408102001020408F6
:1000C0001020A607B90C11241FBECFEFD8E0DEBF69
:1000D000CDBF11E0A0E0B1E0EEEAFAE102C0059088
:1000E0000D92A034B107D9F723E0A0E4B1E001C03C
:1000F0001D92A733B207E1F710E0C2E6D0E004C0DA
:100100002197FE010E94440DC136D107C9F70E9414
:1001100085080C944A0D0C940000E0912802F0919F
:100120002902309729F0109223021092220209949A
:100130000895CF93DF93AC01E0912602F09127025E
:100140003097F1F090912502809124029817C0F029
:1001500090E0292F30E02617370754F4D901A05C2E
:10016000BE4F240F351FE90128812C939F5FF1CFEB
:100170001092250260932402CB01DF91CF91099464
:10018000DF91CF910895AF92BF92CF92DF92EF921D
:10019000FF920F931F93CF93DF936C017B018B0131
:1001A000040F151FEB015E01AE18BF08C017D10781
:1001B00059F06991D601ED91FC910190F081E02D0B
:1001C000C6010995892B79F7C501DF91CF911F9160
:1001D0000F91FF90EF90DF90CF90BF90AF90089578
:1001E000FC01538D448D252F30E0842F90E0821B3D
:1001F000930B541710F0CF96089501970895FC01C2
:10020000918D828D981761F0A28DAE0FBF2FB11D19
:100210005D968C91928D9F5F9F73928F90E0089571
:100220008FEF9FEF0895FC01918D828D981731F02B
:10023000828DE80FF11D858D90E008958FEF9FEF7F
:100240000895FC01918D228D892F90E0805C9F4F55
:10025000821B91098F739927089581E492E00E948F
:10026000210121E0892B09F420E0822F089580E00C
:1002700090E0892B29F00E942D0181110C9400003F
:100280000895FC01A48DA80FB92FB11DA35ABF4F2B
:100290002C91848D90E001968F739927848FA68985
:1002A000B7892C93A089B1898C91837080648C93D9
:1002B000938D848D981306C00288F389E02D808188
:1002C0008F7D80830895EF92FF920F931F93CF93BA
:1002D000DF93EC0181E0888F9B8D8C8D98131AC081
:1002E000E889F989808185FF15C09FB7F894EE8968
:1002F000FF896083E889F9898081837080648083C5
:100300009FBF81E090E0DF91CF911F910F91FF900F
:10031000EF900895F62E0B8D10E00F5F1F4F0F73B7
:100320001127E02E8C8D8E110CC00FB607FCFACF72
:10033000E889F989808185FFF5CFCE010E944101CE
:10034000F1CFEB8DEC0FFD2FF11DE35AFF4FF08243
:100350009FB7F8940B8FEA89FB8980818062CFCFA9
:10036000CF93DF93EC01888D8823B9F0AA89BB89EC
:10037000E889F9898C9185FD03C0808186FD0DC0D7
:100380000FB607FCF7CF8C9185FFF2CF808185FFF8
:10039000EDCFCE010E944101E9CFDF91CF910895C9
:1003A00090E0FC01EE58FF4F2491FC01E255FF4F15
:1003B0003491FC01E656FF4FE491EE23C9F022236D
:1003C00039F0233001F1A8F4213019F1223029F15C
:1003D000F0E0EE0FFF1FE057FF4FA591B4918FB7EC
:1003E000F894EC91611126C030953E233C938FBF69
:1003F00008952730A9F02830C9F0243049F78091BA
:1004000080008F7D03C0809180008F778093800073
:10041000DFCF84B58F7784BDDBCF84B58F7DFBCFF5
:100420008091B0008F778093B000D2CF8091B000E0
:100430008F7DF9CF3E2BDACFCF93DF9390E0FC0195
:10044000E255FF4F249186569F4FFC0184918823EB
:10045000D1F090E0880F991FFC01E859FF4FA5915A
:10046000B491FC01E057FF4FC591D49161110EC0CA
:100470009FB7F8948C91E22FE0958E238C9328817E
:10048000E223E8839FBFDF91CF9108958FB7F8945F
:10049000EC91E22BEC938FBFF6CF3FB7F8948091AD
:1004A000160290911702A0911802B091190226B578
:1004B000A89B05C02F3F19F00196A11DB11D3FBF9C
:1004C000BA2FA92F982F8827BC01CD01620F711D6B
:1004D000811D911D42E0660F771F881F991F4A9565
:1004E000D1F7089520911C0230911D022817390779
:1004F00071F490911A0280911B02981741F0E091DB
:100500001A02F0E0EF52FE4F808190E008958FEFE5
:100510009FEF08950895EF92FF920F931F93CF934B
:10052000DF93DC015C96ED90FC905D97E114F104A3
:1005300079F481E090E013969C938E93129790E06B
:1005400080E0DF91CF911F910F91FF90EF90089580
:100550005196ED91FC91529750968C915097982F0F
:1005600090950FB75E962C915E97122F127021FD19
:100570006095F8942081112319F1282B2083E7013D
:100580002197F1F728E0462F50E0308160FF1AC034
:10059000382B3083E7012197F1F7BA0175956795FC
:1005A000215089F7112381F08081892380830FBF37
:1005B0005C968D919C910197F1F781E090E0C1CF1D
:1005C0002923DCCF3923E5CF9081892BEFCF2091F0
:1005D0001C0230911D022817390761F480911B021B
:1005E00020911A0290E0805C9F4F821B91098F73CB
:1005F0009927089590E080E0089520911C023091A1
:100600001D0228173907B9F490911A0280911B0234
:10061000981789F0E0911A02F0E0EF52FE4F8081C6
:1006200020911A0230E02F5F3F4F2F733327209322
:100630001A0290E008958FEF9FEF089520918601B0
:10064000260F3327331F21323105ECF42091AA0104
:10065000FC0190E080E0243069F082E00895A091F0
:1006600086012191AC014A595E4FA40FB52FB11DEF
:100670002C930196861798F380918601680F6093FA
:10068000860180E0089581E008951092AA0181E03A
:100690008093AC011092AB0161E082E10E94D00135
:1006A00061E083E10E94D001E9EBF0E080818E7F80
:1006B000808380818D7F808388E48093B80085E487
:1006C0008093BC000895E091250280912402E817F0
:1006D00030F4F0E0E05CFE4F808190E008958FEF11
:1006E0009FEF089590912502809124022FEF3FEF14
:1006F000981748F4E92FF0E0E05CFE4F208130E0ED
:100700009F5F90932502C90108950F931F93CF9384
:10071000DF938C01D0E0C0E0C017D10734F48EED38
:1007200092E00E9472032196F7CFDF91CF911F9143
:100730000F9108958091240290912502891B990BB5
:100740000895CF93DF93CB01EA01642F0E941E032B
:10075000CE01DF91CF910895CF93DF931F92CDB754
:10076000DEB7698361E0CE0101960E941E0381E03D
:1007700090E00F90DF91CF91089590E080E0089590
:1007800060912A028EED92E00C94AC03FC01019082
:100790000020E9F73197AF01481B590BBC0181E4F8
:1007A00092E00C94C3008F929F92AF92BF920F93EE
:1007B0001F93CF93DF93CDB7DEB7A1970FB6F89411
:1007C000DEBF0FBECDBF19A2423008F44AE08E0151
:1007D0000F5D1F4F842E912CB12CA12CA5019401EB
:1007E0000E94070DE62FB901CA01EA30F4F4E05D7A
:1007F000D801EE938D01232B242B252B79F790E044
:1008000080E0109719F0CD010E94C603A1960FB6A3
:10081000F894DEBF0FBECDBFDF91CF911F910F9136
:10082000BF90AF909F908F900895E95CE1CFCF92F9
:10083000DF92EF92FF92CF93DF936B017C016DE229
:1008400081E492E00E946301EC0166277727CB01E7
:100850006C197D098E099F094AE00E94D3038C0F11
:100860009D1FDF91CF91FF90EF90DF90CF90089583
:10087000BC01990F880B990B97FD0C9417044AE063
:100880000C94D303CF93DF93BC01990F880B990B82
:1008900097FF0CC00E941704EC0188E391E00E94CE
:1008A000C6038C0F9D1FDF91CF9108954AE00E94EF
:1008B000D303F2CFCF93DF9385ED8093BC0080917B
:1008C000620190916301A0916401B0916501079666
:1008D000A11DB11D23E0B695A795979587952A95FB
:1008E000D1F72091BC0024FD03C01092AA0136C0AC
:1008F00040916201509163016091640170916501C2
:10090000452B462B472B69F30097A105B10541F014
:100910002AE22A95F1F700C00197A109B109E1CFB8
:100920008091610191E0909360018823B9F0C091BA
:10093000B800D091BA008091BC008A7B8093BC0043
:1009400060E082E10E94D00160E083E10E94D0017A
:100950000E944503D093BA00C093B800DF91CF91B5
:1009600008951F920F920FB60F9211242F933F9369
:100970004F935F936F937F938F939F93AF93BF93A7
:10098000EF93FF9381E492E00E944101FF91EF9188
:10099000BF91AF919F918F917F916F915F914F9197
:1009A0003F912F910F900FBE0F901F9018951F929F
:1009B0000F920FB60F9211242F938F939F93EF9363
:1009C000FF93E0915102F09152028081E091570231
:1009D000F091580282FD1BC0908180915A028F5F76
:1009E0008F7320915B02821741F0E0915A02F0E090
:1009F000EF5BFD4F958F80935A02FF91EF919F918E
:100A00008F912F910F900FBE0F901F90189580819E
:100A1000F4CF1F920F920FB60F9211242F933F9392
:100A20008F939F93AF93BF93809112029091130283
:100A3000A0911402B09115023091110223E0230F0E
:100A40002D3758F50196A11DB11D209311028093F9
:100A5000120290931302A0931402B0931502809196
:100A6000160290911702A0911802B09119020196F6
:100A7000A11DB11D8093160290931702A093180236
:100A8000B0931902BF91AF919F918F913F912F9198
:100A90000F900FBE0F901F90189526E8230F029617
:100AA000A11DB11DD2CF1F920F920FB60F9211242C
:100AB0002F933F934F935F936F937F938F939F9366
:100AC000AF93BF93EF93FF93E0911C02F0911D024F
:100AD000309749F0A685B7858585968D91FF14C01E
:100AE0009C918923A1F4FF91EF91BF91AF919F91C8
:100AF0008F917F916F915F914F913F912F910F90C7
:100B00000FBE0F901F9018959C91892361F7A389C0
:100B1000B4899C918589809589238C93868997894E
:100B20000197F1F7608D718DA685B785558538E001
:100B300020E0CB010197F1F7822F90E09595879502
:100B4000282F4C91452309F02068315091F7868D6C
:100B500081FD209580911B0290E001968F7399276B
:100B600030911A02381799F0A0911B02B0E0AF52F1
:100B7000BE4F2C9380931B02828D938D0197F1F7CA
:100B8000A389B4898C919589892B8C93ACCF868D60
:100B90008160868FF1CF1F920F920FB60F921124B2
:100BA0002F933F934F935F936F937F938F939F9375
:100BB000AF93BF93CF93DF93EF93FF938091D001D7
:100BC000C0910E03D0E087FF24C0109285001092E0
:100BD00084008091D0018F5F8093D0018091D001FB
:100BE000082E000C990B8C179D0724F48091D001DE
:100BF0008C30C4F1809184009091850004968034FB
:100C00009C4908F47AC080918400909185000496F4
:100C100076C08091D001082E000C990B8C179D078F
:100C2000C4F6E091D0018E2FEE0F990BFC01EE0F70
:100C3000FF1FE80FF91FE651FD4F808186FFC9CFE6
:100C4000E091D0018E2FEE0F990BFC01EE0FFF1FEC
:100C5000E80FF91FE651FD4F808160E08F730E941D
:100C6000D001B7CF2091840030918500E091D00170
:100C70008E2FEE0F990BFC01EE0FFF1FE80FF91FEF
:100C8000E651FD4F81819281820F931F90938900DD
:100C900080938800E091D0018E2FEE0F990BFC011C
:100CA000EE0FFF1FE80FF91FE651FD4F808186FF11
:100CB00011C0E091D0018E2FEE0F990BFC01EE0FC9
:100CC000FF1FE80FF91FE651FD4F808161E08F7330
:100CD0000E94D001FF91EF91DF91CF91BF91AF9131
:100CE0009F918F917F916F915F914F913F912F9144
:100CF0000F900FBE0F901F90189580E49CE9909381
:100D00008900809388008FEF8093D001E3CF1F92FA
:100D10000F920FB60F9211242F933F934F935F932F
:100D20006F937F938F939F93AF93BF93EF93FF93B3
:100D30008091B900887F803609F44AC0F0F5883286
:100D400009F4A7C018F5803109F49BC0B8F48823D2
:100D500009F4F9C0883009F494C0FF91EF91BF9174
:100D6000AF919F918F917F916F915F914F913F9143
:100D70002F910F900FBE0F901F901895883109F496
:100D800088C0803251F78093A90114C0803409F4DF
:100D90009DC040F48033B9F38833F9F68093A901FC
:100DA00085ECB0C0803509F485C0883509F496C05B
:100DB000883499F60E945A04D0CF883909F48CC03F
:100DC00038F5883729F050F4883611F0803729F645
:100DD00083E08093AA011092A80157C0883809F4D3
:100DE0007BC0803919F0803809F0B7CF8091A80115
:100DF000803208F071C0E091A80181E08E0F8093ED
:100E0000A8018091BB00F0E0E857FE4F80833DC011
:100E1000803B39F0E0F4803A09F479C0883A09F06F
:100E20009CCF84E08093AA011092870110928601E2
:100E3000E0911E02F0911F020995809186018111B7
:100E40000FC081E0809386011092660109C0803C4A
:100E500009F4A6CF883C09F4A3CF883B09F07DCFE5
:100E6000E091870181E08E0F80938701F0E0EA59DD
:100E7000FE4F80818093BB00909187018091860115
:100E800029C08091CF018093BB0085EC8093BC008A
:100E900064CF9091CE018091CD01981758F5E091E3
:100EA000CE0181E08E0F8093CE01F0E0E355FE4F3E
:100EB0008081E9CFE091CE0181E08E0F8093CE0159
:100EC0008091BB00F0E0E355FE4F80839091CE010E
:100ED0008091CD019817C8F285E8D8CFE091CE0176
:100EE00081E08E0F8093CE018091BB00F0E0E3554E
:100EF000FE4F80838091AC0181115CCF81E08093B3
:100F0000AB0184EA8093BC001092AA0126CF85EC45
:100F10008093BC001092AA018091A801803230F425
:100F2000E091A801F0E0E857FE4F10826091A8011F
:100F300070E0E0912002F091210288E891E00995AB
:100F40001092A8010ACF1092A90134CF1092440246
:100F50001092430288EE93E0A0E0B0E08093450257
:100F600090934602A0934702B093480226E031E0F6
:100F7000309342022093410225EC30E030934E0240
:100F800020934D0224EC30E03093500220934F0226
:100F900020EC30E0309352022093510221EC30E0FB
:100FA000309354022093530222EC30E030935602E7
:100FB0002093550226EC30E03093580220935702DC
:100FC00010925A0210925B0210925C0210925D0223
:100FD0001092E1021092E0028093E2029093E30209
:100FE000A093E402B093E50228E131E03093DF0200
:100FF0002093DE0210921B0310921A0380931C03AD
:1010000090931D03A0931E03B0931F038AE291E007
:10101000909319038093180310922F0310922E03BC
:101020001092310310923003109233031092320366
:101030001092350310923403609136036E7F6D7FFA
:10104000609336036695617081E0682787E00E94AF
:10105000D00161E087E00E941C02E5EBF0E0E49142
:10106000E0932803E1EAF0E0E491F0E0EE0FFF1FE7
:10107000E057FF4F8591949190932A038093290321
:1010800060E088E00E941C028091360381FD04C06C
:1010900061E088E00E94D00188E080932403E6EBC1
:1010A000F0E0E491E0932503E2EAF0E0E491F0E07F
:1010B000EE0FFF1FEA57FF4F8591949190932703FE
:1010C00080932603109215031092140310921703B5
:1010D0001092160380910E038C3098F491E0980FD3
:1010E00090930E0380930F0390E0FC01EE0FFF1F1F
:1010F000E80FF91FE651FD4F88EB9BE09283818357
:1011000008958FEF80930F030895CF93DF93CDB7AA
:10111000DEB72D970FB6F894DEBF0FBECDBF789423
:1011200084B5826084BD84B5816084BD85B58260EC
:1011300085BD85B5816085BD80916E00816080939D
:101140006E00109281008091810082608093810006
:101150008091810081608093810080918000816016
:10116000809380008091B10084608093B100809171
:10117000B00081608093B00080917A008460809399
:101180007A0080917A00826080937A0080917A0060
:10119000816080937A0080917A00806880937A00E1
:1011A0001092C100E0915102F091520282E08083DE
:1011B000E0914D02F0914E021082E0914F02F091C9
:1011C000500280E1808310925902E0915502F09123
:1011D000560286E08083E0915302F09154028081B0
:1011E00080618083E0915302F09154028081886095
:1011F0008083E0915302F091540280818068808363
:10120000E0915302F091540280818F7D808361E0F0
:101210008DE00E941C02109225021092240210926E
:101220002302109222020E9445038DE890E09093E1
:101230001F0280931E0289E990E09093210280931F
:10124000200280910F038C3008F051C061E086E0ED
:101250000E941C0280910F03282F30E0F901EE0F4D
:10126000FF1FE20FF31FE651FD4F9081907C9660C7
:10127000908310921003109211032CE0622F0E94B1
:10128000380D829FB001112430E020E0AB01420F05
:10129000531FFA01EE0FFF1FE40FF51FE651FD4F3C
:1012A000908196FD16C02F5F3F4F2C30310571F7AE
:1012B00081110FC01092800082E080938100109213
:1012C000850010928400B19A80916F0082608093B3
:1012D0006F00E0910F038E2F90E0FC01EE0FFF1FD7
:1012E000E80FF91FE651FD4F80818064808388E11B
:1012F00093E09093130380931203109233031092A0
:101300003203109231031092300310922F03109287
:101310002E038FE190E090933503809334039091F6
:101320002403963108F047C021E030E030932F03CA
:1013300020932E032DE130E03093310320933003CE
:101340002DE030E030933303209332032091680086
:1013500084E0983048F031E09E3008F430E081E0DD
:1013600001C0880F3A95EAF7822B809368002DE63A
:1013700030E0983050F02BE630E09E3030F02CE634
:1013800030E0963110F030E020E030932C032093D1
:101390002B03292F30E0983008F017C181E001C0FD
:1013A000880F9A95EAF780932D03809134039091EA
:1013B00035030197F1F78091320390913303892B24
:1013C00049F1E0911C02F0911D0223E0E831F2079F
:1013D00009F1309739F0A389B4899C91858980956A
:1013E00089238C93809136038E7F809336031092ED
:1013F0001B0210921A0288E193E090931D028093E1
:101400001C02E0912B03F0912C03808190912D031D
:10141000892B8083109225021092240210922302BD
:10142000109222020E9445038DE890E090931F02E3
:1014300080931E0289E990E090932102809320021C
:1014400084E08093BA0085E893E09093270280932C
:10145000260280EC93E09093290280932802AE014B
:10146000475F5F4F5D874C8768E5262E62E0362E2A
:1014700074EB472E512C612C712CCE0101969B8769
:101480008A8701E010E0AA85BB85E9E01D92EA9514
:10149000E9F78091120390911303DC01ED91FC9127
:1014A0000084F185E02D0995892B09F4B2C1809162
:1014B000120390911303DC01ED91FC910284F385FA
:1014C000E02D0995893529F7809112039091130336
:1014D000DC01ED91FC910284F385E02D09958935BD
:1014E000C1F65E01B3E0AB0EB11C52EBC52ED12CA0
:1014F000E12CF12C8091120390911303DC01ED910A
:10150000FC910284F385E02D0995F50181935F013B
:10151000C80ED11CE11CF11C2C853D85E217F30798
:1015200049F78091120390911303DC01ED91FC9136
:101530000284F385E02D0995DD24EE24FF2490E05C
:10154000B0E0A0E0C816D906EA06FB0609F0A1CF74
:101550008C8190E0982F88272B81820F911D90938A
:101560001503809314032E8130E0322F22274D8102
:10157000240F311D309317032093160390934002DC
:1015800080933F02209100013091010137FF2AC072
:101590008BE391E00E94C60380913D0290913E0250
:1015A00005960E9438048DE391E00E94C603609185
:1015B0003F027091400290E080E04AE00E94D30335
:1015C00088E391E00E94C60322C09E3040F4285078
:1015D000310981E001C0880F2A95EAF7E4CE2E5048
:1015E0003109F7CF4E970CF445C18BE391E00E948F
:1015F000C60380913D0290913E020E9438048DE323
:1016000091E00E94C6038EE190E00E944204209186
:101610003F02309140022F31310580F480913D022C
:1016200090913E028E3291050CF032C1203131058D
:1016300008F029C110933C0200933B022DE2E22EF8
:1016400022E0F22EF701819191917F010E944204E4
:1016500025E332E02E153F05A9F795E3E92E92E048
:10166000F92ED7018D919D917D010E944204BDE329
:10167000EB16B2E0FB06A9F740913D0250913E0205
:10168000CA01019789359105B8F120913502309151
:10169000360280912C02811116C130932E022093C4
:1016A0002D028091370290913802909330028093FE
:1016B0002F028091390290913A02909332028093E6
:1016C000310280913B0290913C02909334028093CE
:1016D000330281E080932C02109236021092350280
:1016E000109238021092370210923A021092390288
:1016F00010923C0210923B028091000190910101F6
:10170000840F951F90933E0280933D028B35910587
:101710000CF422C1EFEFFFEFF0930101E093000121
:10172000029790933E0280933D02A0913D02B091BA
:101730003E02A032F2E0BF07C4F580911003E8E852
:10174000CE2ED12CC81AD10887FDD394CC0CDD1C29
:10175000CC0CDD1C0D2C000CEE08FF088091110351
:101760009101281B310987FD3395220F331F220F6A
:10177000331F032E000C440B550B2C193D094E0949
:101780005F09A53BB10514F0A4EBB0E0B7FF02C0C0
:10179000B0E0A0E00E94FF0CA30192010E94D50CD2
:1017A000C20ED31EE41EF51ED60120910F032C306D
:1017B00080F58091100348E850E0481B510987FDEF
:1017C0005395CA01880F991F880F991FA817B90749
:1017D00084F080911103F101E81BF10987FDF39575
:1017E000CF01880F991F880F991FA817B9070CF40C
:1017F000CD010297880F991F4FB7F89430E0F90197
:10180000EE0FFF1FE20FF31FE651FD4F928381831E
:101810004FBF0E944D024B015C018AE0C82ED12CC3
:10182000E12CF12C0E944D02681979098A099B0963
:10183000683E734081059105A8F3F1E0CF1AD10805
:10184000E108F10828EE820E23E0921EA11CB11CD3
:10185000C114D104E104F10429F740E050E0452B24
:1018600009F411CE0E942D01882309F406CE0E94AE
:10187000000003CE8BE391E00E94C60380913D02FD
:1018800090913E028ECE10933A0200933902D6CE4A
:10189000AC014E5251094D32510540F42031310511
:1018A00028F41093380200933702C8CE8997C29764
:1018B00008F0C4CE2031310508F4C0CE10933602B2
:1018C00000933502BBCE80912D0290912E0282179B
:1018D000930709F560912F027091300280913702D1
:1018E0009091380268177907B1F4609131027091D4
:1018F00032028091390290913A026817790759F4BF
:1019000060913B0270913C028091330290913402CD
:101910006817790749F130932E0220932D028091A8
:101920003702909138029093300280932F02809179
:10193000390290913A029093320280933102809161
:101940003B0290913C0290933402809333021093B7
:101950002B0200932A02C0CE97FFE7CE109301011D
:10196000009300010296DDCE10922B0210922A0203
:10197000B3CE8AE291E0909319038093180380918B
:101980001C0290911D028851934071F4E0912B0349
:10199000F0912C03908180912D0380958923808381
:1019A00010921D0210921C020895052E97FB1EF442
:1019B00000940E94EC0C57FD07D00E94070D07FC15
:1019C00003D04EF40C94EC0C509540953095219535
:1019D0003F4F4F4F5F4F089590958095709561955B
:1019E0007F4F8F4F9F4F08950E94290DA59F900D07
:1019F000B49F900DA49F800D911D11240895B7FFF1
:101A00000C94F40C0E94F40C821B930B0895A1E239
:101A10001A2EAA1BBB1BFD010DC0AA1FBB1FEE1F68
:101A2000FF1FA217B307E407F50720F0A21BB30BB3
:101A3000E40BF50B661F771F881F991F1A9469F72F
:101A400060957095809590959B01AC01BD01CF018B
:101A50000895A29FB001B39FC001A39F700D811D87
:101A60001124911DB29F700D811D1124911D0895A7
:101A7000991B79E004C0991F961708F0961B881FE0
:101A80007A95C9F780950895EE0FFF1F0590F491A0
:101A9000E02D099410E0C2E6D0E004C0FE010E94EF
:0E1AA000440D2196C336D107C9F7F894FFCF45
:101AAE000100000000006301C300F000B00121013D
:101ABE00FF00130100000000AC03A103BD038A0266
:101ACE009A0372036303000000008B02C300BD0380
:101ADE008A02E702FD0272020D0A00720064000023
:00000001FF
