:020000040800F2
:10000000005000205D520008A5520008A5520008CB
:10001000A5520008A5520008A552000800000000E3
:10002000000000000000000000000000A5520008D1
:10003000A552000800000000A55200083B4500083A
:10004000A5520008A5520008A5520008A5520008B4
:10005000A5520008A5520008F9500008FF500008FA
:10006000055100080B51000811510008A552000865
:10007000A5520008A5520008A5520008A552000884
:10008000A5520008A5520008A5520008A552000874
:10009000A5520008A5520008A552000817510008F3
:1000A000A5520008BD1C0008A5520008D11C00087C
:1000B000D51C0008E91C0008FD1C00080D180008EC
:1000C000191800082518000831180008A552000862
:1000D000A552000809500008215000083D500008B2
:1000E0002D510008A5520008A5520008000000008C
:1000F0000000000000000000000000000000000000
:0C01000000000000000000005FF808F1A3
:10010C00034613F8012B002AFBD1181A013870474B
:10011C0010B5054C237833B9044B13B10448AFF335
:10012C0000800123237010BDA000002000000000FF
:10013C00945E000808B5034B1BB103490348AFF3A9
:10014C00008008BD00000000A4000020945E0008A0
:10015C0010B501211C4C032005F0BAF84FF4FA72CB
:10016C004FF4C471032005F01FFC062220464FF407
:10017C00165105F0BFFA2046144905F047FB144B05
:10018C0014489A6B144CC0F88420DB6B0021C0F827
:10019C00883001F03BF9204600F029FF2046082169
:1001AC0000F075FD20460D4900F03BFE2046012273
:1001BC00022100F07CFE204600F06BFE2046BDE8DC
:1001CC00104000F09FBD00BFCC030020AC5E0008C7
:1001DC005464000898010020C80000200B5F000840
:1001EC000B4A0C4B116801290AD1197002220A4BD7
:1001FC001A700022094B1A700322094B1A707047AF
:10020C005268012A0CBF002202221A70EEE700BFCE
:10021C00BC000020EC000020C6000020F4000020F0
:10022C00F50000200B4B0C481A789200D2B21A70D1
:10023C000A4B19780901C9B219700A4308490378A5
:10024C0009789B01DBB20A4303701343054A137010
:10025C00704700BFC6000020F5000020F40000200D
:10026C00EC000020C700002010B5294C294920467D
:10027C0005F0B2FA284B0A221978204605F01EFB2D
:10028C002046264905F0A8FA254B0A221978204663
:10029C0005F014FB2046234905F09EFA224B0A2256
:1002AC001978204605F00AFB2046204905F094FAFF
:1002BC001F4B0A221978204605F000FB20461D49E9
:1002CC0005F08AFA1C4B0A221978204605F0F6FA3A
:1002DC0020461A4905F080FA194B0A221978204653
:1002EC0005F0ECFA2046174905F076FA164B0A226F
:1002FC001978204605F0E2FA2046144905F06CFA0C
:10030C00134B2046BDE810400A22197805F0C1BAFB
:10031C00CC030020B55E0008C7000020BB5E0008BF
:10032C00EC000020C15E0008C6000020C75E00087B
:10033C00F4000020CD5E0008F5000020D35E00081C
:10034C00C4000020DF5E0008C5000020E75E000846
:10035C00ED00002008220A21014B024800F080BC6D
:10036C0080969800C8000020002370B5154D0446F7
:10037C0045F82030144B012253F82010134800F09C
:10038C0087FF124E304600F044FE28B1304600F094
:10039C0044FE45F82400F5E70D490E4805F01CFA1B
:1003AC000A2221460B4805F072FA0B49094805F060
:1003BC0013FA55F824100A22BDE87040054805F0E0
:1003CC0068BA00BFBC00002000000020980100208B
:1003DC00EF5E0008CC030020FC5E0008F8B5052099
:1003EC0005F012F80020FFF7BFFF052005F00CF810
:1003FC00234E0120FFF7B8FF052005F005F8FFF7A5
:10040C00EFFEFFF70FFF33781E4D1F4F33BB01225A
:10041C001E491F4800F0DAFC1E4B0446187098B1B8
:10042C0001242C7004F0EEFF34703860FFF71CFFD1
:10043C002B78012B23D1BDE8F8404FF4FA724FF41E
:10044C00C471032005F0B0BA04F0DCFF3B68C01A9D
:10045C0044F620639842E9D92C70E7E701230B4955
:10046C001A460B4800F0B2FC04F0CCFF3B68C01AF3
:10047C0042F21073984284BF00233370D6E7F8BD64
:10048C00C5000020C4000020F0000020C7000020A0
:10049C00C8000020ED000020342970B504460FD9A7
:1004AC0001F0C003C02B27D1CD2925D8134B01F067
:1004BC003F0053F82000124B53F8203001331BD06F
:1004CC0000230C2505FB03F6A65FD8B2B1420DD074
:1004DC000133042BF6D1012A0CD100230C2505FB8A
:1004EC0003F2A65ED8B2013601D1A15270BD013320
:1004FC00042BF4D11846F9E70420F7E71C64000834
:10050C005464000870B503464FF6FF7201250024B1
:10051C000C4E00F130011A805E601D725C720C335F
:10052C008B42F8D1084B02861A6BC0F89020DA6A1D
:10053C00C0F894205B6BC0F898304FF0FF33C0F8D4
:10054C009C3070BD00093D005464000870B5012258
:10055C0005460E46FFF7A0FF032804461BD8342E91
:10056C000BD0D5F89C30013307D10121304604F073
:10057C00AFFE0121304604F009FF0C20002300FBE4
:10058C00045485F88530627A237A616805F1340069
:10059C0000F0EEF82E8670BD82B0F8B506AC84E89B
:1005AC000C00012205460E46FFF776FF0328044691
:1005BC0023D80C2707FB0057079BBDF820207B6036
:1005CC009DF82230342E3A81BB720BD0D5F89C307A
:1005DC00013307D10121304604F07AFE0121304667
:1005EC0004F0D4FE0C2000FB04547968237A627A60
:1005FC0005F1340000F0BCF82E86BDE8F84002B0DE
:10060C00704700003429F0B51AD803464FF6FF7432
:10061C0001260027134D00F13002B3F900C00C3352
:10062C008C4501BF23F80C4C43F8085C03F8046CB0
:10063C0003F8037C9342F0D14FF6FF730386F0BDB1
:10064C0001F0C003C02BF7D1CD29F5D8064B01F032
:10065C003F0253F82220054B53F822300133D4D1FA
:10066C00EAE700BF00093D001C6400085464000860
:10067C002DE9F04186B08DF80F20002204460D467E
:10068C001F468DF81720FFF707FF0328064604D9ED
:10069C009DF8170006B0BDE8F081B4F9303004F1D4
:1006AC0034089D4209D00C2000FB0640037A427AA4
:1006BC004168404600F05CF82586342D07D0D4F80C
:1006CC009C30013303D10021284604F05FFE0C203E
:1006DC0000FB0646B37A404601934FF47A730DF152
:1006EC00170200930DF10F01012300F071F9342D65
:1006FC00CED0012FCCD1D4F89C300133C8D139469F
:10070C00284604F043FEC3E70148FFF7FBBE00BFD9
:10071C00F800002091FAA1F3B3FA83F370B50D0E33
:10072C000F2691FAA1F1B1FA81F144599B0006FA16
:10073C0003F3890024EA030402FA01F12143415135
:10074C0070BD00000346074A10684BB1064A93423D
:10075C0001D103F08BB8054A934201D103F076B86E
:10076C00704700BF300000200030014000380040CE
:10077C002DE9F74F0D46174698460446002800F021
:10078C00D3808A49006E04F039F989498146E06DBD
:10079C0004F034F987498246606E04F02FF98649DB
:1007AC000646A06E04F02AF98346B9F1000F00F05A
:1007BC00BB80BAF1000F00F0B780002E00F0B480BF
:1007CC005146484604F031F959468246304604F009
:1007DC002CF901468146504604F027F9A065BAF180
:1007EC00000F00F0A180B9F1000F00F09D800028EF
:1007FC0000F09A80A36E20605A1C14BF4FF4802323
:10080C004FF40073A3614FF482736360FFF79AFF98
:10081C00B5EB500FC0F08B800023002617F0FD0FB6
:10082C00E3610CBF33460123022F636134BF3346AF
:10083C00022323610723B045E36214BF33468023B0
:10084C005A49C4E90836206EA660A662E66004F038
:10085C00BDF85749E06D04F0B9F85649606E04F0E4
:10086C00B5F82369B342636E08BF0225C3F30312C4
:10087C0018BF0125042A8CBF3046504903F00F03E2
:10088C0098BF51F822004E4A022D52F8231091FACB
:10089C00A1F24FEA1163C658B2FA82F34FEA83020F
:1008AC004FF00F0303FA02F391FAA1F2B2FA82F2BB
:1008BC0003EA06034FEA820223FA02F34FEA1125F8
:1008CC0054D0042B02D10822FFF724FFC268012365
:1008DC0022EA050295FAA5F5B5FA85F503FA05F5B0
:1008EC001543C5603449A06E04F070F82368354A8E
:1008FC00934244D1344B9A6942F480529A619A697A
:10090C0002F480520092009ADA6842F48052DA6063
:10091C00DA6822F48052DA60204603F050F822683C
:10092C00136843F04003136003B0BDE8F08FB5EBE0
:10093C00900F01D3082370E7B5EBD00F01D3102330
:10094C006BE7B5EB101F01D3182366E7B5EB501F0F
:10095C0001D3202361E7B5EB901F01D328235CE77B
:10096C00B5EBD01F2CBF3023382356E7042B02D114
:10097C000822FFF7CFFEC36823EA0505B1E7134A47
:10098C009342C9D1104BDA6942F48042DA61DA69D8
:10099C0002F480420192019A1A6942F480421A616F
:1009AC001A6922F480421A61B6E700BF5060000851
:1009BC002060000880600008B0600008140000206F
:1009CC00685F000800300140001002400038004011
:1009DC002DE9F047DDF820800C4615461E469DF8A3
:1009EC00249073B1B8F1000F2CD0076801F052FAC3
:1009FC0082462644A6420BD10020BB681B06FCD4C1
:100A0C0004E0B8F1000F0CBF01200220BDE8F08714
:100A1C00BB689907FCD514F8013B3B73B9F1000F87
:100A2C0005D1BB68DA07FCD53B7B05F8013BB8F177
:100A3C00FF3FDFD001F02EFAA0EB0A004045D9D3DE
:100A4C000120DAE70120E1E713460A463421FFF7DB
:100A5C000FBE000010B50446C08804F097FC074B8D
:100A6C00074A1B680749B3FBF2F3226A48685343F1
:100A7C004A68121A9342FBDC10BD00BF3000002004
:100A8C0040420F00001000E003468088DB88834260
:100A9C0001D004F07BBC704730B5836887B00493F9
:100AAC00002501230446ADF814308DF81650059B33
:100ABC00342100930068DDE90323FFF76DFD29461F
:100ACC00204607B0BDE83040FFF7C4BF10B5044660
:100ADC000121FFF7BFFF20683421BDE81040FFF76C
:100AEC0091BD70B504460E461546FFF7D5FF46F08E
:100AFC00200101222068FFF7A7FF0122207329465D
:100B0C002068FFF7A1FF2046FFF7E0FF70BD38B566
:100B1C0004460D46FFF7C0FF294601222068FFF767
:100B2C0093FF0122FF2120732068FFF78DFF0546FC
:100B3C002046FFF7CBFF284638BDF8B504460F46D4
:100B4C0015461E46FFF7A8FF0122206847F020013A
:100B5C00FFF77AFF2E442073B54206D0012215F818
:100B6C00011B2068FFF770FFF6E72046FFF7AEFF8A
:100B7C00F8BD38B504460D4663B1FFF78DFF012271
:100B8C00206845F02001FFF75FFF20732046FFF738
:100B9C009DFF38BDBDE83840FFF7A3BF2DE9F041FC
:100BAC009846037E06460F461546C3B9447BA242BF
:100BBC0028BF2546641BE4B23046FFF76DFF0122C7
:100BCC0041463068FFF740FF3D443073AF420DD0D3
:100BDC00012217F8011B3068FFF736FFF6E7B2FA6F
:100BEC0082F4202A28BF20256409E5E73CB10122C4
:100BFC0000213068013CFFF727FFE4B2F6E73046EE
:100C0C00FFF764FFBDE8F08110B504460123FF2215
:100C1C00E221FFF7AEFF207B10BD10B50446012387
:100C2C00FF22E121FFF7A5FF207B10BDFF2210B5AD
:100C3C00044601231146FFF79CFF207B10BD0000EA
:100C4C00054B826803600023837348F6B8039A420D
:100C5C009CBF024B83607047F80000208096980080
:100C6C008360202343730023C280838201220523E7
:100C7C0010B58180C37502760362FFF7E1FF10BDEA
:100C8C007D290A4628BF7D220521FFF72ABF20298E
:100C9C0028BF2021012938BF012138B50546112470
:100CAC0041732146013428466A7BE4B2FFF719FFF1
:100CBC00172CF6D138BD4FF6FF7382889A4204D0B8
:100CCC00C088C01A18BF012070470020704738B583
:100CDC000446FFF7F0FF054690B1A088E3888342F5
:100CEC0006D0012104F0F4FA0121E08804F0F0FAB6
:100CFC0000212046FFF7C8FE01212046FFF7AAFE7F
:100D0C00284638BD002110B50446FFF7BDFE134B35
:100D1C00134A1B681349B3FBF2F3E2694868534367
:100D2C004A68121A9342FBDCA37D13B12046FFF7ED
:100D3C0074FFE27C204602F0FE02E2740021FFF711
:100D4C00D0FE02212046FFF7E2FE40F00102022114
:100D5C002046BDE81040D2B2FFF7C3BE30000020E1
:100D6C0040420F00001000E008B5C27C12F00201F6
:100D7C0012D142F00202C274FFF7B3FE074B084ACD
:100D8C001B680849B3FBF2F341F2883253434868BD
:100D9C004A68121A9342FBDC08BD00BF30000020E9
:100DAC0040420F00001000E038B5002B9DF81050A9
:100DBC0014BFB023A0230446FFF7F0FE2DB120464C
:100DCC00BDE838400121FFF75FBE38BD73B5012483
:100DDC0000940546FFF7E8FF04F014FB064628468E
:100DEC00FFF724FF10F0300409D104F00BFB831B38
:100DFC005F2BF4D901236B76002002B070BD00216B
:100E0C002846FFF741FE702207212846FFF769FEAE
:100E1C002B7BDB0603D52846FFF7FFFEECE7012012
:100E2C00EBE770B504460D460A46C37D0A21FFF771
:100E3C0084FE2A462046E37D1021BDE87040FFF772
:100E4C007CBE8A1E12F0FF0238B5054608D002F0AF
:100E5C000304224603210234FFF743FEEC7538BD30
:100E6C000321FFF73EFE0223EB75F8E710B50446AD
:100E7C00FFF712FE012250212068FFF7E5FD012249
:100E8C00207373212068FFF7DFFD2046FFF71EFE5D
:100E9C0010BD10B51D210446FFF739FE40F00102CC
:100EAC001D212046BDE81040D2B2FFF71ABE70B526
:100EBC000D46062106461446FFF729FE032D28BFD2
:100ECC00032500F0F80304EB45021A433046BDE855
:100EDC0070400621D2B2FFF704BE70B50E46062153
:100EEC000446FFF714FE022E00F0D70510D19B2309
:100EFC002022E36115432A4620460621FFF7F1FD27
:100F0C0006212046FFF703FE431B5842584170BD93
:100F1C00012E15BF552341230022082214BFE36183
:100F2C00E361E7E738B50446052004F06DFA5F226B
:100F3C0004212046FFF7D5FD00212046FFF7CDFF09
:100F4C001D212046FFF7E3FD05462046FFF78EFFE7
:100F5C001D212046FFF7DBFD2A1A5342534123750E
:100F6C0048B1854202D12046FFF780FF00221D21A7
:100F7C002046FFF7B6FD002520462A461C21A57504
:100F8C00FFF7AFFD20463F2201212576FFF7A9FD93
:100F9C00032220460221FFF7A4FD20462021FFF763
:100FAC0076FE20460521FFF74CFF20464C21FFF72B
:100FBC0067FE702207212046FFF793FD2046FFF7BE
:100FCC0023FE2046FFF729FE0C2229462046FFF778
:100FDC0088FD29462046FFF79AFDE0742046FFF76E
:100FEC00C3FEE07CA0F10E035842584138BD10B549
:100FFC00044634210068FFF7A9FA2046FFF767FE84
:10100C0020B12046BDE81040FFF78CBF10BD00207A
:10101C007047028BC08A101A70470346C28A018B34
:10102C00914281BF0169885C0132DA8298BF4FF02E
:10103C00FF307047028BC38A9A4286BF0269D05C2C
:10104C004FF0FF307047826DD2F8C43013B10021DD
:10105C00518418477047000000214FF47A72C0E9A0
:10106C000112054A0260054A916BC0F88410D26BDC
:10107C00C0F88820704700BF1C5F0008546400084B
:10108C0038B5838A05468B420C4609D2202938BFD5
:10109C0020240069214604F04BFE10B12861AC827B
:1010AC0038BDFEE770B5846D0546D4F8C830866E41
:1010BC00B3B1E28A238B9A4212D331462046FFF712
:1010CC00DFFF3246206905F1740104F03FFD002377
:1010DC003046E3822683D4F8C830BDE87040184708
:1010EC0070BDB1F5806F70B505460C4610D8038CF9
:1010FC008B420AD220290E4638BF2026C0693146C1
:10110C0004F016FE18B1E8612E84204670BDFEE78F
:10111C000024FAE713B590F8243004468DF8071034
:10112C007BB1418C0131FFF7DCFF40B10120638CB6
:10113C009DF80710E269D154638C0133638402B0CB
:10114C0010BD01220DF10701283000F02DFAB0FA84
:10115C0080F04009F3E770B590F8243004460E4651
:10116C00154683B1418C1144FFF7BBFF88B1638CEA
:10117C00E0692A461844314604F0E8FC638C2B44A1
:10118C006384284670BD92B2283000F00DFA002816
:10119C00F7D00025F5E70346C06918B100211A8C79
:1011AC0004F0E2BC704738B50446D1B94FF42A03B9
:1011BC00A36594F8BE30012B16D1638CE269A17E35
:1011CC0004F1280000F061FA042828BF042045B27D
:1011DC002046FFF7E0FF0023638484F82430E8B254
:1011EC0038BD4FF02A43E3E70425F8E72DE9F04733
:1011FC0090F8BEA00446BAF1010F0F46154698466A
:10120C009DF820609DF8249037D111467F00FFF7A0
:10121C0037FFFFB2C6B10023032E28BF032684F884
:10122C0024A0A7766384013EF6B2FF2E08D0236873
:10123C00F10028FA01F120461B68C9B29847F2E781
:10124C0000212046FFF7AFFFB9F1000F12D14FF488
:10125C002A03A3653946ABB2226904F1280000F0D9
:10126C00BDF9002818BF002500232583E3822846FA
:10127C00BDE8F0874FF02A43EBE70025F7E707B509
:10128C00019300230093FFF7B1FF03B05DF804FB5B
:10129C000123D2B2C9B2FFF7F2BF002110B5044648
:1012AC00C1820183006910B1A28A04F05DFC0023A5
:1012BC0020466384FFF76FFF10BD00002DE9F84353
:1012CC000446D0F8840003F0E9FF002104F000F894
:1012DC00D4F88420C2F30313042B49D8284D294E8B
:1012EC0055F8233002F00F029B6856F82220DB439E
:1012FC0003EA12239BB2002B40D0D4F8880003F0F1
:10130C00CDFF012103F0E4FF1F4B204A1B6814277B
:10131C00B3FBF2F30A225343D4F88800DFF870E0F1
:10132C00C0F3031100F00F0C042924D856F82C201C
:10133C0055F82180C2F30F22C8F81420DEF804906F
:10134C00DEF80440A4EB0904A342F9DCC8F8102031
:10135C00DEF80440DEF80420121B9342FADC013F55
:10136C00E2D103F09BFF3946BDE8F84303F0B0BF70
:10137C0000239B68FFDE00235B61FBE7BDE8F8837D
:10138C0014000020685F00083000002040420F006D
:10139C00001000E038B500250446C0E90455C0E94A
:1013AC00075505838576C0F8C45080F824504D004D
:1013BC0080F825504D1E6942694180F8BE1080F8B6
:1013CC00BF2080F8C030C0F8800004F12805FFF77A
:1013DC0075FF94F825304FF480422846084900F0F8
:1013EC0021F894F8BE304BB92846064900F094F920
:1013FC002846BDE83840044900F087B938BD00BF25
:10140C00A086010053100008B11000080A46002302
:10141C000121FFF7BFBF00000148FFF71DBE00BF51
:10142C00980100202DE9F7430D4616461F46044649
:10143C00002800F0A5805449C06D03F0DFFA534931
:10144C008046206E03F0DAFA0146B8F1000F00F086
:10145C009780002800F09480404603F0E6FA206064
:10146C00002800F08D804A4B04F10408984265D1A5
:10147C0003F5DE33DA6942F40012DA61DA6902F458
:10148C0000120092009A1A6942F400121A611A6949
:10149C0022F400121A6142F21F03A4F864303D4B8F
:1014AC00C3F800803949206E03F090FAE06D36499C
:1014BC0003F08CFA384823688542636006D93748B4
:1014CC00854203D93648854288BF00204FF0000979
:1014DC0094F8973030494A468D428CBF4FF4804582
:1014EC004D464B450CBF4B464023236294F8983035
:1014FC0002214B450CBF4B468023A060636294F9DC
:10150C006400C4E90357C4E90569C4F81C9084F865
:10151C00419000F0D7FC94F9640000F005FD4A46B8
:10152C00022194F9650000F0CDFC94F9650000F0FF
:10153C00FBFC404600F0FCFDF0B1FEE7194B984275
:10154C00B0D103F5DC33DA6942F48002DA61DA698E
:10155C0002F480020192019A1A6942F480021A6123
:10156C001A6922F480021A6142F22123A4F8643031
:10157C00084BC3F8048095E70223A06684F89530E5
:10158C0003B0BDE8F08300BFF05F0008C05F000847
:10159C000054004064020020A0860100801A06005E
:1015AC0040420F0000580040202A30B514D80023C8
:1015BC009CB2A24207D890F894301A44D2B280F868
:1015CC009420002030BD90F89440CD5C1C44044421
:1015DC0084F874500133EBE70120F3E72DE9F34174
:1015EC0005460C469846174600F054FC2B6B043508
:1015FC0021460093064643463A46284600F05CFFD7
:10160C00044650B1002002B0BDE8F08100F042FC6D
:10161C00841B284601F0A5FE30B9284601F09EFE39
:10162C00202801D0632CF1D9284601F09AFE632CB6
:10163C0007D8820605D4430705D40028E2D004203D
:10164C00E1E70520DFE70320DDE710B5642304465E
:10165C00043000F015FE02280AD0032801D068B926
:10166C0010BD94F84130202B0CBF02200520F7E769
:10167C0094F84130202B18BF0620F1E794F8413044
:10168C00202B0CBF02200420EAE72DE9F34105468C
:10169C000C4690461F4600F0FDFB06463FB9012262
:1016AC002146284602B0BDE8F041FFF7CEBF2B6BB8
:1016BC0004352146009342463B46284600F092FEF4
:1016CC00044650B1002002B0BDE8F08100F0E2FB0E
:1016DC00841B284601F045FE30B9284601F03EFE39
:1016EC00202801D0632CF1D9284601F03AFE632C56
:1016FC0007D8820605D4430705D40028E2D004207D
:10170C00E1E70520DFE70320DDE720B119B1C16671
:10171C00043000F0CFBF704720B119B1016704301D
:10172C0000F0C8BF70472DE9F04190F891300446A5
:10173C00012B0D461746A0F1040609D1436E3BB1AF
:10174C00836E30469847022384F8913000236366F9
:10175C00E3689F4220D18DB9E36E84F891501BB1A0
:10176C00304684F890509847204694F8902004F125
:10177C0070012023BDE8F04100F026BF00230122B8
:10178C00636684F89120616E2046743131440423E1
:10179C00BDE8F04100F053BFBDE8F08110B590F802
:1017AC0091300446012B04D1436E13B1836E04387F
:1017BC009847022384F89130002320466366BDE8E5
:1017CC00104000F077BF436E1F2BDEBF436E01331A
:1017DC00436690F89130012BDAB205D1416E0423A7
:1017EC000144703100F02BBF7047002380F890301B
:1017FC00704790F892300BB900F05CBF7047000056
:10180C00014B186801F0D0B864020020014B186835
:10181C0001F006BD64020020014B586801F0C4B809
:10182C0064020020014B586801F0FABC64020020ED
:10183C0003460A4910B508680344EFF30882934243
:10184C0005D90C224FF0FF30054B1A6010BD054A2C
:10185C00054C121B9342F4D20B60F7E708000020F2
:10186C00000500200050002000040000FEE70000EE
:10187C001622024B4FF0FF301A6070470005002013
:10188C0001207047836810B504462BB10322014632
:10189C0098470023C4E9023310BD836810B5044691
:1018AC0013B1032201469847204610BD10B50446DB
:1018BC0050F8103FDA6822F00102DA60DA6822F0A0
:1018CC000202DA60DA6822F00402DA60DA6822F0E6
:1018DC000802DA60DA6822F01002DA6002F0EEF840
:1018EC002269136823F001031360012384F84E303E
:1018FC0084F84F3084F8503084F8513084F85230EA
:10190C0084F8533084F8543084F8553010BD4B1E95
:10191C00032B9ABF880004384FF0FF30704700004B
:10192C000139435C2BB1022907D8054B33F8110060
:10193C007047032901D8034BF8E74FF0FF3070478D
:10194C00405F0008465F0008013903299ABF024B2B
:10195C00585C4FF0FF3070474E5F00080139032987
:10196C009ABF024B58564FF0FF307047525F000839
:10197C00F8B50446FFF7CBFF0246501C0E4600D1CB
:10198C00FEE72046FFF7E0FF411C054600D1FEE7CD
:10199C0031462046FFF7C4FF013000D1FEE7B71DEA
:1019AC0004EB0717BB682BB1E94323691961D868AD
:1019BC000543DD60731E04EB430189880C293FD875
:1019CC00DFE801F04646141414070714143F3F3F98
:1019DC002100E35C114604F110001BB1BDE8F84096
:1019EC0002F0B4BABDE8F84002F0F6B9E35C114677
:1019FC0004F110001BB1BDE8F84002F05BBABDE881
:101A0C00F84002F097B9114604F1100002F0E6F923
:101A1C0031462046FFF7A2FF014605462046FFF758
:101A2C007FFF2269136A1843BB68106243B12946D1
:101A3C002046FFF789FFC3431361D3681843D06076
:101A4C00F8BD04F110001146BDE8F84002F0C6B92B
:101A5C0023691B68DB07F3D404F11000BDE8F840E0
:101A6C0002F006B8836E10B5044653B16FF0010254
:101A7C0050F8103F1A61DA6842F00102DA6001F0A6
:101A8C00F7FF20460121FFF773FF20460221FFF7E5
:101A9C006FFF20460321FFF76BFF2046BDE8104087
:101AAC000421FFF765BF0121103002F01BB8036958
:101ABC0010B51B680C46DA070FD4CB68DB070DD5C5
:101ACC00CB6823F00103CB60FFF7EDFF6FF0010350
:101ADC002361E36843F00103E36010BDBDE81040EF
:101AEC00FFF7E1BF0C4A034690420ED0B0F1804F95
:101AFC000DD0A2F5943290420BD04FF6FF7002F548
:101B0C008062934208BF0320704700207047012079
:101B1C0070470220704700BF002C0140014670B591
:101B2C00044651F8100FFFF7DDFF0546084602F09A
:101B3C00F3FF0023084A04F1600642F82530E36005
:101B4C0004F1B005B54204D0103D2846FFF7A5FEC0
:101B5C00F8E7204670BD00BF6C020020F8B50446C3
:101B6C000846FFF7BFFF4FF6FF73984200D1FEE720
:101B7C00236903B1FEE71C4D04F10C0245F820204B
:101B8C000E2204F110063046C4E90C33C4E90E33BE
:101B9C00C4E91033C4E91623216184F82C30A36402
:101BAC0084F84C3084F84D30E46002F071FF04F19D
:101BBC00600504F1B00728461035FFF763FEBD42FF
:101BCC00F9D100234FF6FF72C4E90033C4E90632A1
:101BDC00C4E90833A360636180233046A362BDE887
:101BEC00F84002F06DB800BF6C020020002310B565
:101BFC00044683668367C0F88830C0F89830C0F814
:101C0C00A8300361FFF7AAFF204610BD10B586B0BF
:101C1C0014220446002101A803F0A6FF0023694604
:101C2C0001A8009301F032FE206903F00BF80128A3
:101C3C0002D002280FD0FEE7049C01F007FEB4F599
:101C4C00C06F05D00BD824F48074B4F5806F00D12C
:101C5C00400006B010BD059C01F008FEEFE7B4F59E
:101C6C00E06FF4E7012A38B505460C460BD0022A82
:101C7C0016D004B1013C29692846CC62EC61BDE860
:101C8C003840FFF714BFFFF7C1FF0849B0FBF1F074
:101C9C0044432B69210C99620131B4FBF1F4E8E760
:101CAC00FFF7B4FFB0FBF4F4F3E700BF40420F00C2
:101CBC00034B186810B1043001F028BF704700BF07
:101CCC006C020020FFF7F4BF034B586810B10430CE
:101CDC0001F01CBF704700BF6C020020034B9868DA
:101CEC0010B1043001F012BF704700BF6C0200202D
:101CFC00034BD86810B1043001F008BF704700BF27
:101D0C006C02002038B5002383608B6804460D46B6
:101D1C002BB102229847EB68E360AB68A3602046C6
:101D2C0038BD30B587B002AD04462846FFF7EAFF50
:101D3C0095E803006B4683E8030094E8030085E80C
:101D4C00030093E80300049BA268A360059B049224
:101D5C00E26884E80300E36028460592FFF79DFDE6
:101D6C0007B030BD38B50446A36E0D4660301BB1CC
:101D7C00BDE83840FFF7D5BFFFF7D3FFAB683BB1E9
:101D8C006FF0010223691A61DA6842F00102DA602D
:101D9C0038BD826810B50AB904F072F8C368BDE8A2
:101DAC001040184708B500B9FEE702F06FFE006856
:101DBC00836E13B16030FFF7ECFF08BDFFF7F2BF85
:101DCC0010B500B9FEE7037F013B072B10D8DFE805
:101DDC0003F014040F100F0F0F12022402F056FE22
:101DEC000068063400EB041083680BB1FFF7D1FFD9
:101DFC0010BD0324F2E70424F0E70124EEE7FFF71B
:101E0C00DFBFFFF7DDBF03F091BE03F097BE704755
:101E1C0038B50E4B054618784FF47A73B3FBF0F3D4
:101E2C000B4A1068B0FBF3F000F0A0F8044658B968
:101E3C000F2D09D8024629464FF0FF3000F042F82A
:101E4C002046044B1D6038BD0120FCE70C0000202F
:101E5C003000002010000020074A08B5136803204A
:101E6C0043F01003136000F01BF80020FFF7D0FFC5
:101E7C00FFF7CDFF002008BD00200240034A044BB1
:101E8C0011681B780B441360704700BF7C02002064
:101E9C000C000020014B1868704700BF7C0200202A
:101EAC0007490302CA6803F4E06322F4E0621204F7
:101EBC00120C134343F0BF6343F40033CB60704701
:101ECC0000ED00E0164B30B5DC68C4F30224C4F11D
:101EDC000703251D042B28BF0423062D4FF0FF35C7
:101EEC0098BF002405FA03F388BF033C21EA0303DF
:101EFC00A34005FA04F422EA0402002843EA020390
:101F0C00ACBF00F16040074A4FEA0313DBB2ABBF32
:101F1C0000F5614000F00F0080F80033135430BD21
:101F2C0000ED00E014ED00E0002808DB012342097D
:101F3C0000F01F0003FA00F0014B43F82200704739
:101F4C0000E100E000280DDB0122430900F01F0036
:101F5C0002FA00F0044A203342F82300BFF34F8FFB
:101F6C00BFF36F8F704700BF00E100E00138B0F1A4
:101F7C00807F0BD24FF0E023F021054A586182F8A4
:101F8C0023100020072298611A61704701207047C6
:101F9C0000ED00E0002809DB0122430900F01F00DE
:101FAC0002FA00F0024A603342F82300704700BF87
:101FBC0000E100E0704708B5FFF7FCFF08BD704773
:101FCC0010B5044650B1437903F0FF0213B9027106
:101FDC00FFF7F5FF01230020637110BD0120FCE722
:101FEC0090F82130022B06D004238363002380F861
:101FFC0020300120704703681A6822F00E021A6024
:10200C001A6822F001021A600123D0E90F218B40DB
:10201C0053604FF4807303840020704708B590F828
:10202C002130022B03D004238363012008BD0368F5
:10203C001A6822F00E021A601A6822F001021A6065
:10204C00174A93421CD0143293421BD01432934241
:10205C001AD0143293421AD0143293421AD014323A
:10206C0093420CBF4FF480134FF080730D4A5360B2
:10207C004FF480730384436B7BB198470020D5E702
:10208C000123F3E71023F1E74FF48073EEE74FF4ED
:10209C008053EBE74FF48033E8E71846C6E700BF00
:1020AC00080002400000024090F821007047000038
:1020BC00044A08B55169014202D0506103F000F89E
:1020CC0008BD00BF000401402DE9F84606460F4646
:1020DC0091461D464FEA114A3368BAF1010F0CBF05
:1020EC005C699C6927EA0404A4B2B4FA84F4640918
:1020FC00A14501D0002017E06A1CEED0FFF7CAFE04
:10210C00089BC01AA84201D8002DE5D1002320223B
:10211C000120336386F83D2086F83E30326C86F819
:10212C003C3042F020023264BDE8F8867047000073
:10213C0070B5044608B9012070BD90F83D3003F02D
:10214C00FF021BB980F83C20FFF7F0FF242384F832
:10215C003D3023681A6822F001021A601A6842F4B2
:10216C0000421A601A6822F400421A6001F06EFBF9
:10217C003F4A6368934294BF3E4A3F4A90428CBFA9
:10218C0000220122002AD6D1394E3C49B342B0FB81
:10219C00F1F188BF4FF49676226800F1FF30556854
:1021AC0025F03F0545EA010582BF71434FF47A766D
:1021BC00B1FBF6F15560156A013125F03F05294355
:1021CC001162D1692A4D21F44F41AB4221F0FF013C
:1021DC0032D85B00B0FBF3F0431C40F6FC700342BA
:1021EC0042D0C3F30B030B43D3611168D4E907301E
:1021FC0021F0C00103430B4313609168D4E903033E
:10220C0021F40341034321F0FF010B439360D16898
:10221C00D4E9053021F0FF0103430B43D36013686D
:10222C00002043F0010313602023206484F83D3028
:10223C00206384F83E007FE7A56855B903EB4303A0
:10224C00B0FBF3F30133C3F30B037BB143F4004353
:10225C00C9E719256B43B0FBF3F30133C3F30B034D
:10226C0023B143F44043BEE70423BCE70123BAE7A0
:10227C00A08601007F841E00FF083D0040420F0035
:10228C002DE9F04F044685B01E460F469146FFF7E8
:10229C0001FE94F83D300546202B03D0022005B0FA
:1022AC00BDE8F08F00901923012220464C49FFF71E
:1022BC000BFF0028F2D194F83C30012BEED0012317
:1022CC0084F83C3023684FF0010A1A68DFF810B12B
:1022DC00D20758BF1A6807F0FE075CBF42F0010234
:1022EC001A601A6822F400621A60242384F83D30C4
:1022FC0000232364A3F58033E36222684FF00111BD
:10230C001368204643F48073136033460022009513
:10231C00FFF7DAFE236838B11B68DB0502D54FF4F2
:10232C00007323640320BAE71F61FFF7B3FD4FF07E
:10233C00A008054623685A695B69C2F34002C3F3DF
:10234C00802394F83D10A02901D013431DD04FF0E9
:10235C002008236884F83D805A6912F0020F1A682D
:10236C0042F400721A6025D0002203925A6920466A
:10237C0003929B6901220393039B1949192300952E
:10238C00FFF7A2FE88B1012089E7FFF783FD401B10
:10239C00B04200D80EB984F83D8023685A695B6955
:1023AC00C2F34002C3F38023CBE784F83D8084F86A
:1023BC003C0074E76FF4806259465A612046192339
:1023CC0001220095FFF780FE0028DCD10AF1010AFA
:1023DC00CA4592D384F83D8084F83C00D3E700BF13
:1023EC0002001000F7B500240094019490F83D40D1
:1023FC00089D202C02D0022003B0F0BD0468266892
:10240C00B60503D4082D01D0012D1ED146F2A81714
:10241C00284E3668B6FBF7F619277E430196019EC7
:10242C00013E0196019E6EB92023066380F83D3073
:10243C0080F83E60036C80F83C6043F0200303643A
:10244C000120D9E7A669B707E9D490F83C60012EC2
:10245C00D1D02668F6075EBF266846F001062660D6
:10246C00266826F400662660212680F83D6010263A
:10247C0080F83E60002606644385438DC562416446
:10248C000385036B42620093009B112B05D1B5F5BC
:10249C002A0F02D0B5F12A4F03D1236843F480737D
:1024AC002360002380F83C306268184642F4E062F6
:1024BC006260A1E730000020F7B50024009401947D
:1024CC0090F83D40089D202C02D0022003B0F0BDB6
:1024DC0004682668B60503D4082D01D0012D1ED141
:1024EC0046F2A817374E3668B6FBF7F619277E4327
:1024FC000196019E013E0196019E6EB92023066352
:10250C0080F83D3080F83E60036C80F83C6043F00E
:10251C00200303640120D9E7A669B707E9D490F832
:10252C003C60012ED1D0012680F83C602668F6076D
:10253C005EBF266846F001062660266826F4006613
:10254C002660222680F83D60102680F83E6000262A
:10255C0006644385438DC56241640385036B426207
:10256C000093438D9BB2022B25D1202D01D0102D31
:10257C0021D1009B122B23681ED14FF4407123F400
:10258C0080632360236843F400632360009B122B59
:10259C0005D1B5F52A0F02D0B5F12A4F03D1236826
:1025AC0043F480732360002380F83C306268184643
:1025BC000A4362608AE7236843F480634FF4E06166
:1025CC002360E3E73000002037B590F83D4004F07D
:1025DC002804282C31D100292DD0002A2BD090F89A
:1025EC003C40012C29D005682C68E4075EBF2C68A0
:1025FC0044F001042C602C6824F400642C60292421
:10260C0080F83D40202480F83E400024046442853C
:10261C00428DC36201946B6941620193AB6902857F
:10262C0080F83C4020460193019B6B6843F4E063C7
:10263C006B6003B030BD0120FBE70220F9E737B532
:10264C0090F83D4004F02804282C31D100292DD0DD
:10265C00002A2BD090F83C40012C29D005682C681E
:10266C00E4075EBF2C6844F001042C602C6824F451
:10267C0000642C602A2480F83D40202480F83E40E1
:10268C00002404644285428DC36201946B694162EB
:10269C000193AB69028580F83C4020460193019B75
:1026AC006B6843F4E0636B6003B030BD0120FBE763
:1026BC000220F9E790F83D30202B14D1282380F824
:1026CC003D30036800201A68D2075EBF1A6842F0DA
:1026DC0001021A601A6842F480621A605A6842F465
:1026EC0040725A60704702207047704770477047BD
:1026FC0090F83D2008B5036DD2B283B9C36C026863
:10270C00012B836C05D1DBB21361036D02330365BE
:10271C0008BDC3F307231361036D0133F7E7036DA2
:10272C00012B03D1836C0268DBB2F4E7036D022B3F
:10273C00EED1222A05D10268136843F4807313602A
:10274C00EAE7438D9BB263B1212A0AD1436A02683E
:10275C0013F8011B11614362438D013B9BB243850E
:10276C00D6E7438D9BB2002BD2D1212AD0D102685F
:10277C00516821F4E0615160116841F400711160FD
:10278C002022036380F83D2080F83E30FFF7AFFF36
:10279C00BEE7704770470000002337B546F2A8111A
:1027AC0001932C4B406A1B6890F83D20B3FBF1F36E
:1027BC0023214B4301930368D2B2019941BB016CB5
:1027CC0041F020010164446B0CB10021A162816BCA
:1027DC0009B100258D621D6825F480651D600025FA
:1027EC00458504B1656301B14D63196821F00101A0
:1027FC00196090F83D10602911D1202380F83D30EC
:10280C00002380F83E300364FFF7C4FF03B030BDF3
:10281C0001990139019119688905CED4D3E702F0E9
:10282C002802282A0ED1196841F001011960196893
:10283C0041F4806119600023036380F83D20FEF7AA
:10284C00D8FFE3E7202380F83D30002380F83E30AA
:10285C00F5E700BF3000002010B590F83D2090F84F
:10286C003E300446102BD9B2D2B2036801D04029B5
:10287C0013D1222A11D1196821F400611960596809
:10288C0011F4006106D1602A1EBF202284F83D207D
:10289C0084F83E100022226307E002F02801282968
:1028AC00EDD10022226384F83D105A6812F40062C4
:1028BC004FD05A68606B22F400625A6090F8213055
:1028CC00012B374B2BD04363FFF7A8FB50B1226889
:1028DC00606B136823F001031360202384F83D30F0
:1028EC00436B9847236C19071FBF2268536823F466
:1028FC00E063536094F83D30226CDBB252070DD587
:10290C00282B0BD1274B2022E36200232046236384
:10291C0084F83D2084F83E30FEF740FF10BDA06BDC
:10292C004363FFF77BFB0028DCD023685A69510610
:10293C0005D51A69636A1A70636A01336362226887
:10294C00A06B136823F001031360202384F83D303F
:10295C00C6E794F83D10602915D1202184F83D106C
:10296C0022645A69520605D51A69636A1A70636A39
:10297C000133636222682046136823F0010313605D
:10298C00FFF708FFAEE75A69500605D51A69636A66
:10299C001A70636A013363622046FEF72AFFA1E7CF
:1029AC00A52700080000FFFFF0B5044603688FB0B0
:1029BC005A68C66A90F83E0094F83D101028C5B2CB
:1029CC00C9B202D0402D40F0CA829F69586910F0FC
:1029DC00010F07D1B6F52A0F02D0B6F12A4F51D10B
:1029EC000FB0F0BD96054DD5E26AB2F52A0F0CD1A9
:1029FC000122E26294F83E20402A11D1226D52B994
:102A0C00626C02F0FE021A61EAE7E26AB2F12A4F46
:102A1C00F0D10822EDE7626C42F00102D2B2F2E78B
:102A2C002269B2F5804F1AD194F83D20212A626CAC
:102A3C0011D102F0FE021A61626B0AB1926A2AB9D4
:102A4C00A26B002ACCD0926A002AC9D05A6842F4F0
:102A5C0000625A60C4E742F00102D2B2EBE7226D89
:102A6C0032B9626CD21102F0060242F0F002CAE7EF
:102A7C00226D012AB4D1626CD21102F0060242F02E
:102A8C00F102C0E7060703D5960501D5626CE4E7B1
:102A9C00860740F1E680960540F1E38094F83E10FD
:102AAC00E26A256B94F83D00C9B2222840F0D1802F
:102ABC00206D40B9402906D100905A6900929B695B
:102ACC000093009B8CE7216D89B92069B0F5404FCC
:102ADC000DD101915A6901929A690192019A1A6871
:102AEC0042F480721A60236D0133236578E7618D9F
:102AFC0089B251B902915A6902929A690292029A68
:102B0C001A6842F400721A6019E0618D89B20129C9
:102B1C0049D112F5803F1BD11A6822F480621A60E9
:102B2C005A6812F400620CD01A6822F480621A609F
:102B3C00002203925A6903929B690393039B00231F
:102B4C00D3E704925A6904929A690492049AD7E7DB
:102B5C00082A1CD0202A1AD0122D0DD1012A16D1E8
:102B6C001A6822F480621A60002205925A69059252
:102B7C009B690593059BE2E7102AF1D8964921FA47
:102B8C0002F2D607ECD51A6842F48062EBE71A68B9
:102B9C0022F480621A60002206925A6906929A699F
:102BAC000692069AACE7618D89B2022933D1102ABC
:102BBC0005D88949D140C94311F0010120D01968C9
:102BCC0041F40061196000210791596907919969D5
:102BDC0007910799196821F48061196059680D05EE
:102BEC00ADD512F5803F06D0511E1F29A7D87B4AC0
:102BFC00CA40D007A3D55A6842F480525A609EE767
:102C0C00186840F4806018600891596908919969B6
:102C1C0008910899E2E7196841F4806119605968D4
:102C2C0009050ED512F5803F07D0013A1F2A08D8A6
:102C3C006A4921FA02F2D20703D55A6842F480524B
:102C4C005A60002209925A6909929B690993099B5F
:102C5C0075E700220A925A690A929B690A930A9BA9
:102C6C00BEE67F0740F18D805E6836053FF5B8AE55
:102C7C000706C0F380063ED550053CD5002E3DD14D
:102C8C0094F83D20258D94F83E10D2B2E06AC9B27A
:102C9C00C5B9212A18D1082858D0202856D010F5AB
:102CAC00803F53D05A6822F4E0625A6011232363A8
:102CBC00002384F83E302023204684F83D30FFF773
:102CCC0014FD8DE6212A05D040297FF489AE222AF5
:102CDC007FF486AE628D92B21AB95A6822F4806281
:102CEC00B7E694F83E20402A16D120460FB0BDE836
:102CFC00F040FFF7FDBC002E3FF472AE97057FF558
:102D0C006FAE212939D1E16A94F83D20212A7FF454
:102D1C0067AE628D92B24AB1626A12F8011B1961F8
:102D2C006262638D013B9BB2638559E608290DD025
:102D3C0020290BD011F5803F08D0596821F4E061AF
:102D4C0059601123236384F83E20B4E75A68204667
:102D5C0022F4E0625A601A6842F400721A6000238E
:102D6C002022236384F83D2094F83E2084F83E30E2
:102D7C00402AA4D1FFF7BBFC32E6402D7FF430AEE5
:102D8C00B3E759680E053FF52BAE4506C0F380013D
:102D9C007BD5500579D500297AD194F83D20222A8B
:102DAC007FF41EAE628D92B2032A19D91A69636A36
:102DBC001A70636A01336362638D013B9BB2638556
:102DCC00638D9BB2032B7FF40BAE2268536823F404
:102DDC008063536004E600BF140001008180008012
:102DEC00E06A02283FF4FCAD012A3FF6F9AD0B91E5
:102DFC0046F2A811724A1268B2FBF1F202EB82029F
:102E0C000B920B9A013A0B920B99D1B9226C20467A
:102E1C0042F0200222645A6822F4E0625A601A6975
:102E2C00636A1A70636A01336362638D013B9BB200
:102E3C006385202384F83D3084F83E10FEF7D9FCDE
:102E4C00CEE51A6812F40072DBD1196821F48061A6
:102E5C001960596821F4E06159601969636A197045
:102E6C00636A01336362638D013B9BB263852023EC
:102E7C0084F83D3094F83E3084F83E20402B68D1E5
:102E8C0022632046FFF785FCAAE500293FF4A8AD94
:102E9C0092057FF5A5ADE26A608D616A80B2042867
:102EAC0009D15A6822F480625A601B690B70636AFC
:102EBC000133636235E7608D80B203280CD158680A
:102ECC00042A20F480605860EFD0022AEDD01A68F2
:102EDC0022F480621A60E8E7608D80B20228E4D1A7
:102EEC00012A01D0102A28D11A6822F480621A60B3
:102EFC001B690B70626A531C6362638D013B9BB24E
:102F0C00638523681B695370636A226801336362AB
:102F1C00638D013B9BB26385536823F4407353600C
:102F2C00202384F83D3094F83E30402B4FF00003C2
:102F3C0084F83E300DD12363A3E7042A01D0022A82
:102F4C0003D11A6842F48062D1E71A6842F4007225
:102F5C00CDE7122320462363FFF7C8FB40E5206C26
:102F6C0008B30025586987072CD596052AD5226CFD
:102F7C0002B19D6994F83D2002F02802282A15D14F
:102F8C005A686FEA950122F480625A6000232F067A
:102F9C00204654BFA289228B01F0010184F83C30F9
:102FAC00FEF7C1FB1CE59D695869DCE700220C9219
:102FBC0059690C919B6984F83C200C930C9B0FE590
:102FCC0030000020C60640F1B180950540F1AE807E
:102FDC0094F83D505A68EDB222F4E0625A60002237
:102FEC000D925A690D921A6842F001021A600D9AFC
:102FFC001A6822F480621A605A68100520D505F010
:10300C00F702222A4AD1A06B0268526892B26285FA
:10301C00628D92B21AB1226C42F0040222645A6898
:10302C0022F400625A60FFF73FF8012808D0A06B29
:10303C00794B4363FEF7F2FF10B1A06B436B9847DB
:10304C00638D9BB213B323685A69510709D51A696A
:10305C00636A1A70636A01336362638D013B9BB2CE
:10306C00638523685A69520609D51A69636A1A700E
:10307C00636A01336362638D013B9BB26385638D2D
:10308C009BB21BB1236C43F004032364236C13B376
:10309C0020460FB0BDE8F040FFF7DEBB606B026866
:1030AC00526892B26285628D92B21AB1226C42F071
:1030BC00040222645A6822F400625A60FEF7F4FF9C
:1030CC000128BDD0606B544B4363FEF7A7FF00286B
:1030DC00B6D0606BB2E72A2D06D123632823204695
:1030EC0084F83D30FEF76FFB94F83D30282B0CD163
:1030FC004A4B2022E36200232046236384F83D20C0
:10310C0084F83E30FEF74AFB6AE4236B222B02D094
:10311C00222D7FF465AC00232022236384F83D200C
:10312C0084F83E302046FEF74EFB59E401F0F701DF
:10313C002129C0F3800535D1070627D5560525D59D
:10314C003DBB94F83D00628DC0B292B2002A3FF4B0
:10315C0047AC626A12F8015B1D616262628D013AD2
:10316C0092B26285628D92B2002A7FF439AC292822
:10317C007FF436AC5A68204622F480625A602823C9
:10318C00216384F83D30FEF730FB29E4002D3FF439
:10319C0027AC95057FF524AC628D92B2002A3FF4E2
:1031AC001FACB9E5400627D5510525D53DBB94F894
:1031BC003D20618DD2B289B200293FF411AC19695E
:1031CC00636A1970636A01336362638D013B9BB25E
:1031DC006385638D9BB2002B7FF402AC2A2A7FF4AB
:1031EC00FFAB2268536823F480635360222323636C
:1031FC00282384F83D3095E7002D3FF4F1AB920580
:10320C007FF5EEAB628D92B2002A3FF4E9AB1A69FE
:10321C00636A1A704BE600BFA52700080000FFFF89
:10322C00F8B5036804465F695E6890F83E20F805BF
:10323C00D2B2C7F300250BD5F105C6F3002507D58F
:10324C006FF4807101255961196841F400411960CE
:10325C00B80506D5F10542BF6FF4007145F00205C3
:10326C005961780536D5F10534D5608D94F83D104B
:10327C00202AD4F830C080B2C9B25BD1002859D111
:10328C0001F0F700212804D0282953D1BCF1210FDB
:10329C0050D194F83D20E16AD2B2082901D02029FE
:1032AC002AD1282A28D12C4A2046E2625A6822F4D4
:1032BC00E0625A606FF480625A611A6822F480628C
:1032CC001A6000232022236384F83D2084F83E30CA
:1032DC00FEF764FA3A053BD5F30539D56FF4006275
:1032EC00236845F008055A61236C20461D4325646C
:1032FC00BDE8F840FFF7B0BA212A17D1164920468D
:10330C00E1622263202284F83D20002284F83E20D2
:10331C005A6822F4E0625A606FF480625A611A684B
:10332C0022F480621A60FEF760FAD3E76FF48062D1
:10333C005A61CFE76FF48061102A596145F004059A
:10334C0001D0402AC6D11A6842F400721A60C1E753
:10335C00002DC9D1F8BD00BF0000FFFF90F83D0063
:10336C007047006C704700002DE9F341054638B3F7
:10337C000368DB0710D42B689F075ED42B681907F2
:10338C0000F195802B685A0700F1C180E86900288C
:10339C0040F02C81002029E0904C636803F00C0372
:1033AC00042B07D0636803F00C03082B0AD1636865
:1033BC00DE0307D523689C03DDD56B68002BDAD1BF
:1033CC00012013E06B68B3F5803F12D1236843F4FE
:1033DC0080332360FEF75EFD064623689803CAD44B
:1033EC00FEF758FD801B6428F7D9032002B0BDE816
:1033FC00F0819BB9236823F480332360236823F482
:10340C0080232360FEF746FD064623689903B2D558
:10341C00FEF740FD801B6428F7D9E6E7B3F5A02F33
:10342C00236803D143F480232360CFE723F4803354
:10343C002360236823F48023CBE7684C636813F084
:10344C000C0F07D0636803F00C03082B10D16368D2
:10345C00DA030DD423689B0702D52B69012BAFD15E
:10346C0023686A6923F0F80343EAC203236085E703
:10347C002A695B4B6AB101221A60FEF70BFD064606
:10348C0023689F07ECD4FEF705FD801B0228F7D9B3
:10349C00ABE71A60FEF7FEFC0646236898077FF53B
:1034AC006DAFFEF7F7FC801B0228F6D99DE7AA69E1
:1034BC004A4E4B4BE2B10122C3F88024FEF7EAFCE2
:1034CC000446736A9B070DD54FF4FA52454B1B68A3
:1034DC00B3FBF2F3019300BF019B5A1E0192002B28
:1034EC00F9D14FE7FEF7D6FC001B0228E9D97CE79F
:1034FC00C3F88024FEF7CEFC0446736A9F077FF561
:10350C0041AFFEF7C7FC001B0228F6D96DE7334C20
:10351C00E369D80024D40127E36943F08053E361C5
:10352C00E36903F080530093009B2F4E3368D90559
:10353C0018D5EB68012B26D1236A43F001032362D3
:10354C00FEF7A8FC41F288380646236A9B073FD554
:10355C00002F3FF41BAFE36923F08053E36115E7C1
:10356C000027E2E7336843F480733360FEF792FC84
:10357C0080463368DA05DCD4FEF78CFCA0EB08003F
:10358C006428F6D931E7ABB9236A41F2883823F0C5
:10359C0001032362236A23F004032362FEF77AFCFF
:1035AC000646236A9807D3D5FEF774FC801B40456A
:1035BC00F7D91AE7052B236A03D143F004032362DE
:1035CC00BAE723F001032362236A23F00403B6E76E
:1035DC00FEF760FC801B4045B7D906E7001002409F
:1035EC000000424230000020007000402A4C63680A
:1035FC0003F00C03082B3ED00022284B02281A663D
:10360C002CD1FEF747FC06462368990120D42B6A7F
:10361C00B3F5803F05D16268A96822F400320A43F1
:10362C006260696A62680B4322F4741213430122CC
:10363C0063601A4B1A66FEF72DFC054623689A0147
:10364C003FF5A8AEFEF726FC401B0228F6D9CCE6C7
:10365C00FEF720FC801B0228D6D9C6E6FEF71AFC22
:10366C00054623689B017FF595AEFEF713FC401BC6
:10367C000228F6D9B9E601283FF4B8AE63682A6A85
:10368C0003F4803191427FF49BAE6A6A03F47013A9
:10369C0093423FF47FAE93E600100240000042429A
:1036AC0030B5184B87B002AC03F1100522461868F0
:1036BC005968083303C2AB421446F7D140F20123D8
:1036CC001149ADF804304B6803F00C02082A17D1ED
:1036DC00C3F3834218326A44DB0312F8100C0CD586
:1036EC004B680A4AC3F34043504318336B4413F8F6
:1036FC00143CB0FBF3F007B030BD054B5843FAE770
:10370C000248F8E7565F00080010024000127A00E9
:10371C0000093D002DE9F0410D46044610B9012089
:10372C00BDE8F081444A136803F007038B4228D3A9
:10373C0021688E0730D4CA0743D43F4A136803F07C
:10374C000703AB4265D822683C4D12F0040F6CD1D4
:10375C00130706D56B68226923F4605343EAC2034E
:10376C006B60FFF79DFF6B68354AC3F30313D35CA3
:10377C00D840344B1860344B1868FEF749FB0020D6
:10378C00CEE7136823F007030B431360136803F0B1
:10379C0007038B42C3D1CBE7284B11F0040F1EBF9C
:1037AC005A6842F4E0625A60080742BF5A6842F411
:1037BC0060525A605A68A06822F0F00202435A60C4
:1037CC00B9E762681D4E012A33681AD113F4003F21
:1037DC00A5D0736841F2883823F003031343736058
:1037EC00FEF758FB07467368626803F00C03B3EBF3
:1037FC00820FA2D0FEF74EFBC01B4045F3D903202D
:10380C008EE7022A02D113F0007FE1E713F0020FDA
:10381C00DEE7136823F007032B431360136803F0F0
:10382C000703AB427FF47BAF8DE76B68E16823F451
:10383C00E0630B436B608BE70020024000100240FA
:10384C00A85F00083000002010000020044B054A3F
:10385C005B68C3F30223D35C034A1068D8407047FB
:10386C0000100240B85F000830000020044B054AED
:10387C005B68C3F3C223D35C034A1068D84070471B
:10388C0000100240B85F0008300000200F230360D6
:10389C000B4B5A6802F0030242605A6802F0F002C5
:1038AC0082605A6802F4E062C2605B68DB0803F471
:1038BC00E0630361034B1B6803F007030B60704765
:1038CC00001002400020024003682DE9F341D907A3
:1038DC00054620D5364CE369DA0032D40126E3697B
:1038EC0043F08053E361E36903F080530193019B40
:1038FC00304F3B68DB0526D5236A13F4407336D171
:10390C00236A6A6823F44073134323621EB1E3698C
:10391C0023F08053E3612868830706D52449AB68FC
:10392C004A6822F440421A434A6010F010001BD03F
:10393C001F4AE9685368002023F480030B4353604B
:10394C0012E00026D4E73B6843F480733B60FEF73B
:10395C00A1FA80463B68D805CED4FEF79BFAA0EBC3
:10396C0008006428F6D9032002B0BDE8F0816A682B
:10397C0002F440729A42C3D001200F4A236AC2F863
:10398C004004002023F44071C2F840042162D9079E
:10399C00B6D5FEF77FFA41F288380746236A9A07B4
:1039AC00AED4FEF777FAC01B4045F7D9DBE700BF72
:1039BC00001002400070004000004242704710B5F9
:1039CC000446002851D0436A002B4AD14268B2F514
:1039DC00827F00D0C3610023A36294F8513003F0BE
:1039EC00FF0223B9204684F85020FFF7E7FF02239B
:1039FC00226884F851301368A06823F040031360E8
:103A0C00636800F4044003F482730343E068A16923
:103A1C0000F400600343206900F002000343606976
:103A2C0000F00100034301F400700343E069090C4A
:103A3C0000F038000343206A01F0040100F080001C
:103A4C000343A06A00F40050034313605160D36930
:103A5C00002023F40063D3610123606584F85130A6
:103A6C0010BD0023C0E90433B5E70120F8E70000DE
:103A7C0090F83D30012B1CD102230F4A80F83D30C9
:103A8C00036893420AD0B3F1804F07D0A2F5943269
:103A9C00934203D002F58062934204D19A6802F0FB
:103AAC000702062A03D01A6842F001021A600020AD
:103ABC0070470120704700BF002C014041F21112E9
:103ACC000368196A114208D140F24442196A114242
:103ADC0002BF1A6822F001021A60012380F83D30FF
:103AEC000020704790F83C200346012A4FF002005A
:103AFC0009D01A6883F83D0051610020012283F837
:103B0C003C0083F83D20704770477047036810B540
:103B1C001A69044691070ED5DA6892070BD56FF037
:103B2C0002021A61012202779B699B0777D0FEF78C
:103B3C0068F90023237723681A69500710D5DA68CF
:103B4C0051070DD56FF004021A61022222779B698E
:103B5C00204613F4407F68D0FEF753F900232377F7
:103B6C0023681A6912070FD5DA6810070CD56FF0A5
:103B7C0008021A6104222277DB69204699075AD081
:103B8C00FEF73FF90023237723681A69D20610D574
:103B9C00DA68D0060DD56FF010021A610822227770
:103BAC00DB69204613F4407F4BD0FEF72AF9002343
:103BBC00237723681A69D10708D5DA68D20705D5A7
:103BCC006FF0010220461A61FEF7F8F823681A69B3
:103BDC00100608D5DA68110605D56FF0800220466C
:103BEC001A6100F0B6F923681A69520608D5DA682A
:103BFC00500605D56FF0400220461A61FFF785FF8D
:103C0C0023681A69910622D5DA6892061FD56FF0DF
:103C1C0020022046BDE810401A6100F099B9FEF769
:103C2C00EEF82046FFF770FF83E7FEF7E8F8204632
:103C3C00FFF76AFF92E7FEF7E2F82046FFF764FF12
:103C4C00A0E7FEF7DCF82046FFF75EFFAFE710BDFC
:103C5C001A4A036890420AD0B0F1804F07D0A2F5FF
:103C6C009432904203D002F58062904215D14A689A
:103C7C0023F070031343114A90420AD0B0F1804FE5
:103C8C0007D0A2F59432904203D002F580629042A4
:103C9C0003D1CA6823F4407313434A6923F08003A9
:103CAC00134303608B68C3620B688362034B9842B7
:103CBC0004BF0B690363012343617047002C01406F
:103CCC0010B5044630B390F83D3003F0FF021BB939
:103CDC0080F83C2000F08EFF0223206884F83D30F1
:103CEC00211DFFF7B5FF0123002084F8463084F82E
:103CFC003E3084F83F3084F8403084F8413084F80A
:103D0C00423084F8433084F8443084F8453084F8E9
:103D1C003D3010BD0120FCE710B50124036A01F011
:103D2C001F018C4023EA04030362036A8A401A438E
:103D3C00026210BD10B5044629B990F83E30012B33
:103D4C0021D0012010BD042907D190F83F30012B60
:103D5C00F7D1022384F83F3018E0082907D190F8F6
:103D6C004030012BEDD1022384F840300EE090F866
:103D7C004130012BE5D10429EBD00829F3D00223E3
:103D8C0080F8413002E0022380F83E3001222068A6
:103D9C00FFF7C2FF23680E4A93420AD15A6C42F4D1
:103DAC0000425A649A6802F00702062A0BD10020DE
:103DBC00C8E7B3F1804FF5D0064A9342F2D002F532
:103DCC0080629342EED01A6842F001021A60EEE76C
:103DDC00002C014000040040FFF7ACBF10B50446B6
:103DEC0071BB90F83E0094F84230C0B20128DBB2AF
:103DFC004ED1012B4DD10223002937D184F83E300E
:103E0C0084F8423001222068FFF786FF2368214A9C
:103E1C0093420AD0B3F1804F07D0A2F5943293426B
:103E2C0003D002F58062934204D19A6802F0070233
:103E3C00062A03D01A6842F001021A60002028E01A
:103E4C00042905D190F83F0094F84330C0B2CDE777
:103E5C0008290BBF90F8400094F8410094F84430C6
:103E6C0094F845300CBFC0B2C0B2BFE7042904D1EE
:103E7C0084F83F3084F84330C4E708290BBF84F83A
:103E8C00403084F8413084F8443084F84530B9E748
:103E9C00012010BD002C014010B50424036A01F070
:103EAC001F018C4023EA04030362036A8A401A430D
:103EBC00026210BD10B5044629B990F84230012BAE
:103ECC001DD0012010BD042907D190F84330012BDF
:103EDC00F7D1022380F8433014E0082907D190F879
:103EEC004430012BEDD1022380F844300AE090F8E5
:103EFC004530012BE5D1022380F8453002E0022346
:103F0C0080F8423004222068FFF7C6FF23685A6C01
:103F1C0042F400425A640C4A93420AD0B3F1804FE7
:103F2C0007D0A2F59432934203D002F580629342FB
:103F3C0004D19A6802F00702062A03D01A6842F0EC
:103F4C0001021A600020BDE7002C0140FFF7B2BF50
:103F5C00704770470368DA6822F49072DA605A6925
:103F6C0022F001025A61026B012A02BFDA6822F0C8
:103F7C001002DA60202380F83E3000230363704780
:103F8C0010B504460368C1681A6922F440520A430A
:103F9C001A6182680069D9680243606921F4B051E2
:103FAC0021F00C0102430A43DA605A69A16922F438
:103FBC0040720A435A610E4A934215D1FFF756FCE0
:103FCC0019234343626820689200B3FBF2F3642226
:103FDC00B3FBF2F102FB11331B013233B3FBF2F3EF
:103FEC0003EB0113836010BDFFF730FCE8E700BF63
:103FFC0000380140704710B5044640B390F83D308E
:10400C0003F0FF021BB980F83C20FFF7F3FF2423D9
:10401C00226884F83D30D368204623F40053D360E3
:10402C00FFF7AEFF236800201A6922F490421A6150
:10403C005A6922F02A025A61DA6842F40052DA60B4
:10404C002023206484F83D3084F83E3010BD0120DC
:10405C00FCE710B5044660B390F83D3003F0FF0266
:10406C001BB980F83C20FFF7C5FF2423226884F895
:10407C003D30D368204623F40053D360FFF780FF14
:10408C00236800201A6922F490421A615A6922F0BE
:10409C0022025A615A6942F008025A61DA6842F403
:1040AC000052DA602023206484F83D3084F83E30DE
:1040BC0010BD0120FCE790F83D30202B18D1A9B1A0
:1040CC00A2B190F83C30012B12D0C2840023828420
:1040DC00212201620168036480F83C3080F83D20A5
:1040EC00CA68184642F08002CA60704701207047C7
:1040FC000220704708B50023406AC385C38400F0D2
:10410C003FFF08BD704707B58168836AB1F5805FD2
:10411C00026834D10169002934D15268C2F3080213
:10412C0023F8022BC28D8362013A92B2C2851ABB6C
:10413C000368D96821F02001D960D96821F4807115
:10414C00D960596921F001015961202180F83E1094
:10415C00016B012920D10263D96821F01001D960CB
:10416C001968C90605D501921A6801925B6801931A
:10417C00019B818DFFF7C6FF03B05DF804FB39B9D5
:10418C00016929B95268D2B21A70836A0133C9E73E
:10419C00526802F07F02F7E700F0ECFEECE700005B
:1041AC00036837B51A68044612F00F0FD9685D69B9
:1041BC000CD1950667D58D0665D590F83E30222B2F
:1041CC005BD103B0BDE83040FFF79DBF05F00100A7
:1041DC0001F49075054356D0D50705D5CB0542BFE4
:1041EC00236C43F001032364550704D518B1236CE9
:1041FC0043F002032364930704D518B1236C43F0F6
:10420C0004032364150707D501F0200303431EBFE5
:10421C00236C43F008032364236C73B3920608D514
:10422C008B0606D594F83E30222B02D12046FFF7A0
:10423C006AFF236820465B69256C03F0400305F098
:10424C0008051D431BD0FFF785FE23685A695506E8
:10425C0010D55A69A06B22F040025A6150B1534BF1
:10426C004363FDF7DBFE40B1A06B436B03B0BDE8CD
:10427C0030401847204600F083FE03B030BD00F0FC
:10428C007FFE2564F9E7206B012855D1D00653D564
:10429C00CD0651D5002101911A6801925A680192FC
:1042AC00019A5A6912F040022AD0A06B0268526837
:1042BC0092B2002AE1D0A58D9542DED9E2858269C1
:1042CC00202A15D0DA6822F48072DA605A6922F05A
:1042DC0001025A615A6922F040025A61202284F884
:1042EC003E202163DA6822F01002DA60FDF778FED6
:1042FC00E38DA18DC91A89B22046FFF703FFBCE7F5
:10430C00E18D88B2E18D89B20029B6D0A18D091A50
:10431C0089B20029B1D0D86820F49070D86058695F
:10432C0020F001005861202084F83E002263DA68F6
:10433C0022F01002DA60DFE7100626D50D0624D530
:10434C0094F83D20212A98D1A168226AB1F5805FAA
:10435C0016D12169A1B932F8021BC1F308015960C9
:10436C002262E28C013A92B2E284002A85D1DA68A8
:10437C0022F08002DA60DA6842F04002DA607CE710
:10438C00511C216212785A60EBE750067FF575AF2D
:10439C004A067FF572AFDA68204622F04002DA60F6
:1043AC00202384F83D3000F0E8FD66E70141000869
:1043BC0090F83C30012B11D02423026880F83D305A
:1043CC00D36823F00C0343F00803D360202380F858
:1043DC003D30002380F83C3018467047022070476F
:1043EC0090F83C30012B11D02423026880F83D302A
:1043FC00D36823F00C0343F00403D360202380F82C
:10440C003D30002380F83C3018467047022070473E
:10441C0090F83D2090F83E0010437047C28582858D
:10442C008162034622220020186483F83C0083F842
:10443C003E201B68DA6842F48072DA605A6942F0F6
:10444C0001025A61DA6842F02002DA60704770B4F7
:10445C0090F83E60202E10D161B15AB190F83C40DA
:10446C00012C0AD0012480F83C400024046370BC69
:10447C00FFF7D4BF012070BC70470220FBE700009F
:10448C0086B0042841D8DFE800F003101C28340063
:10449C001F4B20489A6942F004029A619B6903F011
:1044AC0004030193019B06B07047194B1A489A6993
:1044BC0042F008029A619B6903F008030293029B85
:1044CC00F1E7134B15489A6942F010029A619B6907
:1044DC0003F010030393039BE5E70D4B10489A6917
:1044EC0042F020029A619B6903F020030493049B21
:1044FC00D9E7074B0B489A6942F040029A619B69D5
:10450C0003F040030593059BCDE70020CBE700BFEC
:10451C000010024000080140000C01400010014056
:10452C000014014000180140FDF7B4BC704708B5F9
:10453C00FDF7A4FCFDF73FFDFFF7F8FF08BD704742
:10454C000F4B84B0DA6942F08052DA61DA6902F01A
:10455C0080520192019A9A6942F001029A619A6919
:10456C0002F001020292029A5A6942F040025A6128
:10457C005B6903F040030393039B04B0704700BFD7
:10458C00001002400C4BD3F8FC20D2015EBFD3F8D4
:10459C00FC2042F08072C3F8FC200022074B5A60CA
:1045AC001A6842F001021A6000BF00BF00BF5868D1
:1045BC00B0FA80F04009704700ED00E0001000E018
:1045CC0008B5FFF7BDFFFFF7DDFFFDF745FCFFF773
:1045DC00B6FF00F003FEBDE808400148FDF7F0BC53
:1045EC00280000207B4B82B09A69013842F001020E
:1045FC009A619B6903F001030193019B23282CD83A
:10460C00DFE810F024002D0034003B004000470090
:10461C004C00530058005F0068006D0074007D0072
:10462C008200890092009B00A000A700B000B5009A
:10463C00BC002B002B002B00C100C8002B002B0052
:10464C002B002B00CD00D200D900E000624A536849
:10465C0043F0E06343F00103536002B070475E4ADD
:10466C00536823F0010343F0E063F5E75A4A5368BB
:10467C0043F0E06343F00203EEE7574A536823F03C
:10468C000203F0E7544A536843F0E06343F0040339
:10469C00E2E7514A536823F00403E4E74E4A5368B7
:1046AC0043F0E06343F00803D6E74B4A536823F02A
:1046BC000803D8E7484A536843F0E06343F03003FB
:1046CC00CAE7454A536823F0300343F0E06343F0F4
:1046DC001003C1E7404A536823F03003C3E73E4A56
:1046EC00536843F0E06343F0C003B5E73A4A5368BC
:1046FC0023F0C00343F0E06343F04003ACE7364AD9
:10470C00536823F0C003AEE7334A536843F0E063C9
:10471C0043F44073A0E7304A536823F4407343F0EA
:10472C00E06343F4007397E72B4A536823F4407318
:10473C0043F0E06343F480738EE7274A536823F415
:10474C00407390E7244A536843F0E06343F44063BA
:10475C0082E7214A536823F4406343F0E06343F457
:10476C00006379E71C4A536823F440637BE71A4AD9
:10477C00536843F0E06343F480536DE7164A536883
:10478C0023F480536FE7144A536843F0E06343F417
:10479C00004361E7104A536823F4004363E70E4A71
:1047AC00536823F0E06357E70B4A536823F0E06348
:1047BC0043F0807350E7084A536823F0E06343F0FA
:1047CC00007349E7044A536823F0E06343F08063C5
:1047DC0042E700BF001002400000014091FAA1F333
:1047EC00B3FA83F370B50D0E0F2691FAA1F1B1FA5D
:1047FC0081F144599B0006FA03F3890024EA03046F
:10480C0002FA01F12143415170BD91FAA1F3B3FABF
:10481C0083F370B50D0E042691FAA1F1B1FA81F172
:10482C0044599B0006FA03F3890024EA030402FAB4
:10483C0001F12143415170BD431C04D00C3151F89E
:10484C000C3C5A1C01D100207047834201F10C0131
:10485C00F5D1012070470000431C2DE9F3410646B9
:10486C000F4600D1FEE7564B00F00F02C0F30310C9
:10487C0001F0070853F82240FFF702FEB8F1010FD0
:10488C00054643D194FAA4F3B3FA83F30321200E23
:10489C002A589B0001FA03F322EA030394FAA4F2C8
:1048AC00B2FA82F29200914001220B432B50214626
:1048BC00284608F1FF38FFF791FFB8F1010F06D831
:1048CC0017F0080218BF04222146FFF79EFF94FA46
:1048DC00A4F2230EE958B2FA82F39A000F23934004
:1048EC0094FAA4F2B2FA82F2C7F301170B409200C9
:1048FC00012F23FA02F31FD0022F48D0082B2ED100
:10490C00042221462846FFF769FF28E0C7F306205A
:10491C00B8F1030F03D8DFE808F0050D0903FEE733
:10492C000022C4E7FFF75EFE0822C0E7FFF75AFE3D
:10493C000922BCE74246BAE7042B04D108222146DF
:10494C002846FFF74BFFEA68230A22EA142293FA5F
:10495C00A3F30124B3FA83F39C401443EC60194B8A
:10496C009A6942F001029A619B6903F00103019379
:10497C00019BA6F10D03012B15D8134A536823F0A4
:10498C00E06343F08063536002B0BDE8F081042B18
:10499C0004D1082221462846FFF720FFEB6823EAC2
:1049AC001423EB60DBE70F2E02D0133E012EEBD865
:1049BC00054A536823F0E06343F00073E3E700BF5C
:1049CC00685F00080010024000000140431C06D143
:1049DC007047834202D18968FFF73EBF0C310B68E8
:1049EC005A1CF6D1FEE70B685A1C01D10020704707
:1049FC00834201D1486870470C31F4E7431C01D065
:104A0C00FFF7F1BF002070474B6813B94FF0FF3030
:104A1C007047834201D1086870470C31F4E708B144
:104A2C00FFF7F2BF4FF0FF30704703468B4208464A
:104A3C0004D01BB100290CBF1846002070470000A1
:104A4C000F4B1A6842F001021A6059680D4A0A406D
:104A5C005A601A6822F0847222F480321A601A6842
:104A6C0022F480221A605A6822F4FE025A604FF433
:104A7C001F029A604FF00062034B9A60704700BFB0
:104A8C00001002400000FFF800ED00E00438704711
:104A9C0003681D4A84B093420BD11C4B9A6942F4B3
:104AAC0000629A619B6903F400630093009B04B05D
:104ABC007047B3F1804F10D0154A934218D0154A65
:104ACC009342F4D1114BDA6942F00402DA61DB69EA
:104ADC0003F004030393039BE9E70C4BDA6942F000
:104AEC000102DA61DB6903F001030193019BDEE74C
:104AFC00064BDA6942F00202DA61DB6903F0020369
:104B0C000293029BD3E700BF002C0140001002402F
:104B1C0000040040000800400368124A934206D18A
:104B2C0002F56442936923F4006393617047B3F117
:104B3C00804F06D00C4A934209D00C4A93420BD0BA
:104B4C0070470B4AD36923F00103D3617047084ABD
:104B5C00D36923F00203F8E7054AD36923F0040371
:104B6C00F3E700BF002C01400004004000080040A7
:104B7C0000100240431C10D00C4B984210D007D8A8
:104B8C00B0F1804F0ED0A3F5806398420CD0FEE7B5
:104B9C00074B9842FBD1192070476FF00D007047FE
:104BAC001E2070471C2070471D20704700080040D5
:104BBC00002C0140431C10D00C4B984210D007D84D
:104BCC00B0F1804F0ED0A3F5806398420CD0FEE775
:104BDC00074B9842FBD11B2070476FF00D007047BC
:104BEC001E2070471C2070471D2070470008004095
:104BFC00002C014038B50446FFF74AFF0068FFF768
:104C0C00B9FFD4E91212FDF75DF92068FFF7B2FF86
:104C1C00FDF78AF922681046FFF7CCFF05461046CF
:104C2C00FFF7A8FF85420BD0D4E912122846FDF7F6
:104C3C0049F92068FFF7BEFFBDE83840FDF774B9AD
:104C4C0038BD0000431C0DD0094B98420CD008D83D
:104C5C00A3F59233984209D020F48060B0F1804FD4
:104C6C0004D0FEE7002070470220704701207047F7
:104C7C00002C01402DE9F04F044687B08A46006DA8
:104C8C00624998469146DDF840B0FFF7B7FE60499F
:104C9C000190606DFFF7B2FE5E490646A06DFFF70E
:104CAC00ADFE5D490546E06DFFF7A8FE019B07468A
:104CBC00002B00F0A880626D013202D0002E00F0B3
:104CCC00A280A26D013202D0002D00F09C80E26D1A
:104CDC00013202D0002F00F0968018463146FFF7C3
:104CEC00A4FE29462060FFF7A0FE39462060FFF79E
:104CFC009CFE2060002800F08680484B98424BD1E7
:104D0C0003F55843DA6842F48042DA60DA6822F438
:104D1C008042DA609A6942F480429A619B6903F49A
:104D2C0080430393039B2523A4F860303749206DFF
:104D3C00FFF74CFE1EB13649606DFFF747FE2DB1F3
:104D4C003449A06DFFF742FE4FF480752FB1324904
:104D5C00E06D45F40075FFF739FE94F86120304B97
:104D6C00271D43F8227023680022C4E9013A0C2362
:104D7C0094F960000121C4E9039BC4E90635C4F829
:104D8C0014802262FDF79EF83846002E36D107B00B
:104D9C00BDE8F04FFFF75DB9224B984215D103F5F2
:104DAC00E6331A6942F400321A611A6922F40032AD
:104DBC001A61DA6942F40032DA61DB6903F4003318
:104DCC000493049B4FF49373AEE7174B9842ADD109
:104DDC0003F5E4331A6942F480221A611A6922F449
:104DEC0080221A61DA6942F48022DA61DB6903F409
:104DFC0080230593059B40F2272395E707B0BDE878
:104E0C00F04FFFF7F8B807B0BDE8F08FD463000897
:104E1C008C630008506300081463000800380140DC
:104E2C0080020020004400400048004010B410B143
:104E3C0010BCFFF71FBF10BC7047000008B5074B34
:104E4C0090F8612053F82200FFF7E2FA00F02200FC
:104E5C00A0F122035842584108BD00BF8002002037
:104E6C0008B5074B90F8612053F82200FFF7D0FAF1
:104E7C0000F02100A0F121035842584108BD00BFA9
:104E8C008002002070B50E46054610B94FF0FF3079
:104E9C0070BDFFF7D3FF04460028F7D1294611F85F
:104EAC00623F0122337095F86100034B53F82000E8
:104EBC00FFF7CDFA2046EBE78002002038B50D460F
:104ECC000446B8B1FFF7BAFFA0B994F96000A56425
:104EDC00FDF738F894F86100074B04F1620153F8C0
:104EEC0020000122FFF7B3FA94F96000BDE83840C6
:104EFC00FDF71AB838BD00BF8002002038B5154642
:104F0C000446B8B1C16490F96000FDF71BF8B4F821
:104F1C007230A16E9BB294F861001944064BAAB290
:104F2C0053F82000FFF7C7F894F96000BDE838404B
:104F3C00FCF7FABF38BD00BF8002002048B1436DBA
:104F4C00013306D190F86120024B53F82200FFF791
:104F5C002FBA70478002002048B1436D013306D14F
:104F6C0090F86120024B53F82200FFF739BA7047D2
:104F7C0080020020436C04381847836C04381847AF
:104F8C001FB503680446186810F0010013D0002206
:104F9C0000921A6800925B680093009B201FFFF739
:104FAC004DFF40BB0122204604F15E0104B0BDE878
:104FBC001040FFF74CBA196811F0020106D00190AD
:104FCC001A6801925B680193019BE7E71A6812F07B
:104FDC00040206D002911A6802925B680293029B4B
:104FEC00DCE719680907D9D503921A6803925B6844
:104FFC000393039BD2E704B010BD000008B5252035
:10500C00FCF7C8FF024B1868BDE80840FFF7C8B8AA
:10501C0080020020262008B5FCF7BCFF034B586823
:10502C0018B1BDE80840FFF7BBB808BD80020020EE
:10503C00272008B5FCF7AEFF034B986818B1BDE804
:10504C000840FFF7ADB808BD80020020F8B5144940
:10505C000646FFF7D3FCFCF745FD124D044655F808
:10506C00203073B90E493046FFF7C8FC0746B02014
:10507C00FCF7C9FE06463946FCF7B8FD55F8243056
:10508C001E6055F824301C6844B12046FCF746FDE0
:10509C002046BDE8F840B021FCF7B7BEF8BD00BF14
:1050AC00E06000086C020020012A02D1016000209F
:1050BC007047022A04BF0B680360F8E703681847BF
:1050CC000023012803F1010202D013464008F8E73F
:1050DC001421DBB24B43044A181D1044816811B1F2
:1050EC0013441B69184770478C0200200120FCF701
:1050FC00DFBF0220FCF7DCBF0420FCF7D9BF08207F
:10510C00FCF7D6BF1020FCF7D3BF38B505242025FB
:10511C00A8B2FCF7CDFF013C4FEA4505F8D138BDEC
:10512C0038B506244FF48065A8B2FCF7C1FF013CEA
:10513C004FEA4505F8D138BD0721204B06221975D9
:10514C00082183F82810092183F83C100A2183F8E0
:10515C00501017211A7083F86410002283F878100D
:10516C0083F88C1083F8A01083F8B4102821DA602F
:10517C001A625A639A64DA651A67C3F88420C3F812
:10518C009820C3F8AC20C3F8C02083F8C810C3F82B
:10519C00D42083F8DC10C3F8E82083F8F010C3F8AF
:1051AC00FC2083F80411C3F8102183F81811C3F8FC
:1051BC00242183F82C11C3F8382170478C0200206D
:1051CC0038B5054CA4F5A075143C201DFCF765FB07
:1051DC00AC42F9D138BD00BFCC03002030B595B03E
:1051EC00202200210BA800F0BFFC14221025002166
:1051FC000DEB020000F0B8FC2A46002101A800F0DB
:10520C00B3FC01230224CDE90E354FF460130AA838
:10521C000A9411941393FEF7A7F800B1FEE70F233D
:10522C00CDE905344FF480630790CDE90830214671
:10523C0005A8FEF76FFA00B1FEE74FF4004301A892
:10524C0001940393FEF740FB00B1FEE715B030BDAF
:10525C000C480D490D4A002302E0D458C4500433C5
:10526C00C4188C42F9D30A4A0A4C002301E013609B
:10527C000432A242FBD3FFF7E3FB00F033FC00F057
:10528C0015FC704700000020A0000020E06500081D
:10529C00A000002008050020FEE70000C0F3031268
:1052AC00042A034610B50ED80020084AD9B252F889
:1052BC00044B8C4203D103F4E063184310BD01305E
:1052CC003428F4D1FAE73420F8E700BF546400081E
:1052DC00C3B2332B2DE9F0410D462AD8274A00F4EE
:1052EC00E06052F823400443621C44D0244EC4F3C3
:1052FC00031756F8273004F00F0823FA08F3DB07DE
:10530C0010D520461F49FFF797FA10B12046FFF73A
:10531C009DFE012303FA08F256F8273023EA020314
:10532C0046F82730052D15D8DFE805F015211B1D93
:10533C001F2300F0C002C02A1DD1CD2B1BD8124B4D
:10534C0000F03F0253F822200C4B00F4E06053F8BD
:10535C002240C8E7FEE700212046BDE8F041FFF7F8
:10536C007BBA1021F8E72021F6E70321F4E70121AD
:10537C00F2E70921F0E7BDE8F08100BF54640008B2
:10538C00E4040020E06000081C640008C3B2332B66
:10539C0019D8184A00F4E06052F823301843C0F3CF
:1053AC000313042B98BF144A00F00F0098BF52F857
:1053BC002320124B88BF002253F82030C3F30F2355
:1053CC00A9B11361704700F0C002C02A0CD1CD2BDB
:1053DC000AD80B4B00F03F0253F82220054B00F487
:1053EC00E06053F82230D9E74FF0FF30D7E7536134
:1053FC00704700BF5464000814000020685F000868
:10540C001C640008FFF790B838B5044648B1FFF7A4
:10541C008BF8054600F056FBFFF786F8431BA342BA
:10542C00F8D338BDB0F80431B0F80001181A00F008
:10543C003F007047B0F80431B0F800219BB29342A2
:10544C001ABFD0F8F830985C4FF0FF30704790F8E6
:10545C000231B0F80601C0B2834227BFC3F13F034B
:10546C00C018C01A00F1FF30704707B503688DF8FB
:10547C00071001225B680DF10701984703B05DF836
:10548C0004FB13B50DF107010446FFF7FBFC90B9C3
:10549C00B4F87030B4F86C20013303F03F0393423E
:1054AC0009D0B4F870209DF80700616E92B29BB2DF
:1054BC008854A4F8703002B010BD0000B0F872200F
:1054CC0038B5436F134403F03F03A0F87230B0F8C3
:1054DC007220B0F86E3092B293421BD0B0F87220AA
:1054EC00B0F8724095B203F14002521B534203F0E4
:1054FC003F03A4B202F03F0258BF5A42C4F140032A
:10550C009A4228BF1A4604494267FFF7F7FC4FF04E
:10551C00FF3038BD0020FCE7C954000803682DE9B2
:10552C00F0479B6804468846164698470123237427
:10553C00D4F8E830B4F8029101338246C9F140093D
:10554C0004F1940708D194F80C312BB100233846A0
:10555C0084F80C31FFF7F2FC236820469B689847CF
:10556C000028F9D035464D4501D8554515D9D145BA
:10557C0028BFD14623684A4641465B682046984777
:10558C00236820469B689847B4F80221A5EB0905CF
:10559C00C8448246C2F14009E5E7B4F80221D4F8C8
:1055AC00FC005319402B104419D82A46414600F0F0
:1055BC00CDFAA946B4F8023138461D4405F03F0532
:1055CC00A4F80251FFF74CFC30B94A4638460B4957
:1055DC00C4F80891FFF792FC3046BDE8F087C2F1A1
:1055EC0040094A46414600F0B1FAD4F8FC00A5EB5C
:1055FC00090208EB090100F0A9FADBE7C95400081D
:10560C00037C33B1B0F80221B0F806319BB29A4258
:10561C00FAD17047C0F8EC30009B914208BF4FF0B4
:10562C00FF31C0F8F03000F11103C0F8F83000235E
:10563C00C0E9392100F15102A0F80431C0E93F233F
:10564C00A0F806317047000073B54FF47A73164614
:10565C000022C0E90123174B044603604FF0FF33CF
:10566C00C0F8E830144B0D46984216D1134B1A680B
:10567C00C0F8E8205B68C0F8E4304FF0FF33012E2F
:10568C0008BFC4F8E8302046D4E9392100934FF024
:10569C00FF33FFF7BFFF02B070BD09492846FFF783
:1056AC00BEF90849C4F8E8002846FFF7B8F9C4F871
:1056BC00E400E2E734650008CC03002054640008E1
:1056CC008C630008D4630008D0F8E83010B50133BF
:1056DC0004460ED10368DB68984794F80C3143B943
:1056EC00012304F1940084F80C31BDE81040FFF75D
:1056FC0033BC10BD02F00703023BDBB2042B37B501
:10570C000546C0F8101180F80D2196BF17480024EB
:10571C00C45C02F03003302B0DD14FF4C063013464
:10572C0012F0080F14BF4FF400500020082C09D0C1
:10573C00092C18D0FEE712F020031CBF4FF4806335
:10574C000134EDE7002205F1940400902046FFF7A8
:10575C006DFB2846FFF7B8FF2046054903B0BDE8AE
:10576C003040FFF7ABBB4FF48052ECE724650008E8
:10577C008F54000810B50446FFF7A6FFB4F80421B7
:10578C00B4F8003192B29A4217BFD4F8F8204FF017
:10579C00FF30D05C01331CBF03F03F03A4F8003191
:1057AC0010BD0000002202490248FFF74DBF00BFA8
:1057BC0000440040CC03002070B505460C4608465A
:1057CC0049B1FAF79DFC2B68024621462846BDE8F4
:1057DC0070405B68184770BD08B5FFF7EDFF08BD5A
:1057EC0003681B681847000008B50249FFF7E4FF7F
:1057FC0008BD00BF5865000838B50546FFF7DCFF4B
:10580C0004462846FFF7F0FF204438BDFFF7F4BFED
:10581C000023012A98BF0A2230B58BB00C468DF8B4
:10582C00243009A92546B4FBF2F404FB1253DBB275
:10583C00092B94BF30333733DBB2AA4201F8013D58
:10584C00F0D9FFF7B9FF0BB030BD2DE9F041074699
:10585C000E4614462AB9BDE8F0410368C9B21B686C
:10586C0018470A2A05D1002905DBBDE8F041FFF7EE
:10587C00CFBFD2B2F9E72D21FFF7B2FF2246054682
:10588C0071423846FFF7C4FF2844BDE8F081FFF7AA
:10589C00DCBF38B50546FFF7D8FF04462846FFF7AE
:1058AC00A3FF204438BD10B422B9026810BC1268A2
:1058BC00C9B2104710BCD2B2FFF7AABF38B5054623
:1058CC00FFF7F1FF04462846FFF78EFF204438BD52
:1058DC0010B50446FFF796FDE060236820465B692F
:1058EC009847002808DAFFF78DFDE368C01AA36813
:1058FC009842F2D34FF0FF3010BD2DE9F04107462E
:10590C000C460D468E18B542A5EB040807D0384658
:10591C00FFF7DEFF031E02DB05F8013BF3E7404611
:10592C00BDE8F0812DE9F0410746884616461D4634
:10593C0073B100243846FFF7CBFF031E05DB43454C
:10594C0003D033550134A542F4D12046BDE8F08193
:10595C001C46FAE7114810B50368C3F30312042A76
:10596C0019D80F4951F82220AAB10E4C416803F006
:10597C000F0354F823300029C3F30F230CD0C4BFFA
:10598C0001F1FF314160D16803EA010023EA010310
:10599C0043EA0043136110BD5361FCE7340000205F
:1059AC0014000020685F000833282DE9FF410E46E3
:1059BC00144622D8314B53F82050314F3B6843B931
:1059CC00B020FCF720FA80462E49FCF70FF9C7F8F7
:1059DC000080681C4ED02C4B1A68511C01D0AA4276
:1059EC0048D1B6F5803F45D2CEB93868002841D0B1
:1059FC0004B0BDE8F041FBF759BF00F0C003C02B69
:105A0C000AD1CD2808D8214B00F03F0053F82020B4
:105A1C001A4B53F82250D0E74FF0FF35CDE7760004
:105A2C001D6024B34FF47A727443B4FBF2F4012179
:105A3C0028465C60FEF710FF022231463868FCF7FE
:105A4C0011F9134B69460093124B38680393124BB0
:105A5C000293FCF787F9029B1BB1694603220846A7
:105A6C009847386804B0BDE8F041FBF7FBBF4FF036
:105A7C00FF34DCE704B0BDE8F08100BF54640008DB
:105A8C00E004002000040040340000201C640008E6
:105A9C0061590008C9500008B550000808B503202A
:105AAC00FCF7FEF9BDE8084000F00AB808B5AFF302
:105ABC000080FAF74DFBFAF791FC00F005F8FAE7D5
:105ACC00FEF77EBD7047000008B5044B2BB10448AF
